:020000040000FA
:06000000E8EF06F012001B
:020006001200E6
:06000800BAEF04F0120043
:02000E000100EF
:0C001000EC0D0000140E000011000000B8
:04001C00800EE66EFE
:10002000CBDAE5520E01436BFB0E446F060E456FB3
:10003000200E706E729E728C606A0F01306B0E0122
:10004000806B906BA06BB06BC06BD06BE00E7D6F64
:10005000E06BE16BE46B200EE56F0E0EE86F800E37
:10006000E96F080EEC6FED6BF06F600EF16F1F0E15
:10007000466F476B100E716F230E726F410E736FD8
:10008000746B756B766B776B786B796B040E7A6F2C
:100090007B6B7B6BF869E00EF96FF997FC6BFD6B7E
:1000A000FD97E66A89DAE5521200D9CFE6FFE1CF83
:1000B000D9FF1A0EE126D950060FE96EDACFEAFF12
:1000C000200EEE6E0F0EED6ED950080FE96EDACFEE
:1000D000EAFF100EEE6E0F0EED6ED9500A0FE96EAC
:1000E000DACFEAFF000EEE6E0F0EED6ED9500C0F58
:1000F000E96EDACFEAFF800EEE6E0E0EED6ED9508D
:100100000E0FE96EDACFEAFF900EEE6E0E0EED6E78
:10011000D950100FE96EDACFEAFFA00EEE6E0E0E88
:10012000ED6ED950120FE96EDACFEAFFB00EEE6E27
:100130000E0EED6ED950140FE96EDACFEAFFC00E45
:10014000EE6E0E0EED6ED950160FE96EDACFEAFFA5
:10015000D00EEE6E0E0EED6E0E017D417F0BE76E42
:10016000190EE7CFDBFFDF6ADF50080801E2E4D0B9
:10017000D950060F0B6EDACF0CF0DF50020D0B508A
:10018000F324E96E0C50F420EA6E020EEECFDBFF92
:10019000030EEDCFDBFF020EDBCF06F0030EDBCF4D
:1001A00007F0040E06C0DBFF050E07C0DBFFDF50C3
:1001B000020810E2190EDBCFF3FFF390F342F3CF06
:1001C000DBFFD950190FE96EDACFEAFFEF50010BD0
:1001D00001E1B0D0020EDBCFE9FF030EDBCFEAFF77
:1001E000EF50080B01E0A6D0FC0E0B6E020EDBCF29
:1001F000E9FF030EDBCFEAFF0B50EF16F70EDB50E3
:10020000030B0B6E020EDBCFE9FF030EDBCFEAFF21
:100210000B50EF12F70EDBAC08D0F80EDB504009A4
:10022000E76E180EE7CFDBFF06D0F80EDB50E76E67
:10023000180EE7CFDBFF050EE76E020EDBCFE9FFFE
:10024000030EDBCFEAFFE750E926000EEA22180E84
:10025000DBCFEFFFF70EDBAA06D0010EF36E180E10
:10026000F3CFDBFF02D0180EDB6ADBCFE6FFD950FD
:10027000FB0FE96EFF0EDA20EA6EEECFE6FFEECF5F
:10028000E6FFEECFE6FFEFCFE6FF010EE76E020ED0
:10029000DBCF0BF0030EDBCF0CF0E7500B26000E8C
:1002A0000C220BC0E6FF0CC0E6FF9BD90D6E070EBB
:1002B000E15E0D50D950020FE96EDACFEAFF060E6B
:1002C000EE26000EED22010EDB6AF80EDB50F36E17
:1002D000010EDBCFF4FFF350F45C1AE2F90EDBCF32
:1002E000E9FFDB2AFA0EDBCFEAFF01E3DB2AEF505E
:1002F000E66E020EDBCFE9FFDB2A030EDBCFEAFF5F
:1003000001E3DB2AE552E750EF6E010EDB2ADDD771
:10031000040EDBCFE9FF050EDBCFEAFFEF50040B45
:1003200007E1040EDBCFE9FF050EDBCFEAFFEF8626
:10033000010E04D0DF2A18D7000E00D00B6E1A0E63
:10034000E15C02E2E16AE552E16E0B50E552E7CF73
:10035000D9FF1200D9CFE6FFE1CFD9FF060EE12683
:100360000E01316B60AE05D0600EDE6E0F0EDD6EDD
:100370004DD00F0130AF05D0300EDE6E0F0EDD6EAA
:1003800045D00E017D51040B08E18051800B05E042
:10039000800EDE6E0E0EDD6E39D07D51080B08E149
:1003A0009051800B05E0900EDE6E0E0EDD6E2ED0AD
:1003B0007D51100B08E1A051800B05E0A00EDE6E10
:1003C0000E0EDD6E23D07D51200B08E1B051800B65
:1003D00005E0B00EDE6E0E0EDD6E18D07D51400BC6
:1003E00008E1C051800B05E0C00EDE6E0E0EDD6E22
:1003F0000DD07D51800B08E1D051800B05E0D00E6F
:10040000DE6E0E0EDD6E02D0000ECAD0DECFE9FF2A
:10041000DDCFEAFFEF501F0B0E01316F779271AC09
:1004200009D000D0F70EDBCFE9FFF80EDBCFEAFFF3
:10043000EF86719CD9CFE9FFDACFEAFF020EEECF4B
:10044000DBFF030EEDCFDBFFF70EDBCFE9FFF80E8E
:10045000DBCFEAFFEF6ADECFE9FFDDCFEAFF050E73
:10046000E926000EEA22050EEFCFDBFFDB500F0B73
:10047000E66EF90EDBCFE9FFFA0EDBCFEAFFE552BD
:10048000E750EF6ED950050FE96EDACFEAFFEF5073
:10049000400B07E0F70EDBCFE9FFF80EDBCFEAFFFA
:1004A000EF8CDECFE9FFDDCFEAFF020EE926000E7A
:1004B000EA22050EEFCFDBFFD950050FE96EDACF48
:1004C000EAFFEF50080B0DE0F70EDBCFE9FFF80E67
:1004D000DBCFEAFFEF8A010EF36E050EF3CFDBFFF1
:1004E00002D0050EDB6ADBCFE6FFFD0EDBCFE6FFB9
:1004F000FE0EDBCFE6FFDECF0BF0DDCF0CF0010E02
:100500000B26000E0C220BC0E6FF0CC0E6FF49D9FB
:100510000D6E050EE15E0D50060EDE26000EDD228C
:10052000F90EDBCFE9FFFA0EDBCFEAFF050EEFCFC6
:10053000DBFF040EDB6A050EDB50F36E040EDBCF2F
:10054000F4FFF350F45C19E2DFCFE9FFDF2A010E7C
:10055000DBCFEAFF01E3DB2AEF50E66EFB0EDBCFD9
:10056000E9FFDB2AFC0EDBCFEAFF01E3DB2AE552E1
:10057000E750EF6E040EDB2ADED777AE08D0F70E19
:10058000DBCFE9FFF80EDBCFEAFFEF88779E020EA4
:10059000DBCFE9FF030EDBCFEAFFEF9E010E00D0B9
:1005A0000B6E060EE15C02E2E16AE552E16E0B5071
:1005B000E552E7CFD9FF1200D9CFE6FFE1CFD9FF4F
:1005C0001F0E6F16FE0EDB506F12E00E6F140B6ED7
:1005D000FE0EDB500B5C01E0F8D7E552E7CFD9FF08
:1005E0001200D9CFE6FFE1CFD9FF020EE126D950A4
:1005F000F90F0B6EFF0EDA200C6E0BC0DEFF0CC085
:10060000DDFFF80EDB503BE1DECFE9FFDDCFEAFF97
:10061000EF50E840E840E8401F0BE66EFD0EDBCFF0
:10062000E9FFFE0EDBCFEAFFE552E750EF6EDECFCB
:10063000E9FFDDCFEAFFEE52EF50200DF3CF0BF0D4
:10064000FD0EDBCFE9FFFE0EDBCFEAFF0B50EF1212
:10065000FD0EDB2AFE0E01E3DB2ADECFE9FFDDCF54
:10066000EAFFEF50200DF350E66EFD0EDBCFE9FF01
:10067000FE0EDBCFEAFFE552E750EF6E88D0DECF0B
:10068000E9FFDDCFEAFF020EE926000EEA22EF5075
:10069000E00BE838E840E66EFD0EDBCFE9FFFE0E2A
:1006A000DBCFEAFFE552E750EF6EDECFE9FFDDCFAB
:1006B000EAFF030EE926000EEA22EF50080DF3CF01
:1006C0000BF0FD0EDBCFE9FFFE0EDBCFEAFF0B5098
:1006D000EF12FD0EDB2AFE0E01E3DB2ADECFE9FF7F
:1006E000DDCFEAFF020EE926000EEA22EF50080DE8
:1006F000F350E00BE66EFD0EDBCFE9FFFE0EDBCF25
:10070000EAFFE552E750EF6EFD0EDBCFE9FFFE0E8C
:10071000DBCFEAFFEF86DECFE9FFDDCFEAFF020E97
:10072000E926000EEA22EF50030B0B6EFD0EDBCF25
:10073000E9FFFE0EDBCFEAFF0B50EF12FD0EDB2AC6
:10074000FE0E01E3DB2ADECFE9FFDDCFEAFFEE524A
:10075000EF50E66EFD0EDBCFE9FFFE0EDBCFEAFFCA
:10076000E552E750EF6EFD0EDB2AFE0E01E3DB2AB9
:10077000DECFE9FFDDCFEAFFEF50E66EFD0EDBCF07
:10078000E9FFFE0EDBCFEAFFE552E750EF6E020E07
:10079000E15C02E2E16AE552E16EE552E7CFD9FFA2
:1007A0001200D9CFE6FFE1CFD9FF020EE126FB0E02
:1007B000DBCFDEFFDBCFDDFFFA0EDB504DE1FD0EC0
:1007C000DBCFE9FFFE0EDBCFEAFFEF50080DF35061
:1007D000E66EDECFE9FFDDCFEAFFE552E750EF6ED0
:1007E000FD0EDBCFE9FFFE0EDBCFEAFFEF50E00BA3
:1007F000E838E840E66EDECFE9FFDDCFEAFFEE52F3
:10080000E552E750EF6EFD0EDB2AFE0E01E3DB2A18
:10081000FD0EDBCFE9FFFE0EDBCFEAFFEF50E00B72
:10082000E838E8400B6EDECFE9FFDDCFEAFF0B5082
:10083000EF12DECFE9FFDDCFEAFF020EE926000E60
:10084000EA22EF6ADECFE9FFDDCFEAFF030EE926F9
:10085000000EEA22EF6A84D0FD0EDBCFE9FFFE0E28
:10086000DBCFEAFFEF50200DF350E66EDECFE9FF5D
:10087000DDCFEAFF020EE926000EEA22E552E7503C
:10088000EF6EFD0EDBCFE9FFFE0EDBCFEAFFEF5090
:10089000E840E840E8401F0BE66EDECFE9FFDDCF21
:1008A000EAFF030EE926000EEA22E552E750EF6E5A
:1008B000FD0EDB2AFE0E01E3DB2AFD0EDBCFE9FF96
:1008C000FE0EDBCFEAFFEF50030B0B6EDECFE9FF2E
:1008D000DDCFEAFF020EE926000EEA220B50EF12EE
:1008E000FD0EDBCFE9FFFE0EDBCFEAFFEF50E00BA2
:1008F000E840E840E8401F0B0B6EDECFE9FFDDCF9C
:10090000EAFF020EE926000EEA220B50EF12FD0E5E
:10091000DB2AFE0E01E3DB2AFD0EDBCFE9FFFE0E34
:10092000DBCFEAFFEF50E66EDECFE9FFDDCFEAFF77
:10093000EE52E552E750EF6EFD0EDB2AFE0E01E3AC
:10094000DB2AFD0EDBCFE9FFFE0EDBCFEAFFEF5027
:10095000E66EDECFE9FFDDCFEAFFE552E750EF6E4E
:10096000020EE15C02E2E16AE552E16EE552E7CF98
:04097000D9FF120099
:0C097400D8CFE4FFE0CFE4FFE46EDACF60
:10098000E4FFE2CFDAFFE652F2A40AD0F2940E01BD
:10099000172B182B3D0E175D03E3176B010E156F18
:1009A000F2B0F290E552E5CFDAFFE550E5CFE0FF97
:1009B000E5CFD8FF1000926A080E936E946A0F017B
:1009C0005D6B5C6B0EEC00F0D40EE66E8EEC06F008
:1009D000E552F28EF28C21CEE6FF22CEE6FF0FEC3E
:1009E00006F0E552E552010EE66EE6683FEC06F0D1
:1009F000E552E5520B0EE66E0E0EE66E0A0EE66E40
:100A00000E0EE66E020EE66E0E0EE66E000EE66E40
:100A10000E0EE66EAAEC01F00B6E080EE15E0B50B6
:100A200000091DE00E01400E001901E1015108E12D
:100A3000025104E10E01010E236F02D00E01236B5F
:100A40000E0102510E01216F226B21CE0CF00B6AB8
:100A50000E0103510E010B10216F0CC022FE0E017E
:100A600015513CE016513AE0156B8270840EE66E2B
:100A7000030EE66E0FEC06F0E552E552010EE66E4F
:100A8000E6683FEC06F0E552E552840EE66E030E92
:100A9000E66EDFEC05F0E552E552010EE66EE66823
:100AA00067EC06F0E552E5520E010C2BE66A030EE8
:100AB000E66E0C0EE66E0E0EE66E19CEE6FF1ACE50
:100AC000E6FF1BCEE6FF1CCEE6FF55EC00F00B6EFA
:100AD000080EE15E0B50000901E1E8D78BD7120048
:100AE000D9CFE6FFE1CFD9FFFD0EDB0409E1FE0E11
:100AF000DBCFE6FFC1EC06F0E5529EA8FED70CD096
:100B0000FD0EDB50020808E1FE0EDBCFE6FFAAEC8B
:100B100006F0E552A4A8FED7E552E7CFD9FF1200B0
:100B20000E0EF66E000EF76E000EF86E0E01090046
:100B3000F5502A6F0900F5502B6F03E12A6701D0A9
:100B40003DD00900F550256F0900F550266F0900CA
:100B5000F550276F09000900F550E96E0900F550BE
:100B6000EA6E090009000900F550286F0900F550E8
:100B7000296F09000900F6CF2CFEF7CF2DFEF8CF24
:100B80002EFE25CEF6FF26CEF7FF27CEF8FF0E016C
:100B9000285302E1295307E00900F550EE6E2807BB
:100BA000F8E22907F9D72CCEF6FF2DCEF7FF2ECE8F
:0E0BB000F8FF0E012A07000E2B5BBFD71200C4
:020BBE00D9CF8D
:100BC000E6FFDACFE6FFE1CFD9FFE2CFDAFFE65268
:100BD000E652FC0EDBCF0BF0FD0EDBCF0CF0060E69
:100BE000D8900B360C36E804FBE10BC0DEFF0CC0DE
:100BF000DDFF010EDBCF4EFFDF50E840E8403F0B4A
:100C0000300B0B6ECF0E0F014D150B104D6FE552D3
:0E0C1000E552E552E5CFDAFFE7CFD9FF12003B
:020C1E00D9CF2C
:100C2000E6FFDACFE6FFE1CFD9FFE2CFDAFFE65207
:100C3000E652FC0EDBCF0BF0FD0EDBCF0CF0060E08
:100C4000D8900B360C36E804FBE10BC0DEFF0CC07D
:100C5000DDFF010EDBCF51FFDF50E840E8403F0BE6
:100C6000300B0B6ECF0E0F0150150B10506FE5526D
:0E0C7000E552E552E5CFDAFFE7CFD9FF1200DB
:020C7E00D9CFCC
:100C8000E6FFDACFE6FFE1CFD9FFE2CFDAFF0F01CF
:100C90000C0E506F9998FC0EDB50100BE840E840AA
:100CA000E8401F0B9912949499A206D08894FD0EE7
:100CB000DB50A96E888405D0CA94FD0EDB50CB6E44
:0E0CC000CA84E552E5CFDAFFE7CFD9FF120074
:020CCE00D9CF7C
:100CD000E6FFDACFE6FFE1CFD9FFE2CFDAFF0F017F
:100CE0000C0E4D6F9998FC0EDB50100BE840E8405D
:100CF0003F0B9912949C99A406D08894FD0EDB506A
:100D0000A96E888405D0CA94FD0EDB50CB6ECA84D0
:0C0D1000E552E5CFDAFFE7CFD9FF120073
:040D1C00D9CFE6FF46
:100D2000DACFE6FFE1CFD9FFE2CFDAFFFD0EDB50ED
:100D30007F0BD56ED76AD66AF294FD0EDBAE02D079
:100D4000F28A01D0F29AD58EE552E5CFDAFFE7CFED
:040D5000D9FF1200B5
:0C0D5400D9CFE6FFDACFE6FFE1CFD9FFF0
:100D6000E2CFDAFFBAAC04D0BA900E012FB3BA804A
:100D7000FD0EDB50796EE552E5CFDAFFE7CFD9FF04
:020D800012005F
:0E0D8200D9CFE6FFDACFE6FFE1CFD9FFE2CF0F
:100D9000DAFFACAC04D0AC900E0130B3AC80FD0EE9
:100DA000DB50AD6EE552E5CFDAFFE7CFD9FF120099
:100DB000410EF36E00EE00F00E0E01D81200EA6054
:100DC00002D0EE6AFCD7F350E9601200EE6AFCD75D
:100DD0001DEE00F02DEE00F0F86A0A9C90EC05F094
:0C0DE00003EC00F0DBEC04F0FBD7120089
:040DEC0008000100FA
:0D0DF000007500000070000000000001010F
:020000040030CA
:0100000015EA
:0100010002FC
:010005008971
:00000001FF
