:020000040000FA
:06000000A6EF10F0120053
:020006001200E6
:060008000EEF00F01200F3
:02000E000100EF
:0C001000882100000001000056000000E4
:04001C00D8CFE4FF56
:10002000E0CFE4FFE46EDACFE4FFE2CFDAFFE9CF1E
:10003000E4FFEACFE4FFF6CFE4FFF7CFE4FFF3CF2E
:10004000E4FFF4CFE4FFFACFE4FF00EE14F0140E67
:10005000E80403E3EECFE4FFFBD7E652F2A4C0D0FE
:10006000F2940101042B000E0523062B07233D0EFD
:1000700005AF02D0D89003D0045D000E055901E20F
:10008000A3D0046B056B010E016F19C11AF01AC1E0
:100090001BF01BC11CF01CC11DF00DEC0CF01BC0B3
:1000A00010F01CC011F01DC012F01EC013F02BC1C7
:1000B00020F02CC121F02DC122F02EC123F010C060
:1000C0001BF011C01CF012C01DF013C01EF0BDECDF
:1000D0000CF01BC00CF01CC00DF01DC00EF01EC0BB
:1000E0000FF02FC120F030C121F031C122F032C118
:1000F00023F00CC01BF00DC01CF00EC01DF00FC093
:100100001EF010EC0DF01BC008F01CC009F01DC063
:100110000AF01EC00BF0206A216A226A400E236E8C
:1001200008C01BF009C01CF00AC01DF00BC01EF077
:1001300010EC0DF01BC004F01CC005F01DC006F053
:100140001EC007F0C30E206EF50E216E480E226E03
:10015000400E236E04C01BF005C01CF006C01DF04D
:1001600007C01EF010EC0DF01BC000F01CC001F029
:100170001DC002F01EC003F0206A216A4C0E226EE0
:10018000420E236E00C01BF001C01CF002C01DF027
:1001900003C01EF0BDEC0CF01BC048F11CC049F1BF
:1001A0001DC04AF11EC04BF119C14CF11AC14DF1ED
:1001B0001BC14EF11CC14FF10101196B1A6B1B6B76
:1001C0001C6B082B000E0923D890075104E6620E21
:1001D000065D020E075904E3066B076B010E026F02
:1001E000F2A009D0F29081A806D00101192B000ECF
:1001F0001A231B231C23E55200EE27F0140EE804FB
:1002000003E3E5CFEDFFFBD7E5CFFAFFE5CFF4FF42
:10021000E5CFF3FFE5CFF7FFE5CFF6FFE5CFEAFF48
:10022000E5CFE9FFE5CFDAFFE550E5CFE0FFE5CF29
:10023000D8FF10000001756B766B776B786BA56B40
:10024000A66B700EA76F410EA86FA96BAA6B900EDC
:10025000AB6F410EAC6F286A296A800E2A6E3F0E82
:100260002B6E2FC120F030C121F031C122F032C1FC
:1002700023F028C01BF029C01CF02AC01DF02BC0A1
:100280001EF0BDEC0CF01BC0B5F01CC0B6F01DC0DC
:10029000B7F01EC0B8F00001B16BB26BB36BB46BBA
:1002A000796B7A6B7B6B7C6B0DC185F00EC186F030
:1002B0000FC187F010C188F0050E916F926B11C1CC
:1002C00093F012C194F013C195F014C196F0080E8A
:1002D0009F6FA06B00EC06F06B0EE66E000EE66EF4
:1002E0006A0EE66E000EE66E620EE66E000EE66EBA
:1002F000600EE66E000EE66ED5EC08F0286E080E75
:10030000E15E2850000901E196D1710E00016019EB
:1003100001E1615101E173D1700E601901E1615198
:1003200001E089D10101086B096B00016251020AE9
:1003300001E144D1030A0EE0010A01E05FD10101AD
:10034000476B00016351000EF35064110101296FE6
:100350002A6B54D10101010E476F63C079F000018F
:100360007A6B7B6B7C6B080E1F0B79C028F07AC010
:1003700029F07BC02AF07CC02BF007E0D89028360B
:1003800029362A362B36E806F9E164C02CF02D6AAE
:100390002E6A2F6A28502C100001796F29502D10D9
:1003A0007A6F2A502E107B6F2B502F107C6F080E07
:1003B0001F0B79C028F07AC029F07BC02AF07CC0DE
:1003C0002BF007E0D890283629362A362B36E80657
:1003D000F9E165C02CF02D6A2E6A2F6A28502C1086
:1003E0000001796F29502D107A6F2A502E107B6FE3
:1003F0002B502F107C6F080E1F0B79C028F07AC08D
:1004000029F07BC02AF07CC02BF007E0D89028367A
:1004100029362A362B36E806F9E166C02CF02D6A1B
:100420002E6A2F6A28502C100001796F29502D1048
:100430007A6F2A502E107B6F2B502F107C6F206A02
:10044000216A226A236A79C01BF07AC01CF07BC043
:100450001DF07CC01EF0D9EC0DF0010A35E13BC166
:1004600020F03CC121F03DC122F03EC123F079C013
:100470001BF07AC01CF07BC01DF07CC01EF010EC9D
:100480000DF01BC028F01CC029F01DC02AF01EC0B2
:100490002BF043C120F044C121F045C122F046C1F8
:1004A00023F028C01BF029C01CF02AC01DF02BC06F
:1004B0001EF0BDEC0CF01BC07DF01CC07EF01DC01A
:1004C0007FF01EC080F034D03FC120F040C121F049
:1004D00041C122F042C123F079C01BF07AC01CF068
:1004E0007BC01DF07CC01EF010EC0DF01BC028F08E
:1004F0001CC029F01DC02AF01EC02BF043C120F003
:1005000044C121F045C122F046C123F028C01BF0B0
:1005100029C01CF02AC01DF02BC01EF0BDEC0CF051
:100520001BC07DF01CC07EF01DC07FF01EC080F09F
:100530000001010E896F7DC028F07EC029F07FC0C8
:100540002AF080C02BF0180ED8902B322A32293294
:100550002832E806F9E1285000018A6F7FC028F0B0
:1005600080C029F000012A6A2B6A285000018B6F95
:100570007EC028F07FC029F080C02AF000012B6ADD
:10058000285000018C6F7D518D6FE66A91C0E6FFA7
:10059000890EE66E000EE66E85C0E6FF86C0E6FFB9
:1005A00087C0E6FF88C0E6FF80EC07F0286E080EE3
:1005B000E15E2850000901E1E8D720D00101020ED8
:1005C000476F00016551000EF3CF2AF06451F36EBE
:1005D000F3CF29F06351F36EF35029102A106611FE
:1005E000286E28C01DF0E5EC0BF01BC025F11CC0E7
:1005F00026F11DC027F11EC028F100D01CD0645187
:10060000000EF3CF2AF06351F36EF3CF29F062515D
:10061000F36EF35029102A106511286E28C01DF0C2
:10062000E5EC0BF01BC033F11CC034F11DC035F1FB
:100630001EC036F100D00101025101E0026B0151F0
:1006400001E13FD1016B206A216A226A236A79C0E5
:100650001BF07AC01CF07BC01DF07CC01EF0E2ECE9
:100660000DF0010A19E1206A216A800E226EBF0E88
:10067000236E48C11BF049C11CF04AC11DF04BC19B
:100680001EF010EC0DF01BC075F01CC076F01DC004
:1006900077F01EC078F008D048C175F049C176F0F7
:1006A0004AC177F04BC178F001010851155D09513D
:1006B00016590CE20001796B7A6B7B6B7C6B2CDB3F
:1006C0000001B16BB26BB36BB46B32D075C0E6FF97
:1006D00076C0E6FF77C0E6FF78C0E6FF79C0E6FFA8
:1006E0007AC0E6FF7BC0E6FF7CC0E6FFECD82E6E4A
:1006F000080EE15E2E501AC02AF01BC02BF01CC061
:100700002CF01DC02DF02AC01BF02BC01CF02CC0FB
:100710001DF02DC01EF0AAEC0DF01CC028F01DC06D
:1007200029F028C0E6FF29C0E6FFD7D9E552E552F7
:10073000A5DAF3CF34F0F4CF35F034C01CF035C077
:100740001DF0F8EC0BF01BC030F01CC031F01DC0E8
:1007500032F01EC033F0206A216AA00E226E400ED5
:10076000236E30C01BF031C01CF032C01DF033C00E
:100770001EF010EC0DF01BC02CF01CC02DF01DC0A5
:100780002EF01EC02FF0206A216A800E226E450EC8
:10079000236E2CC01BF02DC01CF02EC01DF02FC0EE
:1007A0001EF0BDEC0CF01BC028F01CC029F01DC0D1
:1007B0002AF01EC02BF037C120F038C121F039C11A
:1007C00022F03AC123F028C01BF029C01CF02AC037
:1007D0001DF02BC01EF010EC0DF01BC081F01CC0F2
:1007E00082F01DC083F01EC084F075C028F076C072
:1007F00029F077C02AF078C02BF0180ED8902B3251
:100800002A3229322832E806F9E128500001976F90
:1008100077C028F078C029F000012A6A2B6A285096
:100820000001986F76C028F077C029F078C02AF0D0
:1008300000012B6A28500001996F75519A6F81C091
:1008400028F082C029F083C02AF084C02BF0180E53
:10085000D8902B322A3229322832E806F9E1285082
:1008600000019B6F83C028F084C029F000012A6A30
:100870002B6A285000019C6F82C028F083C029F0A9
:1008800084C02AF000012B6A285000019D6F81511D
:100890009E6FE66A9FC0E6FF970EE66E000EE66E5C
:1008A00093C0E6FF94C0E6FF95C0E6FF96C0E6FF62
:1008B00080EC07F0286E080EE15E2850000901E187
:1008C000E8D70AD51200D9CFE6FFE1CFD9FF040E51
:1008D000E126DE6ADE6ADE6ADD6ADD52DD52FB0E8B
:1008E000DBCF28F0FC0EDBCF29F0FD0EDBCF2AF0AA
:1008F000FE0EDBCF2BF0F70EDBCF2CF0F80EDBCFAC
:100900002DF0F90EDBCF2EF0FA0EDBCF2FF02CC03E
:1009100020F02DC021F02EC022F02FC023F028C0DF
:100920001BF029C01CF02AC01DF02BC01EF026ECC5
:100930000CF01BC0A1F01CC0A2F01DC0A3F01EC093
:10094000A4F0B5C020F0B6C021F0B7C022F0B8C006
:1009500023F0A1C01BF0A2C01CF0A3C01DF0A4C0D6
:100960001EF010EC0DF01BC028F01CC029F01DC0BB
:100970002AF01EC02BF028C020F029C021F02AC088
:1009800022F02BC023F0B1C01BF0B2C01CF0B3C0EA
:100990001DF0B4C01EF027EC0CF01BC0B1F01CC061
:1009A000B2F01DC0B3F01EC0B4F0B1C020F0B2C0B0
:1009B00021F0B3C022F0B4C023F0A9C01BF0AAC03C
:1009C0001CF0ABC01DF0ACC01EF010EC0DF01BC055
:1009D0002CF01CC02DF01DC02EF01EC02FF02CC01E
:1009E00020F02DC021F02EC022F02FC023F0A1C096
:1009F0001BF0A2C01CF0A3C01DF0A4C01EF027EC89
:100A00000CF01BC028F01CC029F01DC02AF01EC02D
:100A10002BF028C020F029C021F02AC022F02BC0E2
:100A200023F0A5C01BF0A6C01CF0A7C01DF0A8C0F5
:100A30001EF010EC0DF01BC0DEFF1CC0DEFF1DC061
:100A4000DEFF1EC0DDFFDD52DD52206A216A7A0E14
:100A5000226E440E236EB1C01BF0B2C01CF0B3C0B6
:100A60001DF0B4C01EF0D9EC0DF0010A08E1000140
:100A7000B16BB26B7A0EB36F440EB46F19D0206AAB
:100A8000216A7A0E226EC40E236EB1C01BF0B2C072
:100A90001CF0B3C01DF0B4C01EF0E2EC0DF0010A72
:100AA00007E10001B16BB26B7A0EB36FC40EB46F85
:100AB000DECF1AF0DECF1BF0DECF1CF0DDCF1DF055
:100AC000DD52DD52040EE15C03E200D0E16AE55242
:100AD000E16EE552E7CFD9FF1200D9CFE6FFE1CFB3
:100AE000D9FF828A000E01015215286E800E53151F
:100AF000296EFD0EDBCF2AF0FE0EDBCF2BF0000EB1
:100B00002A16800E2B162A50281802E12B5029187D
:100B100015E0000EE66EE66A9FEC0FF0E552E55236
:100B2000000EE66EE66A6FEC0FF0E552E552FD0E40
:100B3000DBCF52F1FE0EDBCF53F13ED0FD0EDBCF0B
:100B400028F0FE0EDBCF29F0293404E228500008FB
:100B5000000E295412E2FD0EDBCFE6FFFE0EDBCFC6
:100B6000E6FF9FEC0FF0E552E552000EE66EE66AF6
:100B70006FEC0FF0E552E55219D0000EE66EE66A12
:100B80009FEC0FF0E552E552FD0EDBCF28F0FE0E94
:100B9000DBCF29F0286C291E000E292228C0E6FF91
:100BA00029C0E6FF6FEC0FF0E552E552FD0EDBCFFA
:100BB00052F1FE0EDBCF53F1E552E7CFD9FF120021
:100BC000D9CFE6FFE1CFD9FFFD0EDB0409E1FE0E30
:100BD000DBCFE6FF7FEC10F0E5529EA8FED70CD0ED
:100BE000FD0EDB50020808E1FE0EDBCFE6FF68ECED
:100BF00010F0E552A4A8FED7E552E7CFD9FF1200C6
:100C0000010E926E100E936E946A0F015D6B5C6B19
:100C100036EC07F0D40EE66E4CEC10F0E552F28E96
:100C2000F28CF2860F01100E5A6F030ECA6E000E80
:100C3000E66EE66A9FEC0FF0E552E552000EE66EB6
:100C4000E66A6FEC0FF0E552E552010EE66EE668DB
:100C5000FFEC0FF0E552E552010EE66EE66826EC79
:100C600010F0E552E552E66A030EE66EAF0EE66E50
:100C7000CFEC0FF0E552E552E5521200C2EC10F055
:100C8000BDEC10F0000901E0FBD7B4EC10F000D08F
:100C90001200D9CFE6FFE1CFD9FFFD0EDBCF28F060
:100CA000FE0EDBCF29F0293404E228500008000EA4
:100CB000295413E2FD0EDBCF28F0FE0EDBCF29F026
:100CC000FF0E28167F0E291628C0E6FF29C0E6FF72
:100CD0009FEC0FF0E552E5521BD0D950FD0FE96EA5
:100CE000FF0EDA20EA6EEE50ED1012E0FD0EDBCFC3
:100CF00028F0FE0EDBCF29F0FF0E28167F0E2916F6
:100D000028C0E6FF29C0E6FF6FEC0FF0E552E55280
:100D1000E552E7CFD9FF1200000EE66EE66A9FECBF
:100D20000FF0E552E552000EE66EE66A6FEC0FF04A
:100D3000E552E552829A1200D9CFE6FFE1CFD9FF02
:100D4000020EE126FE0EDB50020A30E0030A09E043
:100D5000010A01E02CD0FC0EDBCFDEFFDBCFDDFF94
:100D600026D0F80EDBCF28F0F90EDBCF29F0FA0EF3
:100D7000DBCF2AF0FB0EDBCF2BF075C020F076C066
:100D800021F077C022F078C023F028C01BF029C0E2
:100D90001CF02AC01DF02BC01EF026EC0CF0AAECB3
:100DA0000DF01CC0DEFF1DC0DDFF01D000D0DECF86
:100DB000E6FFDDCFE6FF6DDFE552E552020EE15CB6
:100DC00002E2E16AE552E16EE552E7CFD9FF120097
:100DD000D9CFE6FFE1CFD9FF020EE126DE6ADD6A58
:100DE000DECF28F0DDCF29F0FA0EDB50000129AE6E
:100DF00002D0D89003D0285C000E29582DE2FD0EB9
:100E0000DBCF2CF0FE0EDBCF2DF0080E1C6E1D6A22
:100E1000DECF21F0DDCF22F07DEC0DF01A502CC09A
:100E20002AF02DC02BF005E0D8902A362B36E804A6
:100E3000FBE1FB0EDBCF28F0FC0EDBCF29F0DE5010
:100E40002824E96EDD502920EA6E2AC0EFFFDF2A50
:100E5000010E01E3DB2AC4D7020EE15C02E2E16A83
:0C0E6000E552E16EE552E7CFD9FF120029
:040E6C00800EE66EA0
:100E7000CEDAE5520E01436BFB0E446F060E456F52
:100E8000200E706E729E728C606A0F01306B0E01C4
:100E9000806B906BA06BB06BC06BD06BE00E7D6F06
:100EA0000E0EE06FE16BE46FA00EE56F0E0EE86FC3
:100EB000800EE96F0E0EEC6FC00EED6F080EF06F36
:100EC000600EF16F1F0E466F476B100E716F230E91
:100ED000726F410E736F746B756B766B776B786B9B
:100EE000796B040E7A6F7B6B7B6BF869E00EF96FA0
:100EF000F997FC6BFD6BFD97E66A89DAE552120003
:100F0000D9CFE6FFE1CFD9FF1A0EE126D950060F5F
:100F1000E96EDACFEAFF200EEE6E0F0EED6ED950BD
:100F2000080FE96EDACFEAFF100EEE6E0F0EED6ECF
:100F3000D9500A0FE96EDACFEAFF000EEE6E0F0EFF
:100F4000ED6ED9500C0FE96EDACFEAFF800EEE6E2F
:100F50000E0EED6ED9500E0FE96EDACFEAFF900E4D
:100F6000EE6E0E0EED6ED950100FE96EDACFEAFF7D
:100F7000A00EEE6E0E0EED6ED950120FE96EDACFA6
:100F8000EAFFB00EEE6E0E0EED6ED950140FE96E44
:100F9000DACFEAFFC00EEE6E0E0EED6ED950160FD0
:100FA000E96EDACFEAFFD00EEE6E0E0EED6E0E0198
:100FB0007D417F0BE76E190EE7CFDBFFDF6ADF5065
:100FC000080801E2E4D0D950060F286EDACF29F0E4
:100FD000DF50020D2850F324E96E2950F420EA6E08
:100FE000020EEECFDBFF030EEDCFDBFF020EDBCFF9
:100FF0001CF0030EDBCF1DF0040E1CC0DBFF050E42
:101000001DC0DBFFDF50020810E2190EDBCFF3FF3B
:10101000F390F342F3CFDBFFD950190FE96EDACF2B
:10102000EAFFEF50010B01E1B0D0020EDBCFE9FF88
:10103000030EDBCFEAFFEF50080B01E0A6D0FC0E59
:10104000286E020EDBCFE9FF030EDBCFEAFF28504C
:10105000EF16F70EDB50030B286E020EDBCFE9FF15
:10106000030EDBCFEAFF2850EF12F70EDBAC08D0FF
:10107000F80EDB504009E76E180EE7CFDBFF06D015
:10108000F80EDB50E76E180EE7CFDBFF050EE76EBC
:10109000020EDBCFE9FF030EDBCFEAFFE750E926C4
:1010A000000EEA22180EDBCFEFFFF70EDBAA06D008
:1010B000010EF36E180EF3CFDBFF02D0180EDB6AC1
:1010C000DBCFE6FFD950FB0FE96EFF0EDA20EA6EA8
:1010D000EECFE6FFEECFE6FFEECFE6FFEFCFE6FF87
:1010E000010EE76E020EDBCF28F0030EDBCF29F0F6
:1010F000E7502826000E292228C0E6FF29C0E6FF77
:101100009BD92A6E070EE15E2A50D950020FE96E74
:10111000DACFEAFF060EEE26000EED22010EDB6AA4
:10112000F80EDB50F36E010EDBCFF4FFF350F45CEE
:101130001AE2F90EDBCFE9FFDB2AFA0EDBCFEAFF7A
:1011400001E3DB2AEF50E66E020EDBCFE9FFDB2A7C
:10115000030EDBCFEAFF01E3DB2AE552E750EF6E37
:10116000010EDB2ADDD7040EDBCFE9FF050EDBCF56
:10117000EAFFEF50040B07E1040EDBCFE9FF050E99
:10118000DBCFEAFFEF86010E04D0DF2A18D7000E6E
:1011900000D0286E1A0EE15C02E2E16AE552E16ECF
:1011A0002850E552E7CFD9FF1200D9CFE6FFE1CFB3
:1011B000D9FF060EE1260E01106B60AE05D0600E61
:1011C000DE6E0F0EDD6E4DD00F0130AF05D0300E4C
:1011D000DE6E0F0EDD6E45D00E017D51040B08E171
:1011E0008051800B05E0800EDE6E0E0EDD6E39D074
:1011F0007D51080B08E19051800B05E0900EDE6EEA
:101200000E0EDD6E2ED07D51100B08E1A051800B2B
:1012100005E0A00EDE6E0E0EDD6E23D07D51200B9C
:1012200008E1B051800B05E0B00EDE6E0E0EDD6EF3
:1012300018D07D51400B08E1C051800B05E0C00E75
:10124000DE6E0E0EDD6E0DD07D51800B08E1D051AB
:10125000800B05E0D00EDE6E0E0EDD6E02D0000EAD
:10126000CAD0DECFE9FFDDCFEAFFEF501F0B0E0142
:10127000106F779271AC09D000D0F70EDBCFE9FF89
:10128000F80EDBCFEAFFEF86719CD9CFE9FFDACF0A
:10129000EAFF020EEECFDBFF030EEDCFDBFFF70E12
:1012A000DBCFE9FFF80EDBCFEAFFEF6ADECFE9FF25
:1012B000DDCFEAFF050EE926000EEA22050EEFCF8C
:1012C000DBFFDB500F0BE66EF90EDBCFE9FFFA0E0A
:1012D000DBCFEAFFE552E750EF6ED950050FE96E1C
:1012E000DACFEAFFEF50400B07E0F70EDBCFE9FF64
:1012F000F80EDBCFEAFFEF8CDECFE9FFDDCFEAFFB0
:10130000020EE926000EEA22050EEFCFDBFFD950D0
:10131000050FE96EDACFEAFFEF50080B0DE0F70E8C
:10132000DBCFE9FFF80EDBCFEAFFEF8A010EF36EA9
:10133000050EF3CFDBFF02D0050EDB6ADBCFE6FF45
:10134000FD0EDBCFE6FFFE0EDBCFE6FFDECF28F0A3
:10135000DDCF29F0010E2826000E292228C0E6FF45
:1013600029C0E6FF49D92A6E050EE15E2A50060E15
:10137000DE26000EDD22F90EDBCFE9FFFA0EDBCF11
:10138000EAFF050EEFCFDBFF040EDB6A050EDB5034
:10139000F36E040EDBCFF4FFF350F45C19E2DFCF01
:1013A000E9FFDF2A010EDBCFEAFF01E3DB2AEF5082
:1013B000E66EFB0EDBCFE9FFDB2AFC0EDBCFEAFF9C
:1013C00001E3DB2AE552E750EF6E040EDB2ADED79D
:1013D00077AE08D0F70EDBCFE9FFF80EDBCFEAFFE0
:1013E000EF88779E020EDBCFE9FF030EDBCFEAFF2B
:1013F000EF9E010E00D0286E060EE15C02E2E16A6B
:10140000E552E16E2850E552E7CFD9FF1200D9CF5F
:10141000E6FFE1CFD9FF1F0E6F16FE0EDB506F12F5
:10142000E00E6F14286EFE0EDB50285C01E0F8D74A
:10143000E552E7CFD9FF1200D9CFE6FFE1CFD9FFC0
:10144000020EE126D950F90F286EFF0EDA20296E20
:1014500028C0DEFF29C0DDFFF80EDB503BE1DECF08
:10146000E9FFDDCFEAFFEF50E840E840E8401F0B1E
:10147000E66EFD0EDBCFE9FFFE0EDBCFEAFFE552A5
:10148000E750EF6EDECFE9FFDDCFEAFFEE52EF501F
:10149000200DF3CF28F0FD0EDBCFE9FFFE0EDBCFF2
:1014A000EAFF2850EF12FD0EDB2AFE0E01E3DB2AD5
:1014B000DECFE9FFDDCFEAFFEF50200DF350E66EFF
:1014C000FD0EDBCFE9FFFE0EDBCFEAFFE552E75072
:1014D000EF6E88D0DECFE9FFDDCFEAFF020EE9260E
:1014E000000EEA22EF50E00BE838E840E66EFD0E11
:1014F000DBCFE9FFFE0EDBCFEAFFE552E750EF6EF0
:10150000DECFE9FFDDCFEAFF030EE926000EEA2277
:10151000EF50080DF3CF28F0FD0EDBCFE9FFFE0EF4
:10152000DBCFEAFF2850EF12FD0EDB2AFE0E01E3AF
:10153000DB2ADECFE9FFDDCFEAFF020EE926000E4F
:10154000EA22EF50080DF350E00BE66EFD0EDBCF04
:10155000E9FFFE0EDBCFEAFFE552E750EF6EFD0E2E
:10156000DBCFE9FFFE0EDBCFEAFFEF86DECFE9FF40
:10157000DDCFEAFF020EE926000EEA22EF50030B50
:10158000286EFD0EDBCFE9FFFE0EDBCFEAFF285011
:10159000EF12FD0EDB2AFE0E01E3DB2ADECFE9FFB0
:1015A000DDCFEAFFEE52EF50E66EFD0EDBCFE9FF36
:1015B000FE0EDBCFEAFFE552E750EF6EFD0EDB2AB1
:1015C000FE0E01E3DB2ADECFE9FFDDCFEAFFEF50BD
:1015D000E66EFD0EDBCFE9FFFE0EDBCFEAFFE55244
:1015E000E750EF6E020EE15C02E2E16AE552E16E65
:1015F000E552E7CFD9FF1200D9CFE6FFE1CFD9FFFF
:10160000020EE126FB0EDBCFDEFFDBCFDDFFFA0EA5
:10161000DB504DE1FD0EDBCFE9FFFE0EDBCFEAFF35
:10162000EF50080DF350E66EDECFE9FFDDCFEAFFA5
:10163000E552E750EF6EFD0EDBCFE9FFFE0EDBCF8C
:10164000EAFFEF50E00BE838E840E66EDECFE9FF56
:10165000DDCFEAFFEE52E552E750EF6EFD0EDB2ADA
:10166000FE0E01E3DB2AFD0EDBCFE9FFFE0EDBCF32
:10167000EAFFEF50E00BE838E840286EDECFE9FFE4
:10168000DDCFEAFF2850EF12DECFE9FFDDCFEAFF22
:10169000020EE926000EEA22EF6ADECFE9FFDDCF77
:1016A000EAFF030EE926000EEA22EF6A84D0FD0E5F
:1016B000DBCFE9FFFE0EDBCFEAFFEF50200DF3504A
:1016C000E66EDECFE9FFDDCFEAFF020EE926000E6F
:1016D000EA22E552E750EF6EFD0EDBCFE9FFFE0E8A
:1016E000DBCFEAFFEF50E840E840E8401F0BE66E32
:1016F000DECFE9FFDDCFEAFF030EE926000EEA2286
:10170000E552E750EF6EFD0EDB2AFE0E01E3DB2A09
:10171000FD0EDBCFE9FFFE0EDBCFEAFFEF50030B40
:10172000286EDECFE9FFDDCFEAFF020EE926000ECC
:10173000EA222850EF12FD0EDBCFE9FFFE0EDBCFD1
:10174000EAFFEF50E00BE840E840E8401F0B286E4E
:10175000DECFE9FFDDCFEAFF020EE926000EEA2226
:101760002850EF12FD0EDB2AFE0E01E3DB2AFD0EF0
:10177000DBCFE9FFFE0EDBCFEAFFEF50E66EDECFF8
:10178000E9FFDDCFEAFFEE52E552E750EF6EFD0EC6
:10179000DB2AFE0E01E3DB2AFD0EDBCFE9FFFE0EA6
:1017A000DBCFEAFFEF50E66EDECFE9FFDDCFEAFFE9
:1017B000E552E750EF6E020EE15C02E2E16AE552AB
:0A17C000E16EE552E7CFD9FF1200F9
:0617CA00159E05D0159EDE
:1017D0001DAE02D01D6C158E1DC017F0166A276A4B
:1017E000266A860E186E196A5CEF0EF0159E08D0F8
:1017F000159E1DAE05D01C6C1D1EE86A1D22158E9F
:101800001DC017F01CC016F0276A266A8E0E186ECF
:10181000196A5CEF0EF0159E0CD0159E1DAE09D016
:101820001A6C1B1E1C1E1D1EE86A1B221C221D2278
:10183000158E1DC017F01CC016F01BC027F01AC073
:1018400026F09E0E186E196A5CEF0EF0237E156A64
:1018500098EC0EF0B0EC0EF015B640EF0EF015A2BD
:101860000AD015AA03D015BE40EF0EF015A44CEF18
:101870000EF049EF0EF015AA05D015AC4CEF0EF0A6
:1018800049EF0EF015A00AD015A808D015BE04D057
:1018900015A402D055EF0EF059EF0EF0266A196A22
:1018A00023501E5C256E10E31BC027F01CC016F0F1
:1018B0001DC017F01EC024F020C01BF021C01CF07A
:1018C00022C01DF0153A09D020C027F021C016F023
:1018D00022C017F023C024F0256C159E15BC158E70
:1018E00024C018F015B088EF0EF01A0E256088EFAE
:1018F0000EF0186A1E6A15A408D01B6C1C1E1D1E53
:101900001E1EE86A1C221D221E2215AC08D0276C60
:10191000161E171E181EE86A1622172218221A6AA7
:10192000255207E01E341D321C321B321A32252E7E
:10193000F9D71B5027261C5016221D5017221E5067
:1019400018221AC026F0159E18AE0BD0266C271E42
:10195000161E171E181EE86A2722162217221822A2
:10196000158E18A006D0D8801732163227322632AC
:10197000242A24C018F05CEF0EF0156A98EC0EF0E3
:10198000B0EC0EF015B640EF0EF015A205D015BA6A
:1019900040EF0EF047EF0EF015BA53EF0EF015A022
:1019A00005D015B840EF0EF053EF0EF015B847EF25
:1019B0000EF0196A7F0E1E24186EE86A1922235051
:1019C000185EE86A195A1A0E246E1E6A266A276A79
:1019D000166A176A20501B5E21501C5A22501D5A4D
:1019E000000E1E5A09E720501B2621501C222250AF
:1019F0001D22000E1E2201D0268AD8901B361C36CE
:101A00001D361E36D8902636273616361736242E23
:101A1000E1D71D501C101B10D8A4268A5CEF0EF0D5
:101A2000156A98EC0EF0B0EC0EF015B640EF0EF023
:101A300015A205D015B840EF0EF047EF0EF015AA2D
:101A400005D015B040EF0EF047EF0EF015B002D004
:101A500015A802D053EF0EF0196A23501E24186EF9
:101A6000E86A19227E0E185EE86A195A266A276A01
:101A7000166A176A22501D02F4CF17F0F3CF16F042
:101A800021501D02F3502726F4501622000E172273
:101A900022501C02F3502726F4501622000E172263
:101AA00020501D02F3502626F4502722000E162245
:101AB000172221501C02F3502626F4502722000E34
:101AC0001622172222501B02F3502626F4502722FA
:101AD000000E1622172220501C02F4502626000E5B
:101AE00027221622172221501B02F4502626000E10
:101AF0002722162217225CEF0EF01DC027F01CC013
:101B000026F01C502102F4CF1BF0F3CF1AF01D5029
:101B10002202F4CF1DF0F3CF1CF02102F3501B265C
:101B2000F4501C22E86A1D2226502202F3501B2684
:101B3000F4501C22E86A1D2222AEA3EF0DF02650BD
:101B40001C5E27501D5A27AE000C21501C5E2250EF
:101B50001D5A000C156A98EC0EF015B6B4EF0DF096
:101B600015A20ED015B405D07F0E1D6EFF0E1C6E93
:101B70001FD0800E1D6E1C6A1BD01D6A1C6A18D0F7
:101B800015B0FBD78F0E1E60EDD77E0E1E64F5D705
:101B90008E0E1E5C05E0D8901D321C321E2AF8D72E
:101BA00015A406D01C6C1D1EE86A1D221DAEE5D7CB
:101BB0001200EBEC0DF015B6000C15B0000C15B4CE
:101BC000000C010CEBEC0DF015B6000C15B0000C80
:101BD00015A4000C010C156A98EC0EF0B0EC0EF098
:101BE00015B6120015AE08D015A004D015A802D065
:101BF000158012001590120023501E5C0BE122503C
:101C00001D5C08E121501C5C05E120501B5C02E1D9
:101C100015801200D8A002D0158E10D01E5023C0FF
:101C20001EF0236E1D5022C01DF0226E1C5021C0DC
:101C30001CF0216E1B5020C01BF0206E23501E5C38
:101C400010E0FF0F09E0159015B403D015AE158410
:101C5000120015AE15941200232AD8902232213298
:101C6000203220501B5E21501C5A22501D5A1DBE8E
:101C7000EAD7D8901B361C361D361E2EF8D7C8D78B
:101C80007F0E1E6EFF0E1D6E1C6E1B6E12007F0EF1
:101C900015BEFF0E1E6E02D07F0E1E6E800E1D6ED4
:101CA0001C6A1B6AF3D715AE04D0800E1E6E1D6A27
:101CB000F7D71E6A1D6AF4D7175016102710261082
:101CC000F8E019BEF0D717BE0CD018501910EBE091
:101CD000D89026362736163617361806D8A0190695
:101CE000F2D71950D4E11828D2E026AE11D07F0ED9
:101CF000261402E127A00CD0272AE86A1622172210
:101D000007E3D880173216322732182A1828BFE086
:101D10001850C9E027C01BF016C01CF017341D6E08
:101D200018301E6E1D321E9E15BE1E8E46EF0EF022
:101D30001D361E3602E31584157E06E115801E6AE7
:101D40001D6A1C6A1B6A12001E2803E0D8801D321F
:101D50001200D8901D3202E1158212001586120081
:101D60002236233602E3158C157E06E11588236A98
:101D7000226A216A206A1200232803E0D8802232D6
:0C1D80001200D8902232EAE1158A12000D
:041D8C000E010A6BCF
:101D90000B6B1200D9CFE6FFE1CFD9FFE652DF6A25
:101DA000DFCF28F0060EE76E2818E8AE02D0E73441
:101DB00002D0E750285C29E2DFCF28F0296A28BE4C
:101DC0002968D89028362936FB0EDB502824E96E86
:101DD000FC0EDB502920EA6EEECFE6FFEFCFE6FFE8
:101DE000DFCF2AF02B6A2ABE2B68FD0EDB502A2497
:101DF000E96EFE0EDB502B20EA6EEF50E66E0AD83D
:101E0000E552E552E552DF2ACBD7E552E552E7CF5E
:101E1000D9FF1200D9CFE6FFE1CFD9FFE652050E78
:101E2000DF6EDF5000D0E552E552E7CFD9FF120058
:101E3000D9CFE6FFE1CFD9FFE552E7CFD9FF1200B6
:101E40000E0EF66E000EF76E000EF86E0E01090013
:101E5000F550056F0900F550066F03E1056701D0E5
:101E60003DD00900F550006F0900F550016F0900E1
:101E7000F550026F09000900F550E96E0900F550B0
:101E8000EA6E090009000900F550036F0900F550DA
:101E9000046F09000900F6CF07FEF7CF08FEF8CF60
:101EA00009FE00CEF6FF01CEF7FF02CEF8FF0E01CD
:101EB000035302E1045307E00900F550EE6E0307F7
:101EC000F8E20407F9D707CEF6FF08CEF7FF09CEF0
:0E1ED000F8FF0E010507000E065BBFD71200DB
:021EDE00D9CF5A
:101EE000E6FFDACFE6FFE1CFD9FFE2CFDAFFE65235
:101EF000E652FC0EDBCF28F0FD0EDBCF29F0060EFC
:101F0000D89028362936E804FBE128C0DEFF29C036
:101F1000DDFF010EDBCF4BFFDF50E840E8403F0B19
:101F2000300B286ECF0E0F014A1528104A6FE5526C
:0E1F3000E552E552E5CFDAFFE7CFD9FF120008
:021F3E00D9CFF9
:101F4000E6FFDACFE6FFE1CFD9FFE2CFDAFFE652D4
:101F5000E652FC0EDBCF28F0FD0EDBCF29F0060E9B
:101F6000D89028362936E804FBE128C0DEFF29C0D6
:101F7000DDFF010EDBCF4EFFDF50E840E8403F0BB6
:101F8000300B286ECF0E0F014D1528104D6FE55206
:0E1F9000E552E552E5CFDAFFE7CFD9FF1200A8
:021F9E00D9CF99
:101FA000E6FFDACFE6FFE1CFD9FFE2CFDAFFC26A80
:101FB000C16AC06AFC0EDB507C0BC26EFB0EDB50AC
:101FC000C16EFD0EDB50040DF350380B296EFD0E73
:101FD000DB380F0B070B286EFD0EDB50800B281033
:101FE0002910C06EFC0EDBAE03D09E9C9D8CF28C43
:0E1FF000C280E552E5CFDAFFE7CFD9FF12003D
:021FFE00D9CF39
:10200000E6FFDACFE6FFE1CFD9FFE2CFDAFF0F013B
:102010000C0E4D6F9998FC0EDB50100BE840E84019
:102020003F0B9912949C99A406D08894FD0EDB5026
:10203000A96E888405D0CA94FD0EDB50CB6ECA848D
:0C204000E552E5CFDAFFE7CFD9FF120030
:04204C00D9CFE6FF03
:10205000DACFE6FFE1CFD9FFE2CFDAFF0F010C0EB6
:102060004A6F9998FC0EDB50100BE8407F0B9912D9
:10207000949E99A606D08894FD0EDB50A96E8884A4
:1020800005D0CA94FD0EDB50CB6ECA84E552E5CF75
:08209000DAFFE7CFD9FF1200CF
:08209800D9CFE6FFDACFE6FF25
:1020A000E1CFD9FFE2CFDAFFFD0EDB507F0BD56E1B
:1020B000D76AD66AF294FD0EDBAE02D0F28A01D066
:1020C000F29AD58EE552E5CFDAFFE7CFD9FF1200BD
:1020D000D9CFE6FFDACFE6FFE1CFD9FFE2CFDAFFD3
:1020E000BAAC04D0BA900E010EB3BA80FD0EDB502C
:0E20F000796EE552E5CFDAFFE7CFD9FF120097
:0220FE00D9CF38
:10210000E6FFDACFE6FFE1CFD9FFE2CFDAFFACACF2
:1021100004D0AC900E010FB3AC80FD0EDB50AD6E61
:0C212000E552E5CFDAFFE7CFD9FF12004F
:04212C00410EF36EFF
:1021300000EE00F00E0E01D81200EA6002D0EE6A46
:0C214000FCD7F350E9601200EE6AFCD7F7
:04214C001DEE00F094
:102150002DEE00F0F86A159C20EC0FF003EC00F077
:082160001AEC01F0FBD712009C
:08216800C4502B6E2A6AC3501B
:0A2170002A10F36E2BC0F4FF1200DA
:06217A00C250020B01E05F
:04218000010E12003A
:04218400C282120001
:08218800080001010000000045
:102190000000000000800000007900000004000042
:1021A000000000000000000000000000000000002F
:1021B000000000000080400000A0410000803F00BF
:1021C0000000408FC2F53D295C8F3D8FC2753C00F9
:0E21D000000000000000000000000000010000
:020000040030CA
:0100000015EA
:0100010012EC
:010003007E7E
:010005008971
:00000001FF
