:020000040000FA
:060000006CEF0FF012008E
:020006001200E6
:060008000EEF00F01200F3
:02000E000100EF
:0C0010003C1F0000000E0000400000003B
:04001C00D8CFE4FF56
:10002000E0CFE4FFE46EDACFE4FFE2CFDAFFE6529E
:10003000F2A421D0F2940E01032B000E0423052B11
:100040000623072B3D0E04AF02D0D89003D0035DEA
:10005000000E045904E3036B046B010E016FD8908A
:10006000065104E6620E055D020E065904E3056BB7
:10007000066B010E026FE552E5CFDAFFE550E5CFE2
:10008000E0FFE5CFD8FF10000E012B6B2C6B060EA6
:100090002CAF02D0D89003D02B5D000E2C5914E267
:1000A000000EE66EE66A240E2B25E96E0E0E2C215C
:1000B000EA6EEF50E66E96DBE552E552E5520E0130
:1000C0002B2B000E2C23E3D715EC05F00E012B6B28
:1000D0002C6B070E2CAF02D0D89003D02B5D000EF6
:1000E0002C5923E22D0E2B25E96E0E0E2C21EA6EE3
:1000F000EF50E66E50EC05F0E552F3CF10F0F4CF80
:1001000011F02BCEE9FF2CCEEAFFD890E936EA3683
:100110008C0EE926000EEA2210C0EEFF11C0EDFFA2
:100120000E012B2B000E2C23D4D76B0EE66E000E87
:10013000E66E6A0EE66E000EE66E620EE66E000E6B
:10014000E66E600EE66E000EE66E45EC0AF0106E8E
:10015000080EE15E1050000901E1EFD04B0E0001E6
:10016000601901E1615101E17FD0740E601901E174
:10017000615101E0E2D0E66A040EE66E340EE66EEE
:100180000E0EE66EE668E66AE66AE66AF0EC08F0ED
:10019000106E080EE15E1050000901E1ECD70E016F
:1001A0002B6B2C6B040E2CAF02D0D89003D02B5DA0
:1001B000000E2C5957E22BCEE9FF2CCEEAFFD89047
:1001C000E936EA36620EE926000EEA22EF50E66EC4
:1001D0002BCEE9FF2CCEEAFFD890E936EA36740E32
:1001E000E926000EEA22E552E750EE6EED6A2BCECC
:1001F000E9FF2CCEEAFFD890E936EA36740EE926FC
:10020000000EEA22EECF12F0EFCF13F012C013F07F
:10021000126A2BCEE9FF2CCEEAFFD890E936EA36F7
:10022000010EE926000EEA22620EE926000EEA22FD
:10023000EF5000011210106E13C011F02BCEE9FF29
:100240002CCEEAFFD890E936EA36740EE926000E85
:10025000EA2210C0EEFF11C0EDFF0E012B2B000EA5
:100260002C23A0D7076B69D00E012B6B2C6B020ED1
:100270002CAF02D0D89003D02B5D000E2C595BE23E
:100280002BCEE9FF2CCEEAFFD890E936EA36620E93
:10029000E926000EEA22EF50E66E040EEA6A2B25EC
:1002A000E96E2C51EA22D890E936EA36740EE92636
:1002B000000EEA22E552E750EE6EED6A2BCEE9FF22
:1002C0002CCEEAFFD890E936EA36740EE926000E05
:1002D000EA22EECF12F0EFCF13F012C013F0126A41
:1002E0002BCEE9FF2CCEEAFFD890E936EA36010E94
:1002F000E926000EEA22620EE926000EEA22EF50FD
:1003000000011210106E13C011F0040E0E01EA6A03
:100310002B25E96E2C51EA22D890E936EA36740E84
:10032000E926000EEA2210C0EEFF11C0EDFF2B2BD4
:10033000000E2C239CD7076B00D00E01025102E067
:10034000026B8270015101E12BD2016BE66A040E4F
:10035000E66E340EE66E0E0EE66EE668E66AE66A55
:10036000E66AF0EC08F0106E080EE15E105000092D
:1003700001E1ECD70E012151D88007550FE22B6B1C
:100380002C6B060E2CAF02D0D89003D02B5D000E44
:100390002C5904E22B2B000E2C23F3D72B6B2C6B48
:1003A000060E2CAF02D0D89003D02B5D000E2C5936
:1003B00020E22BCEE9FF2CCEEAFFD890E936EA36D0
:1003C000740EE926000EEA22EECFE6FFEFCFE6FF3D
:1003D000240E2B25E96E0E0E2C21EA6EEF50E66EF0
:1003E00001DAE552E552E5520E012B2B000E2C23CB
:1003F000D7D72B6B2C6B060E2CAF02D0D89003D026
:100400002B5D000E2C5922E2240E2B25E96E0E0ED8
:100410002C21EA6EEF50E66E58DAE552F3CF10F079
:10042000F4CF11F02BCEE9FF2CCEEAFFD890E936BD
:10043000EA36800EE926000EEA2210C0EEFF11C057
:10044000EDFF0E012B2B000E2C23D5D72B6B2C6B25
:10045000040E2CAF02D0D89003D02B5D000E2C5987
:1004600047E22BCEE9FF2CCEEAFFD890E936EA36F8
:10047000800EE926000EEA22EECF10F0EFCF11F049
:1004800011C010F0116A2BCEE9FF2CCEEAFFD890F4
:10049000E936EA366C0EE926000EEA2210C0EFFFBC
:1004A0002BCEE9FF2CCEEAFFD890E936EA36800E53
:1004B000E926000EEA22EECF10F0EFCF11F0FF0E8A
:1004C0001016000E11162BCEE9FF2CCEEAFFD890A5
:1004D000E936EA36010EE926000EEA226C0EE9261C
:1004E000000EEA2210C0EFFF2B2B000E2C23B0D7FA
:1004F000E66A080EE66E6C0EE66E000EE66E0DCE37
:10050000E6FF0ECEE6FF0FCEE6FF10CEE6FFF0ECE4
:1005100008F0106E080EE15E1050000901E1E8D706
:100520000E012B6B2C6B020E2CAF02D0D89003D097
:100530002B5D000E2C594BE2040EEA6A2B25E96E66
:100540002C51EA22D890E936EA36800EE926000ED0
:10055000EA22EECF10F0EFCF11F011C010F0116AC7
:100560002BCEE9FF2CCEEAFFD890E936EA366C0EA6
:10057000E926000EEA2210C0EFFF040EEA6A2B25DE
:10058000E96E2C51EA22D890E936EA36800EE92647
:10059000000EEA22EECF10F0EFCF11F0FF0E101692
:1005A000000E11162BCEE9FF2CCEEAFFD890E936CB
:1005B000EA36010EE926000EEA226C0EE926000E4C
:1005C000EA2210C0EFFF2B2B000E2C23ACD7E66ADB
:1005D000040EE66E6C0EE66E000EE66E11CEE6FFC1
:1005E00012CEE6FF13CEE6FF14CEE6FFF0EC08F0E5
:1005F000106E080EE15E1050000901E1E8D79DEC95
:1006000008F0F3CF38FEF4CF39FE39CE10F0116A7E
:1006100010C06CF00E01385100016D6FE66A020ED9
:10062000E66E6C0EE66E000EE66E1DCEE6FF1ECE8A
:10063000E6FF1FCEE6FF20CEE6FFF0EC08F0106EDE
:10064000080EE15E1050000901E1E8D7400EE66EA9
:10065000D6DAE55207C03AFE08C03BFE09C03CFEB0
:10066000500EE66ECCDAE55207C03DFE08C03EFEF5
:1006700009C03FFE3DCEE6FF3ECEE6FF3FCEE6FFA1
:100680003ACEE6FF3BCEE6FF3CCEE6FF42EC07F07B
:10069000106E060EE15E10509EC010F09FC011F06B
:1006A000A0C012F0A1C013F0180ED890133212326D
:1006B00011321032E806F9E1105000016C6FA0C051
:1006C00010F0A1C011F00001126A136A105000016D
:1006D0006D6F9FC010F0A0C011F0A1C012F000011A
:1006E000136A105000016E6F9E516F6FE66A040E20
:1006F000E66E6C0EE66E000EE66E19CEE6FF1ACEC2
:10070000E6FF1BCEE6FF1CCEE6FFF0EC08F0106E15
:10071000080EE15E1050000901E1E8D7AAC010F010
:10072000ABC011F0ACC012F0ADC013F0180ED890F1
:100730001332123211321032E806F9E11050000182
:100740006C6FACC010F0ADC011F00001126A136AFA
:10075000105000016D6FABC010F0ACC011F0ADC017
:1007600012F00001136A105000016E6FAA516F6FF2
:10077000E66A040EE66E6C0EE66E000EE66E15CEB0
:10078000E6FF16CEE6FF17CEE6FF18CEE6FFF0EC4A
:1007900008F0106E080EE15E1050000901E1E8D784
:1007A000C4D41200D9CFE6FFE1CFD9FFFD0EDB04A0
:1007B00009E1FE0EDBCFE6FF45EC0FF0E5529EA807
:1007C000FED70CD0FD0EDB50020808E1FE0EDBCF99
:1007D000E6FF2EEC0FF0E552A4A8FED7E552E7CFD6
:1007E000D9FF1200D9CFE6FFE1CFD9FF020EE126F3
:1007F000FE0EDB50E824DF6EFC0EDBCF10F0FD0EAA
:10080000DBCF11F011C010F0116A010E10C0DBFF38
:1008100090EC0FF0C580C5B0FED7C5B0FED7A1B62D
:100820003DD0DFCFE6FFFEEC0DF0E552000900E021
:1008300090EC0FF0C5BC06D0E66AFEEC0DF0E55278
:10084000000900E090EC0FF0C5BC08D0010EDBCF32
:10085000E6FFFEEC0DF0E552000900E0FF0EE76E4A
:10086000FC0EDBCF10F0FD0EDBCF11F0E7501016C1
:10087000116A010E10C0DBFF90EC0FF0C5BC09D06F
:10088000010EDBCFE6FFFEEC0DF0E552000900E0C3
:1008900005D090EC0FF0C584C5B4FED790EC0FF0F6
:1008A000C584C5B4FED7C5B4FED7A1A600D0070E37
:1008B000106E020EE15C03E200D0E16AE552E16EE7
:1008C0001050E552E7CFD9FF1200D9CFE6FFE1CFB4
:1008D000D9FF040EE126FE0EDB50E824DF6E90EC1B
:1008E0000FF0C580C5B0FED7C5B0FED7A1A605D014
:1008F000010EF36EF46A8FD016D0DFCFE6FFFEEC68
:100900000DF0E552000900E090EC0FF0C5BC0BD0F3
:10091000020EE66EFEEC0DF0E552000904E0020E58
:10092000F36EF46A78D090EC0FF0C584C5B4FED7AE
:10093000C5B4FED7A1A604D0060EF36EF46A6BD040
:10094000FE0EDB50E8240109DF6E90EC0FF0C5804D
:10095000C5B0FED7C5B0FED7A1A605D0010EF36E77
:10096000F46A59D040D0DFCFE6FFFEEC0DF0E5523F
:10097000000900E090EC0FF0C5BC35D07AEC0FF028
:10098000E76E030EE7CFDBFFDB50E66ED950010FB9
:10099000E96EDACFEAFFE552E750EE6EED6AC59AEE
:1009A000C588C5B8FED77AEC0FF0E76E030EE7CF27
:1009B000DBFFC58AC588C5B8FED7010EDBCF12F0B4
:1009C000020EDBCF13F012C013F0126A030EDB50DD
:1009D00000011210106E13C011F0010E10C0DBFFE9
:1009E000020E11C0DBFF90EC0FF0C584C5B4FED73A
:1009F000C5B4FED7A1A604D0060EF36EF46A0BD0E0
:100A0000010EDBCF10F0020EDBCF11F010C0F3FFB0
:100A100011C0F4FF00D0040EE15C02E2E16AE5528D
:100A2000E16EE552E7CFD9FF1200D9CFE6FFE1CF63
:100A3000D9FF020EE1266C0EDF6EDE521E0EDD6E59
:100A400090EC0FF0C580C5B0FED7C5B0FED7A1A60B
:100A500002D01CD014D0DFCFE6FFFEEC0DF0E55243
:100A6000000900E090EC0FF0C5BC09D0010EDBCF0F
:100A7000E6FFFEEC0DF0E552000901E007D090EC36
:100A80000FF0C5BC03D0C584C5B4FED7020EE15C2F
:100A900002E2E16AE552E16EE552E7CFD9FF1200CA
:100AA000D9CFE6FFE1CFD9FF040EE1266C0EDF6E51
:100AB000FE0EDB50E76E010EE7CFDBFF90EC0FF090
:100AC000C580C5B0FED7C5B0FED7A1A605D0010E22
:100AD000F36EF46A8AD017D0DFCFE6FFFEEC0DF09C
:100AE000E552000900E090EC0FF0C5BC0CD0010EFF
:100AF000DBCFE6FFFEEC0DF0E552000904E0020E4C
:100B0000F36EF46A72D090EC0FF0C5BC03D0C584CC
:100B1000C5B4FED790EC0FF0C580C5B0FED7C5B008
:100B2000FED7A1A605D0010EF36EF46A5ED05DD0AB
:100B3000010EDF10E66EFEEC0DF0E552000900E05C
:100B400090EC0FF0C5BC4DD07AEC0FF0E66ED950AA
:100B5000020FE96EDACFEAFFE552E750EE6EED6A7A
:100B6000C59AC588C5B8FED7020EDBCF12F0030EBA
:100B7000DBCF13F012C013F0126A12C0E6FF13C0ED
:100B8000E6FF7AEC0FF0E552E7CF13F0E552E7CF3E
:100B900012F000011210106E13C011F0020E10C0FE
:100BA000DBFF030E11C0DBFFC58AC588C5B8FED7C1
:100BB00090EC0FF0C584C5B4FED7C5B4FED7A1A68E
:100BC00004D0060EF36EF46A10D0020EDBCF10F0E4
:100BD000030EDBCF11F010C0F3FF11C0F4FF05D0FE
:100BE00004D0070EF36EF46A00D0040EE15C02E25A
:100BF000E16AE552E16EE552E7CFD9FF1200D9CFA5
:100C0000E6FFE1CFD9FF050EE1266C0EDF6EFE0E8A
:100C1000DB50E76E010EE7CFDBFF90EC0FF0C580F5
:100C2000C5B0FED7C5B0FED7A1A606D0010E076E8F
:100C3000086A096A1DD118D0DFCFE6FFFEEC0DF07F
:100C4000E552000900E090EC0FF0C5BC0DD0010E9C
:100C5000DBCFE6FFFEEC0DF0E552000905E0020EE9
:100C6000076E086A096A04D190EC0FF0C5BC03D086
:100C7000C584C5B4FED790EC0FF0C580C5B0FED7D3
:100C8000C5B0FED7A1A606D0010E076E086A096A94
:100C9000EFD016D0DFCFE6FFFEEC0DF0E5520009F5
:100CA00000E090EC0FF0C5BC0BD0E66AFEEC0DF056
:100CB000E552000905E0020E076E086A096AD8D0FD
:100CC00090EC0FF0C5BC03D0C584C5B4FED790EC42
:100CD0000FF0C580C5B0FED7C5B0FED7A1A606D01F
:100CE000010E076E086A096AC3D0C2D0010EDF1078
:100CF000E66EFEEC0DF0E552000900E090EC0FF01E
:100D0000C5BCB1D07AEC0FF0106E116A126A020EF7
:100D100010C0DBFF030E11C0DBFF040E12C0DBFFAF
:100D2000C59AC588C5B8FED7080E166ED950020FF1
:100D3000E96EDACFEAFF16501F0BEECF13F0EECFBD
:100D400014F0EECF15F006E0D890133614361536B1
:100D5000E806FAE113C0E6FF14C0E6FF15C0E6FF9F
:100D60007AEC0FF0E552E7CF15F0E552E7CF14F03B
:100D7000E552E7CF13F0176E186A196A135017106F
:100D8000106E14501810116E15501910126E020EBC
:100D900010C0DBFF030E11C0DBFF040E12C0DBFF2F
:100DA000C59AC588C5B8FED7080E166ED950020F71
:100DB000E96EDACFEAFF16501F0BEECF13F0EECF3D
:100DC00014F0EECF15F006E0D89013361436153631
:100DD000E806FAE113C0E6FF14C0E6FF15C0E6FF1F
:100DE0007AEC0FF0E552E7CF15F0E552E7CF14F0BB
:100DF000E552E7CF13F0176E186A196A13501710EF
:100E0000106E14501810116E15501910126E020E3B
:100E100010C0DBFF030E11C0DBFF040E12C0DBFFAE
:100E2000C58AC588C5B8FED790EC0FF0C584C5B497
:100E3000FED7C5B4FED7A1A605D0060E076E086A78
:100E4000096A16D0020EDBCF10F0030EDBCF11F0D3
:100E5000040EDBCF12F010C007F011C008F012C072
:100E600009F006D005D0070E076E086A096A00D09F
:100E7000050EE15C02E2E16AE552E16EE552E7CF80
:100E8000D9FF1200D9CFE6FFE1CFD9FF8EC010F015
:100E90008FC011F010C011F0106A126AD950F90F0A
:100EA000E96EFF0EDA20EA6E1050EE5C00019A6FD8
:100EB0001150EE589B6F1250EE589C6F9D6B98C06E
:100EC00010F099C011F0126A136A9AC006F09BC024
:100ED00007F09CC008F09DC009F010C00BF011C0D5
:100EE0000CF012C00DF013C00EF037EC0EF002C083
:100EF0009EF003C09FF004C0A0F005C0A1F00B6AF3
:100F00000C6A800E0D6E0E6A9EC006F09FC007F040
:100F1000A0C008F0A1C009F06FEC0EF006C09EF072
:100F200007C09FF008C0A0F009C0A1F0D00E0001DA
:100F30009E27070E9F23000EA023A12390C010F030
:100F400091C011F0126A100ED89010361136123678
:100F5000E806FAE1136A12BE136890C014F091C05B
:100F600015F0166A176A14C006F015C007F016C00F
:100F700008F017C009F09AC00BF09BC00CF09CC0A1
:100F80000DF09DC00EF037EC0EF002C006F003C06D
:100F900007F004C008F005C009F0800E0B6E0C6A63
:100FA0000D6A0E6A6FEC0EF0105006240001A26F5D
:100FB00011500720A36F12500820A46F135009206E
:100FC000A56F8EC010F08FC011F0126A0F0ED8906E
:100FD000103611361236E806FAE1136A12BE1368AB
:100FE00092C014F093C015F0166A176A14C006F088
:100FF00015C007F016C008F017C009F09AC00BF032
:101000009BC00CF09CC00DF09DC00EF037EC0EF0B4
:1010100002C006F003C007F004C008F005C009F0E4
:101020000B6A010E0C6E0D6A0E6A6FEC0EF010501A
:1010300006240001A66F11500720A76F1250082048
:10104000A86F13500920A96FFC0EDBCF10F0FD0E26
:10105000DBCF11F0FE0EDBCF12F0136A10C006F0EA
:1010600011C007F012C008F013C009F0A6C00BF0C1
:10107000A7C00CF0A8C00DF0A9C00EF037EC0EF020
:1010800002C006F003C007F004C008F005C009F074
:101090000B6A0C6A200E0D6E0E6A6FEC0EF00001EA
:1010A000A251065CAA6FA3510758AB6FA451085810
:1010B000AC6FA5510958AD6F0B6A200E0C6E0D6A0E
:1010C0000E6AAAC006F0ABC007F0ACC008F0ADC015
:1010D00009F06FEC0EF006C0AAF007C0ABF008C034
:1010E000ACF009C0ADF0E552E7CFD9FF1200926A2B
:1010F000080E936E946A0F015D6B5C6BA8EC08F0B0
:10110000D40EE66EF7EC0EF0E552F28EF28CE66A43
:10111000080EE66E13EC0FF0E552E552C68A320E69
:10112000C86E0F0EE66E030EE66EA90EE66EA3EC19
:101130000EF0E552E552E55212009CEC0FF097ECF0
:101140000FF0000901E0FBD787EC0FF000D0120090
:10115000800EE66ECCDAE5520E01436BFB0E446F57
:10116000060E456F200E706E729E728C606A0F01C3
:10117000306B0E01806B906BA06BB06BC06BD06B53
:10118000E00E7D6FE06BE16B0E0EE46FA00EE56F7D
:101190000E0EE86F800EE96F080EEC6FED6BF06FCE
:1011A000600EF16F1F0E466F476B100E716F230EAE
:1011B000726F410E736F746B756B766B776B786BB8
:1011C000796B040E7A6F7B6B7B6BF869E00EF96FBD
:1011D000F997FC6BFD6BFD97E66A89DAE552120020
:1011E000D9CFE6FFE1CFD9FF1A0EE126D950060F7D
:1011F000E96EDACFEAFF200EEE6E0F0EED6ED950DB
:10120000080FE96EDACFEAFF100EEE6E0F0EED6EEC
:10121000D9500A0FE96EDACFEAFF000EEE6E0F0E1C
:10122000ED6ED9500C0FE96EDACFEAFF800EEE6E4C
:101230000E0EED6ED9500E0FE96EDACFEAFF900E6A
:10124000EE6E0E0EED6ED950100FE96EDACFEAFF9A
:10125000A00EEE6E0E0EED6ED950120FE96EDACFC3
:10126000EAFFB00EEE6E0E0EED6ED950140FE96E61
:10127000DACFEAFFC00EEE6E0E0EED6ED950160FED
:10128000E96EDACFEAFFD00EEE6E0E0EED6E0E01B5
:101290007D417F0BE76E190EE7CFDBFFDF6ADF5082
:1012A000080801E2E4D0D950060F106EDACF11F031
:1012B000DF50020D1050F324E96E1150F420EA6E55
:1012C000020EEECFDBFF030EEDCFDBFF020EDBCF16
:1012D00008F0030EDBCF09F0040E08C0DBFF050E9B
:1012E00009C0DBFFDF50020810E2190EDBCFF3FF6D
:1012F000F390F342F3CFDBFFD950190FE96EDACF49
:10130000EAFFEF50010B01E1B0D0020EDBCFE9FFA5
:10131000030EDBCFEAFFEF50080B01E0A6D0FC0E76
:10132000106E020EDBCFE9FF030EDBCFEAFF105099
:10133000EF16F70EDB50030B106E020EDBCFE9FF4A
:10134000030EDBCFEAFF1050EF12F70EDBAC08D034
:10135000F80EDB504009E76E180EE7CFDBFF06D032
:10136000F80EDB50E76E180EE7CFDBFF050EE76ED9
:10137000020EDBCFE9FF030EDBCFEAFFE750E926E1
:10138000000EEA22180EDBCFEFFFF70EDBAA06D025
:10139000010EF36E180EF3CFDBFF02D0180EDB6ADE
:1013A000DBCFE6FFD950FB0FE96EFF0EDA20EA6EC5
:1013B000EECFE6FFEECFE6FFEECFE6FFEFCFE6FFA4
:1013C000010EE76E020EDBCF10F0030EDBCF11F043
:1013D000E7501026000E112210C0E6FF11C0E6FFF4
:1013E0009BD9126E070EE15E1250D950020FE96EC2
:1013F000DACFEAFF060EEE26000EED22010EDB6AC2
:10140000F80EDB50F36E010EDBCFF4FFF350F45C0B
:101410001AE2F90EDBCFE9FFDB2AFA0EDBCFEAFF97
:1014200001E3DB2AEF50E66E020EDBCFE9FFDB2A99
:10143000030EDBCFEAFF01E3DB2AE552E750EF6E54
:10144000010EDB2ADDD7040EDBCFE9FF050EDBCF73
:10145000EAFFEF50040B07E1040EDBCFE9FF050EB6
:10146000DBCFEAFFEF86010E04D0DF2A18D7000E8B
:1014700000D0106E1A0EE15C02E2E16AE552E16E04
:101480001050E552E7CFD9FF1200D9CFE6FFE1CFE8
:10149000D9FF060EE1260001BD6B60AE05D0600EDF
:1014A000DE6E0F0EDD6E4DD00F0130AF05D0300E69
:1014B000DE6E0F0EDD6E45D00E017D51040B08E18E
:1014C0008051800B05E0800EDE6E0E0EDD6E39D091
:1014D0007D51080B08E19051800B05E0900EDE6E07
:1014E0000E0EDD6E2ED07D51100B08E1A051800B49
:1014F00005E0A00EDE6E0E0EDD6E23D07D51200BBA
:1015000008E1B051800B05E0B00EDE6E0E0EDD6E10
:1015100018D07D51400B08E1C051800B05E0C00E92
:10152000DE6E0E0EDD6E0DD07D51800B08E1D051C8
:10153000800B05E0D00EDE6E0E0EDD6E02D0000ECA
:10154000CAD0DECFE9FFDDCFEAFFEF501F0B00016D
:10155000BD6F779271AC09D000D0F70EDBCFE9FFF9
:10156000F80EDBCFEAFFEF86719CD9CFE9FFDACF27
:10157000EAFF020EEECFDBFF030EEDCFDBFFF70E2F
:10158000DBCFE9FFF80EDBCFEAFFEF6ADECFE9FF42
:10159000DDCFEAFF050EE926000EEA22050EEFCFA9
:1015A000DBFFDB500F0BE66EF90EDBCFE9FFFA0E27
:1015B000DBCFEAFFE552E750EF6ED950050FE96E39
:1015C000DACFEAFFEF50400B07E0F70EDBCFE9FF81
:1015D000F80EDBCFEAFFEF8CDECFE9FFDDCFEAFFCD
:1015E000020EE926000EEA22050EEFCFDBFFD950EE
:1015F000050FE96EDACFEAFFEF50080B0DE0F70EAA
:10160000DBCFE9FFF80EDBCFEAFFEF8A010EF36EC6
:10161000050EF3CFDBFF02D0050EDB6ADBCFE6FF62
:10162000FD0EDBCFE6FFFE0EDBCFE6FFDECF10F0D8
:10163000DDCF11F0010E1026000E112210C0E6FFC2
:1016400011C0E6FF49D9126E050EE15E1250060E7A
:10165000DE26000EDD22F90EDBCFE9FFFA0EDBCF2E
:10166000EAFF050EEFCFDBFF040EDB6A050EDB5051
:10167000F36E040EDBCFF4FFF350F45C19E2DFCF1E
:10168000E9FFDF2A010EDBCFEAFF01E3DB2AEF509F
:10169000E66EFB0EDBCFE9FFDB2AFC0EDBCFEAFFB9
:1016A00001E3DB2AE552E750EF6E040EDB2ADED7BA
:1016B00077AE08D0F70EDBCFE9FFF80EDBCFEAFFFD
:1016C000EF88779E020EDBCFE9FF030EDBCFEAFF48
:1016D000EF9E010E00D0106E060EE15C02E2E16AA0
:1016E000E552E16E1050E552E7CFD9FF1200D9CF95
:1016F000E6FFE1CFD9FF1F0E6F16FE0EDB506F1213
:10170000E00E6F14106EFE0EDB50105C01E0F8D797
:10171000E552E7CFD9FF1200D9CFE6FFE1CFD9FFDD
:10172000020EE126D950F90F106EFF0EDA20116E6D
:1017300010C0DEFF11C0DDFFF80EDB503BE1DECF55
:10174000E9FFDDCFEAFFEF50E840E840E8401F0B3B
:10175000E66EFD0EDBCFE9FFFE0EDBCFEAFFE552C2
:10176000E750EF6EDECFE9FFDDCFEAFFEE52EF503C
:10177000200DF3CF10F0FD0EDBCFE9FFFE0EDBCF27
:10178000EAFF1050EF12FD0EDB2AFE0E01E3DB2A0A
:10179000DECFE9FFDDCFEAFFEF50200DF350E66E1C
:1017A000FD0EDBCFE9FFFE0EDBCFEAFFE552E7508F
:1017B000EF6E88D0DECFE9FFDDCFEAFF020EE9262B
:1017C000000EEA22EF50E00BE838E840E66EFD0E2E
:1017D000DBCFE9FFFE0EDBCFEAFFE552E750EF6E0D
:1017E000DECFE9FFDDCFEAFF030EE926000EEA2295
:1017F000EF50080DF3CF10F0FD0EDBCFE9FFFE0E2A
:10180000DBCFEAFF1050EF12FD0EDB2AFE0E01E3E4
:10181000DB2ADECFE9FFDDCFEAFF020EE926000E6C
:10182000EA22EF50080DF350E00BE66EFD0EDBCF21
:10183000E9FFFE0EDBCFEAFFE552E750EF6EFD0E4B
:10184000DBCFE9FFFE0EDBCFEAFFEF86DECFE9FF5D
:10185000DDCFEAFF020EE926000EEA22EF50030B6D
:10186000106EFD0EDBCFE9FFFE0EDBCFEAFF10505E
:10187000EF12FD0EDB2AFE0E01E3DB2ADECFE9FFCD
:10188000DDCFEAFFEE52EF50E66EFD0EDBCFE9FF53
:10189000FE0EDBCFEAFFE552E750EF6EFD0EDB2ACE
:1018A000FE0E01E3DB2ADECFE9FFDDCFEAFFEF50DA
:1018B000E66EFD0EDBCFE9FFFE0EDBCFEAFFE55261
:1018C000E750EF6E020EE15C02E2E16AE552E16E82
:1018D000E552E7CFD9FF1200D9CFE6FFE1CFD9FF1C
:1018E000020EE126FB0EDBCFDEFFDBCFDDFFFA0EC3
:1018F000DB504DE1FD0EDBCFE9FFFE0EDBCFEAFF53
:10190000EF50080DF350E66EDECFE9FFDDCFEAFFC2
:10191000E552E750EF6EFD0EDBCFE9FFFE0EDBCFA9
:10192000EAFFEF50E00BE838E840E66EDECFE9FF73
:10193000DDCFEAFFEE52E552E750EF6EFD0EDB2AF7
:10194000FE0E01E3DB2AFD0EDBCFE9FFFE0EDBCF4F
:10195000EAFFEF50E00BE838E840106EDECFE9FF19
:10196000DDCFEAFF1050EF12DECFE9FFDDCFEAFF57
:10197000020EE926000EEA22EF6ADECFE9FFDDCF94
:10198000EAFF030EE926000EEA22EF6A84D0FD0E7C
:10199000DBCFE9FFFE0EDBCFEAFFEF50200DF35067
:1019A000E66EDECFE9FFDDCFEAFF020EE926000E8C
:1019B000EA22E552E750EF6EFD0EDBCFE9FFFE0EA7
:1019C000DBCFEAFFEF50E840E840E8401F0BE66E4F
:1019D000DECFE9FFDDCFEAFF030EE926000EEA22A3
:1019E000E552E750EF6EFD0EDB2AFE0E01E3DB2A27
:1019F000FD0EDBCFE9FFFE0EDBCFEAFFEF50030B5E
:101A0000106EDECFE9FFDDCFEAFF020EE926000E01
:101A1000EA221050EF12FD0EDBCFE9FFFE0EDBCF06
:101A2000EAFFEF50E00BE840E840E8401F0B106E83
:101A3000DECFE9FFDDCFEAFF020EE926000EEA2243
:101A40001050EF12FD0EDB2AFE0E01E3DB2AFD0E25
:101A5000DBCFE9FFFE0EDBCFEAFFEF50E66EDECF15
:101A6000E9FFDDCFEAFFEE52E552E750EF6EFD0EE3
:101A7000DB2AFE0E01E3DB2AFD0EDBCFE9FFFE0EC3
:101A8000DBCFEAFFEF50E66EDECFE9FFDDCFEAFF06
:101A9000E552E750EF6E020EE15C02E2E16AE552C8
:0A1AA000E16EE552E7CFD9FF120016
:061AAA000001B86BB96BEE
:101AB0001200D9CFE6FFE1CFD9FFE652DF6ADFCFD0
:101AC00010F0060EE76E1018E8AE02D0E73402D030
:101AD000E750105C29E2DFCF10F0116A10BE1168E8
:101AE000D89010361136FB0EDB501024E96EFC0E38
:101AF000DB501120EA6EEECFE6FFEFCFE6FFDFCF3F
:101B000012F0136A12BE1368FD0EDB501224E96E48
:101B1000FE0EDB501320EA6EEF50E66E0AD8E55257
:101B2000E552E552DF2ACBD7E552E552E7CFD9FFA0
:101B30001200D9CFE6FFE1CFD9FFE652050EDF6EE6
:101B4000DF5000D0E552E552E7CFD9FF1200D9CFE0
:0E1B5000E6FFE1CFD9FFE552E7CFD9FF120043
:021B5E000E0E69
:101B6000F66E000EF76E000EF86E00010900F550DB
:101B7000B36F0900F550B46F03E1B36701D03DD0F6
:101B80000900F550AE6F0900F550AF6F0900F55030
:101B9000B06F09000900F550E96E0900F550EA6ED2
:101BA000090009000900F550B16F0900F550B26F46
:101BB00009000900F6CFB5F0F7CFB6F0F8CFB7F0CF
:101BC000AEC0F6FFAFC0F7FFB0C0F8FF0001B153E1
:101BD00002E1B25307E00900F550EE6EB107F8E2FA
:101BE000B207F9D7B5C0F6FFB6C0F7FFB7C0F8FF28
:0C1BF0000001B307000EB45BBFD7120069
:041BFC00D9CFE6FF58
:101C0000DACFE6FFE1CFD9FFE2CFDAFFFD0EDB50FE
:101C1000C96EC6AE02D0FF0E24D00F0EC61408083F
:101C20000FE00F0EC6140B080BE0C6889EA6FED769
:101C3000C750040B03E1C750010B10E0000E11D098
:101C40000F0EC614080804E00F0EC6140B0809E1B5
:101C5000C7B0FED790EC0FF0C5AC02D0FE0E01D09D
:0E1C6000000EE552E5CFDAFFE7CFD9FF120004
:021C6E0006501E
:101C70000B02F3CF02F0F4CF03F00C02F350032673
:101C8000000EF420046E06500D02F3500426000EE0
:101C9000F420056E06500E02F350052607500B0285
:101CA000F3500326F4500422000E052207500C02C4
:101CB000F3500426F450052207500D02F350052678
:101CC00008500B02F3500426F450052208500C0271
:0E1CD000F350052609500B02F35005261200B2
:021CDE00006A9A
:101CE000E86A0EAE7CEF0EF00B6C0C1E0D1E0E1E85
:101CF0000C220D220E22001E09AE87EF0EF0066C9C
:101D0000071E081E091E072208220922001ED3EC06
:101D10000EF009BE9EEF0EF000AE000C066C071E22
:101D2000081E091EE86A072208220922026C031E07
:101D3000041E051E032204220522000C00BE8EEFA5
:061D40000EF00188FF0C0B
:0A1D4600D9CFE6FFDACFE6FFE1CFC8
:101D5000D9FFE2CFDAFFC26AC16AC06AFC0EDB506B
:101D60007C0BC26EFB0EDB50C16EFD0EDB50040D12
:101D7000F350380B116EFD0EDB380F0B070B106E96
:101D8000FD0EDB50800B10101110C06EFC0EDBAE90
:101D900003D09E9C9D8CF28CC280E552E5CFDAFF89
:061DA000E7CFD9FF12009D
:0A1DA600056A046A036A026A200E4F
:101DB000E76ED890063607360836093602360336FF
:101DC000043605360B50025C0C5003580D50045875
:101DD0000E50055809E30B50025E0C50035A0D508B
:0E1DE000045A0E50055A062AE72EE4D71200C8
:021DEE00D9CF4B
:101DF000E6FFDACFE6FFE1CFD9FFE2CFDAFFFD0E53
:101E0000DB507F0BD56ED76AD66AF294FD0EDBAE3F
:101E100002D0F28A01D0F29AD58EE552E5CFDAFFF0
:061E2000E7CFD9FF12001C
:0A1E2600D9CFE6FFDACFE6FFE1CFE7
:101E3000D9FFE2CFDAFF3F0EC716C66AC56AFD0EAC
:101E4000DB50C612FC0EDB50C71294869488C68AFB
:0C1E5000E552E5CFDAFFE7CFD9FF120022
:041E5C00D9CFE6FFF5
:101E6000DACFE6FFE1CFD9FFE2CFDAFFBAAC04D098
:101E7000BA900E0140B3BA80FD0EDB50796EE55288
:0A1E8000E5CFDAFFE7CFD9FF12002B
:061E8A00D9CFE6FFDACF1C
:101E9000E6FFE1CFD9FFE2CFDAFFACAC04D0AC90E3
:101EA0000001BCB3AC80FD0EDB50AD6EE552E5CF5A
:081EB000DAFFE7CFD9FF1200B1
:081EB800410EF36E00EE00F094
:101EC0000E0E01D81200EA6002D0EE6AFCD7F35081
:081ED000E9601200EE6AFCD784
:081ED8001DEE00F02DEE00F0FC
:101EE000F86A019CAFEC0DF003EC00F044EC00F05C
:041EF000FBD712000A
:0C1EF4000F0EC614080804E00F0EC61400
:0E1F00000B0801E1C586C7A0FED7C95012002C
:021F0E00C450BD
:101F1000136E126AC3501210F36E13C0F4FF120056
:0E1F20001F0EC514FDE1C750040BFAE11200BC
:021F2E00C2509F
:081F3000020B01E0010E12009A
:041F3800C28212004F
:041F3C000800010098
:101F4000000000000010001100120000001300004B
:101F5000001400000015000000160000001E000024
:101F6000505152535455000000A0A2A4A6A8AAACF8
:0C1F7000DEADBEAF00000000000000006D
:020000040030CA
:0100000015EA
:0100010012EC
:010005008971
:00000001FF
