:020000040000FA
:060000006AEF13F012008C
:020006001200E6
:060008000EEF00F01200F3
:02000E000100EF
:0C001000382700006000000070000000B5
:04001C00D8CFE4FF56
:10002000E0CFE4FFE46EDACFE4FFE2CFDAFFE6529E
:10003000F2A424D0F2940001642B000E6523662BF9
:100040006723682B69233D0E65AF02D0D89003D09B
:10005000645D000E655904E3646B656B010E616FAE
:10006000D890675104E6620E665D020E675904E39C
:10007000666B676B010E626F010E636FE552E5CF31
:10008000DAFFE550E5CFE0FFE5CFD8FF100050ECF8
:100090000BF00001B26BB36B060EB3AF02D0D89079
:1000A00003D0B25D000EB35915E2000EE66EE66AAB
:1000B000AB0EB225E96E000EB321EA6EEF50E66E8C
:1000C000C0EC06F0E552E552E5520001B22B000EFD
:1000D000B323E2D7E3EC07F0640EE66E4AEC13F0CC
:1000E000E5520001B26BB36B070EB3AF02D0D890EC
:1000F00003D0B25D000EB35961E2B40EB225E96ED1
:10010000000EB321EA6EEF50E66E1EEC08F0E552E9
:10011000F3CF10F0F4CF11F0B2C0E9FFB3C0EAFFA3
:10012000D890E936EA36210EE926010EEA2210C0FF
:10013000EEFF11C0EDFFB2C0E9FFB3C0EAFFD890F7
:10014000E936EA36210EE926010EEA22EECF10F05A
:10015000EFCF11F011C010F0116A105001010C6FB7
:10016000B2C0E9FFB3C0EAFFD890E936EA36210E03
:10017000E926010EEA22EECF10F0EFCF11F0105079
:100180000D6FE66A020EE66E0C0EE66E010EE66E6E
:100190007BC0E6FF7CC0E6FF7DC0E6FF7EC0E6FFD9
:1001A000D2EC0CF0106E080EE15E1050000901E177
:1001B000E8D70001B22B000EB32396D7E66A0A0EE9
:1001C000E66E050EE66E400EE66E31EC0CF0E55282
:1001D000E552E552E552FF0E010121170F0E2217DD
:1001E0000001B26BB36B080EB3AF02D0D89003D04E
:1001F000B25D000EB35901E39CD001012F6B306B4F
:100200000001CD6BCE6BCF6BC96BCA6B100ECAAF42
:1002100002D0D89003D0C95D000ECA5965E2C9C0AA
:1002200010F0CAC011F0020E0D6E0E6A10C008F078
:1002300011C009F037EC11F004C010F005C011F046
:10024000010E101801E111501CE1C9C0E9FFCAC03C
:10025000EAFFD890EA32E932D890E936EA36210E40
:10026000E926010EEA22EECF10F0EFCF11F0FF0EDB
:100270001016000E111610500001CD1B1150CE1B90
:100280001AD0C9C0E9FFCAC0EAFFD890EA32E93201
:10029000D890E936EA36210EE926010EEA22EECFA1
:1002A00010F0EFCF11F011C010F0116A10500001E2
:1002B000CD1B1150CE1B080ECF6FCF51000810E29E
:1002C000CE51800B08E0D890CD37CE37000ECD1B35
:1002D000300ECE1B03D0D890CD37CE37CF07EDD719
:1002E000C92B000ECA2392D7CE39CE6B0F0BCD6F20
:1002F0000F0ECD17000ECE17CD1901010C6FE66A57
:10030000010EE66E0C0EE66E010EE66EE00EE66E77
:10031000E66AE66AE66AD2EC0CF0106E080EE15E60
:100320001050000901E1EBD70001B22B000EB323FE
:100330005AD70B0EE66E010EE66E0A0EE66E010E41
:10034000E66E020EE66E010EE66E000EE66E010E21
:10035000E66E27EC0EF0106E080EE15E10500009FC
:1003600001E1D2D2750E0101001901E1015101E153
:1003700054D1740E001901E1015101E0C5D2E66AC1
:10038000040EE66EBB0EE66E000EE66EE668E66AEA
:10039000E66AE66AD2EC0CF0106E080EE15E1050D0
:1003A000000901E1ECD70001B26BB36B040EB3AFEF
:1003B00002D0D89003D0B25D000EB35901E3FFD054
:1003C000B2C0E9FFB3C0EAFFD890E936EA36020EC0
:1003D000E926010EEA22EF50E66EB2C0E9FFB3C093
:1003E000EAFFD890E936EA36850EE926000EEA22C1
:1003F000E552E750EE6EED6AB2C0E9FFB3C0EAFF26
:10040000D890E936EA36850EE926000EEA22EECFCC
:1004100012F0EFCF13F012C013F0126AB2C0E9FF6E
:10042000B3C0EAFFD890E936EA36010EE926000E9D
:10043000EA22020EE926010EEA22EF500001121014
:10044000106E13C011F0B2C0E9FFB3C0EAFFD8903C
:10045000E936EA36850EE926000EEA2210C0EEFFE4
:1004600011C0EDFFB2C0E9FFB3C0EAFFD890E93692
:10047000EA36910EE926000EEA22EECF10F0EFCF19
:1004800011F0000E1016800E1116B2C0E9FFB3C0B5
:10049000EAFFD890E936EA36850EE926000EEA2210
:1004A000EECF12F0EFCF13F0000E1216800E1316DF
:1004B0001250101802E1135011181CE0B2C0E9FFED
:1004C000B3C0EAFFD890E936EA36910EE926000E6D
:1004D000EA22EE50ED100EE0B2C0E9FFB3C0EAFF31
:1004E000D890E936EA36850EE926000EEA22EE506B
:1004F000ED101CE1B2C0E9FFB3C0EAFFD890E936C5
:10050000EA36910EE926000EEA22EE50ED101FE1C8
:10051000B2C0E9FFB3C0EAFFD890E936EA36850EEB
:10052000E926000EEA22EE50ED1011E09D0E0001CA
:10053000B225E96E000EB321EA6EEF5008E19D0E80
:10054000B225E96E000EB321EA6E010EEF6EB2C065
:10055000E9FFB3C0EAFFD890E936EA36850EE9260E
:10056000000EEA22EECF10F0EFCF11F0B2C0E9FF9B
:10057000B3C0EAFFD890E936EA36910EE926000EBC
:10058000EA2210C0EEFF11C0EDFF9D0E0001B22562
:10059000E96E000EB321EA6EEF500DE0B2C0E9FF44
:1005A000B3C0EAFFD890E936EA36850EE926000E98
:1005B000EA22EE6AED6AB22B000EB323F7D6686B1F
:1005C000696BB26BB36B040EB3AF02D0D89003D09B
:1005D000B25D000EB35920E2B2C0E9FFB3C0EAFF3A
:1005E000D890E936EA36850EE926000EEA22EECFEB
:1005F000E6FFEFCFE6FFAB0EB225E96E000EB321AA
:10060000EA6EEF50E66EBCDBE552E552E5520001C2
:10061000B22B000EB323D7D777D1E66A040EE66E6D
:10062000BB0EE66E000EE66EE668E66AE66AE66A0D
:10063000D2EC0CF0106E080EE15E1050000901E1E2
:10064000ECD70001B26BB36B020EB3AF02D0D890FF
:1006500003D0B25D000EB35901E322D1B2C0E9FF6D
:10066000B3C0EAFFD890E936EA36020EE926010E59
:10067000EA22EF50E66E040EEA6AB225E96EB35143
:10068000EA22D890E936EA36850EE926000EEA22FB
:10069000E552E750EE6EED6A040EEA6AB225E96EA5
:1006A000B351EA22D890E936EA36850EE926000EE3
:1006B000EA22EECF12F0EFCF13F012C013F0126A5D
:1006C000B2C0E9FFB3C0EAFFD890E936EA36010EBE
:1006D000E926000EEA22020EE926010EEA22EF5078
:1006E00000011210106E13C011F0040E0001EA6A2E
:1006F000B225E96EB351EA22D890E936EA36850E82
:10070000E926000EEA2210C0EEFF11C0EDFF040E34
:10071000EA6AB225E96EB351EA22D890E936EA36A0
:10072000910EE926000EEA22EECF10F0EFCF11F085
:10073000000E1016800E1116040EEA6AB225E96E3C
:10074000B351EA22D890E936EA36850EE926000E42
:10075000EA22EECF12F0EFCF13F0000E1216800E49
:1007600013161250101802E11350111820E0040E55
:10077000EA6AB225E96EB351EA22D890E936EA3640
:10078000910EE926000EEA22EE50ED1010E0040E64
:10079000EA6AB225E96EB351EA22D890E936EA3620
:1007A000850EE926000EEA22EE50ED1020E1040E3F
:1007B000EA6AB225E96EB351EA22D890E936EA3600
:1007C000910EE926000EEA22EE50ED1028E1040E0B
:1007D000EA6AB225E96EB351EA22D890E936EA36E0
:1007E000850EE926000EEA22EE50ED1018E0040E08
:1007F000EA6AB225E96EB351EA229D0EE926000E9F
:10080000EA22EF500CE1040EEA6AB225E96EB35118
:10081000EA229D0EE926000EEA22010EEF6E040E7A
:10082000EA6AB225E96EB351EA22D890E936EA368F
:10083000850EE926000EEA22EECF10F0EFCF11F080
:10084000040EEA6AB225E96EB351EA22D890E9367D
:10085000EA36910EE926000EEA2210C0EEFF11C022
:10086000EDFF040EEA6AB225E96EB351EA229D0E4D
:10087000E926000EEA22EF500FE0040EEA6AB225E4
:10088000E96EB351EA22D890E936EA36850EE926B8
:10089000000EEA22EE6AED6AB22B000EB323D4D624
:1008A000686B696BB26BB36B020EB3AF02D0D890BA
:1008B00003D0B25D000EB35926E2040EEA6AB225F7
:1008C000E96EB351EA22D890E936EA36850EE92678
:1008D000000EEA22EECFE6FFEFCFE6FF040EEA6A53
:1008E000B225E96EB351EA22AB0EE926000EEA22E8
:1008F000EF50E66E45DAE552E552E5520001B22BC3
:10090000000EB323D1D700D00001635130E0636BF8
:10091000B26BB36B060EB3AF02D0D89003D0B25D0A
:10092000000EB35924E2A30EB225E96E000EB321E6
:10093000EA6EEF5007E09D0EB225E96E000EB3217E
:10094000EA6EEF6A9D0EB225E96E000EB321EA6EE3
:10095000EF50E66EA30EB225E96E000EB321EA6EEB
:10096000E552E750EF6EB22B000EB323D3D762519E
:1009700002E0626B8270615101E1DFD1616B68510D
:10098000835D695184591CE2B26BB36B060EB3AF41
:1009900002D0D89003D0B25D000EB35911E2B2C0BC
:1009A000E9FFB3C0EAFFD890E936EA36850EE926BA
:1009B000000EEA22EE6AED6AB22B000EB323E6D7F0
:1009C000B26BB36B060EB3AF02D0D89003D0B25D5A
:1009D000000EB35904E2B22B000EB323F3D7B26B6F
:1009E000B36B040EB3AF02D0D89003D0B25D000E4B
:1009F000B35947E2B2C0E9FFB3C0EAFFD890E93685
:100A0000EA36150EE926010EEA22EECF10F0EFCFFE
:100A100011F011C010F0116AB2C0E9FFB3C0EAFFD3
:100A2000D890E936EA360C0EE926010EEA2210C00B
:100A3000EFFFB2C0E9FFB3C0EAFFD890E936EA366B
:100A4000150EE926010EEA22EECF10F0EFCF11F0DD
:100A5000FF0E1016000E1116B2C0E9FFB3C0EAFF78
:100A6000D890E936EA36010EE926000EEA220C0E8D
:100A7000E926010EEA2210C0EFFFB22B000EB323CD
:100A8000B0D7B26BB36B020EB3AF02D0D89003D025
:100A9000B25D000EB3594BE2040EEA6AB225E96E6C
:100AA000B351EA22D890E936EA36150EE926010E4E
:100AB000EA22EECF10F0EFCF11F011C010F0116A62
:100AC000B2C0E9FFB3C0EAFFD890E936EA360C0EAF
:100AD000E926010EEA2210C0EFFF040EEA6AB225F1
:100AE000E96EB351EA22D890E936EA36150EE926C6
:100AF000010EEA22EECF10F0EFCF11F0FF0E10162C
:100B0000000E1116B2C0E9FFB3C0EAFFD890E93673
:100B1000EA36010EE926000EEA220C0EE926010E45
:100B2000EA2210C0EFFFB22B000EB323ACD7480E61
:100B3000E66E33DBE55207C0C3F008C0C4F009C05D
:100B4000C5F0580EE66E29DBE55207C0C6F008C0B6
:100B5000C7F009C0C8F0C6C0E6FFC7C0E6FFC8C0FE
:100B6000E6FFC3C0E6FFC4C0E6FFC5C0E6FF1BEC5E
:100B70000AF0106E060EE15E1050C6C035F1C7C017
:100B800036F1C8C037F10101386BC3C041F1C4C0B0
:100B900042F1C5C043F1446B35C110F036C111F0CC
:100BA00037C112F038C113F0180ED8901332123238
:100BB00011321032E806F9E1105001010C6F37C113
:100BC00010F038C111F00001126A136A10500101CF
:100BD0000D6F36C110F037C111F038C112F00001AD
:100BE000136A105001010E6F35510F6FE66A040E43
:100BF000E66E0C0EE66E010EE66E7BC0E6FF7CC074
:100C0000E6FF7DC0E6FF7EC0E6FFD2EC0CF0106E82
:100C1000080EE15E1050000901E1E8D741C110F073
:100C200042C111F043C112F044C113F0180ED89024
:100C30001332123211321032E806F9E1105001017C
:100C40000C6F43C110F044C111F00001126A136A25
:100C5000105001010D6F42C110F043C111F044C1A9
:100C600012F00001136A105001010E6F41510F6F15
:100C7000E66A040EE66E0C0EE66E010EE66E77C0B6
:100C8000E6FF78C0E6FF79C0E6FF7AC0E6FFD2EC67
:100C90000CF0106E080EE15E1050000901E1E8D77B
:100CA000020EE66E400EE66E75EC0BF0E552E55274
:100CB000400EE66EB5EC0BF0E552F3CFBFF0F4CF8B
:100CC000C0F0040EE66E400EE66E75EC0BF0E552D9
:100CD000E552400EE66EB5EC0BF0E552F3CFC1F0F5
:100CE000F4CFC2F0C0C010F0116A105001010C6FB7
:100CF0000001BF5101010D6FC2C010F0116A105008
:100D00000E6F0001C15101010F6FE66A040EE66E1D
:100D10000C0EE66E010EE66E7FC0E6FF80C0E6FFB9
:100D200081C0E6FF82C0E6FFD2EC0CF0106E080E28
:100D3000E15E1050000901E1E8D799EF01F01200DF
:100D4000D9CFE6FFE1CFD9FFFD0EDB0409E1FE0EAE
:100D5000DBCFE6FF1DEC13F0E5529EA8FED70CD0CA
:100D6000FD0EDB50020808E1FE0EDBCFE6FF06ECCD
:100D700013F0E552A4A8FED7E552E7CFD9FF120041
:100D8000D9CFE6FFE1CFD9FF020EE126FE0EDB5000
:100D9000E824DF6EFC0EDBCF10F0FD0EDBCF11F090
:100DA00011C010F0116A010E10C0DBFF8EEC13F0C1
:100DB000C580C5B0FED7C5B0FED7A1B63DD0DFCF48
:100DC000E6FF3AEC12F0E552000900E08EEC13F079
:100DD000C5BC06D0E66A3AEC12F0E552000900E024
:100DE0008EEC13F0C5BC08D0010EDBCFE6FF3AEC69
:100DF00012F0E552000900E0FF0EE76EFC0EDBCFBB
:100E000010F0FD0EDBCF11F0E7501016116A010E45
:100E100010C0DBFF8EEC13F0C5BC09D0010EDBCF98
:100E2000E6FF3AEC12F0E552000900E005D08EEC46
:100E300013F0C584C5B4FED78EEC13F0C584C5B4D9
:100E4000FED7C5B4FED7A1A600D0070E106E020EC5
:100E5000E15C03E200D0E16AE552E16E1050E55238
:100E6000E7CFD9FF1200D9CFE6FFE1CFD9FF040EBB
:100E7000E126FE0EDB50E824DF6E8EEC13F0C58019
:100E8000C5B0FED7C5B0FED7A1A605D0010EF36E42
:100E9000F46A8FD016D0DFCFE6FF3AEC12F0E552BD
:100EA000000900E08EEC13F0C5BC0BD0020EE66E1C
:100EB0003AEC12F0E552000904E0020EF36EF46A17
:100EC00078D08EEC13F0C584C5B4FED7C5B4FED778
:100ED000A1A604D0060EF36EF46A6BD0FE0EDB50B2
:100EE000E8240109DF6E8EEC13F0C580C5B0FED793
:100EF000C5B0FED7A1A605D0010EF36EF46A59D095
:100F000040D0DFCFE6FF3AEC12F0E552000900E0F6
:100F10008EEC13F0C5BC35D078EC13F0E76E030E01
:100F2000E7CFDBFFDB50E66ED950010FE96EDACF79
:100F3000EAFFE552E750EE6EED6AC59AC588C5B87E
:100F4000FED778EC13F0E76E030EE7CFDBFFC58A20
:100F5000C588C5B8FED7010EDBCF12F0020EDBCF7D
:100F600013F012C013F0126A030EDB5000011210CE
:100F7000106E13C011F0010E10C0DBFF020E11C085
:100F8000DBFF8EEC13F0C584C5B4FED7C5B4FED725
:100F9000A1A604D0060EF36EF46A0BD0010EDBCFCF
:100FA00010F0020EDBCF11F010C0F3FF11C0F4FF00
:100FB00000D0040EE15C02E2E16AE552E16EE55226
:100FC000E7CFD9FF1200D9CFE6FFE1CFD9FF020E5C
:100FD000E126EC0EDF6EDE521E0EDD6E8EEC13F09F
:100FE000C580C5B0FED7C5B0FED7A1A602D01CD023
:100FF00014D0DFCFE6FF3AEC12F0E552000900E032
:101000008EEC13F0C5BC09D0010EDBCFE6FF3AEC45
:1010100012F0E552000901E007D08EEC13F0C5BCD8
:1010200003D0C584C5B4FED7020EE15C02E2E16ADA
:10103000E552E16EE552E7CFD9FF1200D9CFE6FFC6
:10104000E1CFD9FF040EE126EC0EDF6EFE0EDB5081
:10105000E76E010EE7CFDBFF8EEC13F0C580C5B065
:10106000FED7C5B0FED7A1A605D0010EF36EF46A77
:101070008AD017D0DFCFE6FF3AEC12F0E552000934
:1010800000E08EEC13F0C5BC0CD0010EDBCFE6FF08
:101090003AEC12F0E552000904E0020EF36EF46A35
:1010A00072D08EEC13F0C5BC03D0C584C5B4FED796
:1010B0008EEC13F0C580C5B0FED7C5B0FED7A1A693
:1010C00005D0010EF36EF46A5ED05DD0010EDF1024
:1010D000E66E3AEC12F0E552000900E08EEC13F0F7
:1010E000C5BC4DD078EC13F0E66ED950020FE96E16
:1010F000DACFEAFFE552E750EE6EED6AC59AC58891
:10110000C5B8FED7020EDBCF12F0030EDBCF13F013
:1011100012C013F0126A12C0E6FF13C0E6FF78ECAB
:1011200013F0E552E7CF13F0E552E7CF12F00001DC
:101130001210106E13C011F0020E10C0DBFF030E70
:1011400011C0DBFFC58AC588C5B8FED78EEC13F089
:10115000C584C5B4FED7C5B4FED7A1A604D0060E7B
:10116000F36EF46A10D0020EDBCF10F0030EDBCF6B
:1011700011F010C0F3FF11C0F4FF05D004D0070E2A
:10118000F36EF46A00D0040EE15C02E2E16AE5521B
:10119000E16EE552E7CFD9FF1200D9CFE6FFE1CFEC
:1011A000D9FF050EE126EC0EDF6EFE0EDB50E76E7A
:1011B000010EE7CFDBFF020EDB6A030EDB6A040ED3
:1011C000DB6A8EEC13F0C580C5B0FED7C5B0FED784
:1011D000A1A606D0010E076E086A096A22D118D0AE
:1011E000DFCFE6FF3AEC12F0E552000900E08EECAA
:1011F00013F0C5BC0DD0010EDBCFE6FF3AEC12F0C8
:10120000E552000905E0020E076E086A096A09D175
:101210008EEC13F0C5BC03D0C584C5B4FED78EECEC
:1012200013F0640EE66E4AEC13F0E552C580C5B0CB
:10123000FED7C5B0FED7A1A606D0030E076E086A7A
:10124000096AEFD016D0DFCFE6FF3AEC12F0E55294
:10125000000900E08EEC13F0C5BC0BD0E66A3AEC56
:1012600012F0E552000905E0040E076E086A096AEB
:10127000D8D08EEC13F0C5BC03D0C584C5B4FED75E
:101280008EEC13F0C580C5B0FED7C5B0FED7A1A6C1
:1012900006D0050E076E086A096AC3D0C2D0010ED7
:1012A000DF10E66E3AEC12F0E552000900E08EEC39
:1012B00013F0C5BCB1D078EC13F0106E116A126A4D
:1012C000020E10C0DBFF030E11C0DBFF040E12C0C4
:1012D000DBFFC59AC588C5B8FED7080E166ED95073
:1012E000020FE96EDACFEAFF16501F0BEECF13F0B4
:1012F000EECF14F0EECF15F006E0D890133614368A
:101300001536E806FAE113C0E6FF14C0E6FF15C083
:10131000E6FF78EC13F0E552E7CF15F0E552E7CFA2
:1013200014F0E552E7CF13F0176E186A196A1350DC
:101330001710106E14501810116E15501910126EEF
:10134000020E10C0DBFF030E11C0DBFF040E12C043
:10135000DBFFC59AC588C5B8FED7080E166ED950F2
:10136000020FE96EDACFEAFF16501F0BEECF13F033
:10137000EECF14F0EECF15F006E0D8901336143609
:101380001536E806FAE113C0E6FF14C0E6FF15C003
:10139000E6FF78EC13F0E552E7CF15F0E552E7CF22
:1013A00014F0E552E7CF13F0176E186A196A13505C
:1013B0001710106E14501810116E15501910126E6F
:1013C000020E10C0DBFF030E11C0DBFF040E12C0C3
:1013D000DBFFC58AC588C5B8FED78EEC13F0C5847F
:1013E000C5B4FED7C5B4FED7A1A605D0060E076EBC
:1013F000086A096A16D0020EDBCF10F0030EDBCFAD
:1014000011F0040EDBCF12F010C007F011C008F08D
:1014100012C009F006D005D0070E076E086A096AE7
:1014200000D0050EE15C02E2E16AE552E16EE552B0
:10143000E7CFD9FF1200D9CFE6FFE1CFD9FF2BC10B
:1014400010F02CC111F010C011F0106A126AD950BE
:10145000F90FE96EFF0EDA20EA6E1050EE5C010122
:10146000316F1150EE58326F1250EE58336F346BAB
:101470002DC110F02EC111F0126A136A31C106F0AD
:1014800032C107F033C108F034C109F010C00BF0CD
:1014900011C00CF012C00DF013C00EF073EC12F07E
:1014A00002C035F103C036F104C037F105C038F190
:1014B0000B6A0C6A800E0D6E0E6A35C106F036C1DD
:1014C00007F037C108F038C109F05DEC11F006C033
:1014D00035F107C036F108C037F109C038F1D00E38
:1014E00001013527070E3623000E3723382325C187
:1014F00010F026C111F0126A100ED8901036113675
:101500001236E806FAE1136A12BE136829C114F014
:101510002AC115F0166A176A14C006F015C007F044
:1015200016C008F017C009F031C10BF032C10CF041
:1015300033C10DF034C10EF073EC12F002C006F0AE
:1015400003C007F004C008F005C009F0800E0B6E60
:101550000C6A0D6A0E6A5DEC11F010500624010150
:10156000396F115007203A6F125008203B6F13500B
:1015700009203C6F23C110F024C111F0126A0F0E34
:10158000D890103611361236E806FAE1136A12BE08
:10159000136827C114F028C115F0166A176A14C021
:1015A00006F015C007F016C008F017C009F031C1E9
:1015B0000BF032C10CF033C10DF034C10EF073ECFE
:1015C00012F002C006F003C007F004C008F005C026
:1015D00009F00B6A010E0C6E0D6A0E6A5DEC11F0DB
:1015E0001050062401013D6F115007203E6F12502C
:1015F00008203F6F13500920406FFC0EDBCF10F026
:10160000FD0EDBCF11F0FE0EDBCF12F0136A10C01F
:1016100006F011C007F012C008F013C009F03DC178
:101620000BF03EC10CF03FC10DF040C10EF073EC69
:1016300012F002C006F003C007F004C008F005C0B5
:1016400009F00B6A0C6A200E0D6E0E6A5DEC11F04B
:1016500001013951065C416F3A510758426F3B51C5
:101660000858436F3C510958446F0B6A200E0C6EAA
:101670000D6A0E6A41C106F042C107F043C108F08D
:1016800044C109F05DEC11F006C041F107C042F120
:1016900008C043F109C044F1E552E7CFD9FF120079
:1016A000926A080E936E946A0F015D6B5C6B8AEC14
:1016B0000CF0D40EE66ECFEC12F0E552F28EF28C06
:1016C000E66A080EE66EEBEC12F0E552E552C68AC9
:1016D000C86812009AEC13F095EC13F0000901E0D1
:1016E000FBD785EC13F000D01200D9CFE6FFE1CF95
:1016F000D9FF020EE126FE0EDB50E824DF6EFD0E60
:10170000DB50E76E010EE7CFDBFF8EEC13F0C580F8
:10171000C5B0FED7C5B0FED7A1A602D01CD014D04C
:10172000DFCFE6FF3AEC12F0E552000900E08EEC64
:1017300013F0C5BC09D0010EDBCFE6FF3AEC12F086
:10174000E552000901E007D08EEC13F0C5BC03D0D0
:10175000C584C5B4FED7020EE15C02E2E16AE5523F
:10176000E16EE552E7CFD9FF1200D9CFE6FFE1CF16
:10177000D9FF030EE126FE0EDB50DF6EDF50E824BA
:101780000109DF6E8EEC13F0C580C5B0FED7C5B081
:10179000FED7A1A605D0010EF36EF46A58D057D03B
:1017A000DFCFE6FF3AEC12F0E552000900E08EECE4
:1017B00013F0C5BC4CD078EC13F0E66ED950010F95
:1017C000E96EDACFEAFFE552E750EE6EED6AC59AB0
:1017D000C588C5B8FED7010EDBCF12F0020EDBCFF5
:1017E00013F012C013F0126A12C0E6FF13C0E6FF36
:1017F00078EC13F0E552E7CF13F0E552E7CF12F0A3
:1018000000011210106E13C011F0010E10C0DBFFAA
:10181000020E11C0DBFFC58AC588C5B8FED78EECA5
:1018200013F0C584C5B4FED7C5B4FED7A1A604D0B5
:10183000060EF36EF46A0BD0010EDBCF10F0020E31
:10184000DBCF11F010C0F3FF11C0F4FF00D0030E86
:10185000E15C02E2E16AE552E16EE552E7CFD9FFD1
:101860001200D9CFE6FFE1CFD9FFE652FE0EDB50E2
:10187000DF6EDF50E824DF6E8EEC13F0C580C5B05C
:10188000FED7C5B0FED7A1A602D03FD03ED0DFCF55
:10189000E6FF3AEC12F0E552000900E08EEC13F09E
:1018A000C5BC33D0FD0EDBCFE6FF3AEC12F0E552BB
:1018B000C5BC2BD0FB0EDBCF10F0FC0EDBCF11F044
:1018C00011C010F0116A1050E66E3AEC12F0E552B9
:1018D000C5BC1BD0FF0EE76EFB0EDBCF10F0FC0E7D
:1018E000DBCF11F0E7501016116A1050E66E3AEC9B
:1018F00012F0E552C5BC09D08EEC13F0C584C5B416
:10190000FED7C5B4FED7A1B600D0E552E552E7CF69
:04191000D9FF1200E9
:0C191400800EE66ECCDAE5520E01436B4B
:10192000FB0E446F060E456F200E706E729E728C19
:10193000606A0F01306B0E01806B906BA06BB06B17
:10194000C06BD06BE00E7D6FE06BE16B0E0EE46F51
:10195000A00EE56F0E0EE86F800EE96F080EEC6FBB
:10196000ED6BF06F600EF16F1F0E466F476B100E40
:10197000716F230E726F410E736F746B756B766BA4
:10198000776B786B796B040E7A6F7B6B7B6BF86986
:10199000E00EF96FF997FC6BFD6BFD97E66A89DA4B
:1019A000E5521200D9CFE6FFE1CFD9FF1A0EE126AA
:1019B000D950060FE96EDACFEAFF200EEE6E0F0E59
:1019C000ED6ED950080FE96EDACFEAFF100EEE6E19
:1019D0000F0EED6ED9500A0FE96EDACFEAFF000E56
:1019E000EE6E0F0EED6ED9500C0FE96EDACFEAFFF6
:1019F000800EEE6E0E0EED6ED9500E0FE96EDACF40
:101A0000EAFF900EEE6E0E0EED6ED950100FE96EDD
:101A1000DACFEAFFA00EEE6E0E0EED6ED950120F69
:101A2000E96EDACFEAFFB00EEE6E0E0EED6ED95013
:101A3000140FE96EDACFEAFFC00EEE6E0E0EED6EF9
:101A4000D950160FE96EDACFEAFFD00EEE6E0E0E09
:101A5000ED6E0E017D417F0BE76E190EE7CFDBFFC8
:101A6000DF6ADF50080801E2E4D0D950060F106E9B
:101A7000DACF11F0DF50020D1050F324E96E11504F
:101A8000F420EA6E020EEECFDBFF030EEDCFDBFF9C
:101A9000020EDBCF08F0030EDBCF09F0040E08C006
:101AA000DBFF050E09C0DBFFDF50020810E2190E54
:101AB000DBCFF3FFF390F342F3CFDBFFD950190FE5
:101AC000E96EDACFEAFFEF50010B01E1B0D0020E70
:101AD000DBCFE9FF030EDBCFEAFFEF50080B01E09D
:101AE000A6D0FC0E106E020EDBCFE9FF030EDBCF9B
:101AF000EAFF1050EF16F70EDB50030B106E020ECC
:101B0000DBCFE9FF030EDBCFEAFF1050EF12F70E39
:101B1000DBAC08D0F80EDB504009E76E180EE7CFBB
:101B2000DBFF06D0F80EDB50E76E180EE7CFDBFFC9
:101B3000050EE76E020EDBCFE9FF030EDBCFEAFFF7
:101B4000E750E926000EEA22180EDBCFEFFFF70E72
:101B5000DBAA06D0010EF36E180EF3CFDBFF02D026
:101B6000180EDB6ADBCFE6FFD950FB0FE96EFF0EE4
:101B7000DA20EA6EEECFE6FFEECFE6FFEECFE6FF2D
:101B8000EFCFE6FF010EE76E020EDBCF10F0030E83
:101B9000DBCF11F0E7501026000E112210C0E6FF37
:101BA00011C0E6FF9BD9126E070EE15E1250D950AC
:101BB000020FE96EDACFEAFF060EEE26000EED22E6
:101BC000010EDB6AF80EDB50F36E010EDBCFF4FF83
:101BD000F350F45C1AE2F90EDBCFE9FFDB2AFA0ED0
:101BE000DBCFEAFF01E3DB2AEF50E66E020EDBCF2C
:101BF000E9FFDB2A030EDBCFEAFF01E3DB2AE55234
:101C0000E750EF6E010EDB2ADDD7040EDBCFE9FFD4
:101C1000050EDBCFEAFFEF50040B07E1040EDBCF2C
:101C2000E9FF050EDBCFEAFFEF86010E04D0DF2AC5
:101C300018D7000E00D0106E1A0EE15C02E2E16AC5
:101C4000E552E16E1050E552E7CFD9FF1200D9CF2F
:101C5000E6FFE1CFD9FF060EE1260001E06B60AEA2
:101C600005D0600EDE6E0F0EDD6E4DD00F0130AF71
:101C700005D0300EDE6E0F0EDD6E45D00E017D51AB
:101C8000040B08E18051800B05E0800EDE6E0E0E25
:101C9000DD6E39D07D51080B08E19051800B05E0D5
:101CA000900EDE6E0E0EDD6E2ED07D51100B08E113
:101CB000A051800B05E0A00EDE6E0E0EDD6E23D06F
:101CC0007D51200B08E1B051800B05E0B00EDE6EB7
:101CD0000E0EDD6E18D07D51400B08E1C051800B17
:101CE00005E0C00EDE6E0E0EDD6E0DD07D51800B58
:101CF00008E1D051800B05E0D00EDE6E0E0EDD6ED9
:101D000002D0000ECAD0DECFE9FFDDCFEAFFEF50F0
:101D10001F0B0001E06F779271AC09D000D0F70E75
:101D2000DBCFE9FFF80EDBCFEAFFEF86719CD9CF5E
:101D3000E9FFDACFEAFF020EEECFDBFF030EEDCFB5
:101D4000DBFFF70EDBCFE9FFF80EDBCFEAFFEF6A30
:101D5000DECFE9FFDDCFEAFF050EE926000EEA221D
:101D6000050EEFCFDBFFDB500F0BE66EF90EDBCF7E
:101D7000E9FFFA0EDBCFEAFFE552E750EF6ED950EC
:101D8000050FE96EDACFEAFFEF50400B07E0F70EE0
:101D9000DBCFE9FFF80EDBCFEAFFEF8CDECFE9FF08
:101DA000DDCFEAFF020EE926000EEA22050EEFCF94
:101DB000DBFFD950050FE96EDACFEAFFEF50080BD1
:101DC0000DE0F70EDBCFE9FFF80EDBCFEAFFEF8A7D
:101DD000010EF36E050EF3CFDBFF02D0050EDB6ABA
:101DE000DBCFE6FFFD0EDBCFE6FFFE0EDBCFE6FF2F
:101DF000DECF10F0DDCF11F0010E1026000E112203
:101E000010C0E6FF11C0E6FF49D9126E050EE15E73
:101E10001250060EDE26000EDD22F90EDBCFE9FFA2
:101E2000FA0EDBCFEAFF050EEFCFDBFF040EDB6A15
:101E3000050EDB50F36E040EDBCFF4FFF350F45CC1
:101E400019E2DFCFE9FFDF2A010EDBCFEAFF01E372
:101E5000DB2AEF50E66EFB0EDBCFE9FFDB2AFC0E40
:101E6000DBCFEAFF01E3DB2AE552E750EF6E040E19
:101E7000DB2ADED777AE08D0F70EDBCFE9FFF80E0E
:101E8000DBCFEAFFEF88779E020EDBCFE9FF030E80
:101E9000DBCFEAFFEF9E010E00D0106E060EE15C74
:101EA00002E2E16AE552E16E1050E552E7CFD9FF58
:101EB0001200D9CFE6FFE1CFD9FF1F0E6F16FE0E3D
:101EC000DB506F12E00E6F14106EFE0EDB50105CD4
:101ED00001E0F8D7E552E7CFD9FF1200D9CFE6FFEE
:101EE000E1CFD9FF020EE126D950F90F106EFF0E97
:101EF000DA20116E10C0DEFF11C0DDFFF80EDB50DE
:101F00003BE1DECFE9FFDDCFEAFFEF50E840E840FC
:101F1000E8401F0BE66EFD0EDBCFE9FFFE0EDBCFC8
:101F2000EAFFE552E750EF6EDECFE9FFDDCFEAFFD3
:101F3000EE52EF50200DF3CF10F0FD0EDBCFE9FF96
:101F4000FE0EDBCFEAFF1050EF12FD0EDB2AFE0E75
:101F500001E3DB2ADECFE9FFDDCFEAFFEF50200D02
:101F6000F350E66EFD0EDBCFE9FFFE0EDBCFEAFF9E
:101F7000E552E750EF6E88D0DECFE9FFDDCFEAFF14
:101F8000020EE926000EEA22EF50E00BE838E840A6
:101F9000E66EFD0EDBCFE9FFFE0EDBCFEAFFE5527A
:101FA000E750EF6EDECFE9FFDDCFEAFF030EE92653
:101FB000000EEA22EF50080DF3CF10F0FD0EDBCF3C
:101FC000E9FFFE0EDBCFEAFF1050EF12FD0EDB2A19
:101FD000FE0E01E3DB2ADECFE9FFDDCFEAFF020ED2
:101FE000E926000EEA22EF50080DF350E00BE66EF2
:101FF000FD0EDBCFE9FFFE0EDBCFEAFFE552E75037
:10200000EF6EFD0EDBCFE9FFFE0EDBCFEAFFEF86C2
:10201000DECFE9FFDDCFEAFF020EE926000EEA225D
:10202000EF50030B106EFD0EDBCFE9FFFE0EDBCF92
:10203000EAFF1050EF12FD0EDB2AFE0E01E3DB2A51
:10204000DECFE9FFDDCFEAFFEE52EF50E66EFD0E88
:10205000DBCFE9FFFE0EDBCFEAFFE552E750EF6E84
:10206000FD0EDB2AFE0E01E3DB2ADECFE9FFDDCF2A
:10207000EAFFEF50E66EFD0EDBCFE9FFFE0EDBCF91
:10208000EAFFE552E750EF6E020EE15C02E2E16A20
:10209000E552E16EE552E7CFD9FF1200D9CFE6FF56
:1020A000E1CFD9FF020EE126FB0EDBCFDEFFDBCF57
:1020B000DDFFFA0EDB504DE1FD0EDBCFE9FFFE0E3A
:1020C000DBCFEAFFEF50080DF350E66EDECFE9FFFD
:1020D000DDCFEAFFE552E750EF6EFD0EDBCFE9FF03
:1020E000FE0EDBCFEAFFEF50E00BE838E840E66E8B
:1020F000DECFE9FFDDCFEAFFEE52E552E750EF6EAB
:10210000FD0EDB2AFE0E01E3DB2AFD0EDBCFE9FF2D
:10211000FE0EDBCFEAFFEF50E00BE838E840106E30
:10212000DECFE9FFDDCFEAFF1050EF12DECFE9FF8F
:10213000DDCFEAFF020EE926000EEA22EF6ADECFCB
:10214000E9FFDDCFEAFF030EE926000EEA22EF6A7F
:1021500084D0FD0EDBCFE9FFFE0EDBCFEAFFEF50B0
:10216000200DF350E66EDECFE9FFDDCFEAFF020E71
:10217000E926000EEA22E552E750EF6EFD0EDBCFB6
:10218000E9FFFE0EDBCFEAFFEF50E840E840E84011
:102190001F0BE66EDECFE9FFDDCFEAFF030EE92677
:1021A000000EEA22E552E750EF6EFD0EDB2AFE0E2E
:1021B00001E3DB2AFD0EDBCFE9FFFE0EDBCFEAFFFA
:1021C000EF50030B106EDECFE9FFDDCFEAFF020E0A
:1021D000E926000EEA221050EF12FD0EDBCFE9FFD8
:1021E000FE0EDBCFEAFFEF50E00BE840E840E840AE
:1021F0001F0B106EDECFE9FFDDCFEAFF020EE926EE
:10220000000EEA221050EF12FD0EDB2AFE0E01E353
:10221000DB2AFD0EDBCFE9FFFE0EDBCFEAFFEF503E
:10222000E66EDECFE9FFDDCFEAFFEE52E552E75082
:10223000EF6EFD0EDB2AFE0E01E3DB2AFD0EDBCF87
:10224000E9FFFE0EDBCFEAFFEF50E66EDECFE9FFDF
:10225000DDCFEAFFE552E750EF6E020EE15C02E2ED
:0E226000E16AE552E16EE552E7CFD9FF1200C8
:02226E00006A04
:102270000EAE40EF11F00D6C0E1EE86A0E22001E2D
:1022800009AE48EF11F0086C091EE86A0922001E29
:1022900034EC13F009BE58EF11F000AE000C086CDE
:1022A000091EE86A0922046C051EE86A0522000C72
:1022B00000BE4FEF11F00188FF0C006AE86A0EAE15
:1022C0006AEF11F00B6C0C1E0D1E0E1E0C220D225F
:1022D0000E22001E09AE75EF11F0066C071E081ED7
:1022E000091E072208220922001EABEC12F009BECB
:1022F0008CEF11F000AE000C066C071E081E091EC4
:10230000E86A072208220922026C031E041E051E29
:10231000032204220522000C00BE7CEF11F001888C
:02232000FF0CB0
:0E2322000001DA6BDB6B1200D9CFE6FFE1CFD2
:10233000D9FFE652DF6ADFCF10F0060EE76E101805
:10234000E8AE02D0E73402D0E750105C29E2DFCFDC
:1023500010F0116A10BE1168D89010361136FB0EBD
:10236000DB501024E96EFC0EDB501120EA6EEECF3C
:10237000E6FFEFCFE6FFDFCF12F0136A12BE13685D
:10238000FD0EDB501224E96EFE0EDB501320EA6EC8
:10239000EF50E66E0AD8E552E552E552DF2ACBD778
:1023A000E552E552E7CFD9FF1200D9CFE6FFE1CFE2
:1023B000D9FFE652050EDF6EDF5000D0E552E55240
:1023C000E7CFD9FF1200D9CFE6FFE1CFD9FFE55221
:0623D000E7CFD9FF120067
:0A23D6000E0EF66E000EF76E000EFC
:1023E000F86E00010900F550D56F0900F550D66F61
:1023F00003E1D56701D03DD00900F550D06F090049
:10240000F550D16F0900F550D26F09000900F55061
:10241000E96E0900F550EA6E090009000900F5505F
:10242000D36F0900F550D46F09000900F6CFD7F03B
:10243000F7CFD8F0F8CFD9F0D0C0F6FFD1C0F7FF72
:10244000D2C0F8FF0001D35302E1D45307E00900E2
:10245000F550EE6ED307F8E2D407F9D7D7C0F6FFF0
:10246000D8C0F7FFD9C0F8FF0001D507000ED65B32
:04247000BFD71200C0
:0C247400D9CFE6FFDACFE6FFE1CFD9FFB9
:10248000E2CFDAFFFD0EDB50C96EC6AE02D0FF0E02
:1024900024D00F0EC61408080FE00F0EC6140B0848
:1024A0000BE0C6889EA6FED7C750040B03E1C750B9
:1024B000010B10E0000E11D00F0EC614080804E046
:1024C0000F0EC6140B0809E1C7B0FED78EEC13F04F
:1024D000C5AC02D0FE0E01D0000EE552E5CFDAFF0A
:0624E000E7CFD9FF120056
:0A24E60006500B02F3CF02F0F4CF12
:1024F00003F00C02F3500326000EF420046E065085
:102500000D02F3500426000EF420056E06500E0254
:10251000F350052607500B02F3500326F450042213
:10252000000E052207500C02F3500426F450052239
:1025300007500D02F350052608500B02F3500426F5
:10254000F450052208500C02F350052609500B02E6
:06255000F3500526120005
:0A255600056A046A036A026A200E97
:10256000E76ED89006360736083609360236033647
:10257000043605360B50025C0C5003580D500458BD
:102580000E50055809E30B50025E0C50035A0D50D3
:0E259000045A0E50055A062AE72EE4D7120010
:02259E00D9CF93
:1025A000E6FFDACFE6FFE1CFD9FFE2CFDAFFFD0E9B
:1025B000DB507F0BD56ED76AD66AF294FD0EDBAE88
:1025C00002D0F28A01D0F29AD58EE552E5CFDAFF39
:0625D000E7CFD9FF120065
:0A25D600D9CFE6FFDACFE6FFE1CF30
:1025E000D9FFE2CFDAFF3F0EC716C66AC56AFD0EF5
:1025F000DB50C612FC0EDB50C71294869488C68A44
:0C260000E552E5CFDAFFE7CFD9FF12006A
:04260C00D9CFE6FF3D
:10261000DACFE6FFE1CFD9FFE2CFDAFFBAAC04D0E0
:10262000BA900001DEB3BA80FD0EDB50796EE55240
:0A263000E5CFDAFFE7CFD9FF120073
:06263A00D9CFE6FFDACF64
:10264000E6FFE1CFD9FFE2CFDAFFACAC04D0AC902B
:102650000001DFB3AC80FD0EDB50AD6EE552E5CF7F
:08266000DAFFE7CFD9FF1200F9
:08266800056A046A100EE76E1A
:10267000D89008360936043605360D50045C0E50E5
:10268000055805E30D50045E0E50055A082AE72E42
:04269000F0D712006D
:0C269400FF0EE3501A6E480E01D04C0EF1
:1026A000E76EE72EFED7E76AE72EFED71A2EF7D79A
:0426B0000000120014
:0C26B400410EF36E00EE00F00E0E01D897
:1026C0001200EA6002D0EE6AFCD7F350E960120013
:0426D000EE6AFCD7DB
:0C26D4001DEE00F02DEE00F0F86A019CF5
:1026E000EBEC11F003EC00F047EC00F0FBD712002C
:1026F0000F0EC614080804E00F0EC6140B0801E103
:0A270000C586C7A0FED7C95012001D
:06270A00C450136E126AB8
:0C271000C3501210F36E13C0F4FF12004F
:04271C001F0EC514B3
:0A272000FDE1C750040BFAE11200BE
:06272A00C250020B01E0A9
:04273000010E120084
:04273400C28212004B
:0827380008000101000000008F
:10274000000000100011001200000013000000142F
:102750000000001500000016000000C40400000086
:102760000000000000000000000000000000000069
:102770000000000000000000000000000000000059
:10278000000000505152535455000000A0A2A4A6CE
:10279000A8AAACDEADBEAF00000000000000000043
:0827A000000000000000000031
:020000040030CA
:0100000015EA
:0100010012EC
:010005008971
:00000001FF
