:020000040000FA
:06000000F0EF0FF012000A
:020006001200E6
:060008000EEF00F01200F3
:02000E000100EF
:0C001000442000006000000053000000CD
:04001C00D8CFE4FF56
:10002000E0CFE4FFE46EDACFE4FFE2CFDAFFE6529E
:10003000F2A421D0F2940001632B000E6423652BFF
:100040006623672B3D0E64AF02D0D89003D0635D6A
:10005000000E645904E3636B646B010E616FD8900A
:10006000665104E6620E655D020E665904E3656B37
:10007000666B010E626FE552E5CFDAFFE550E5CF22
:10008000E0FFE5CFD8FF1000EBEC08F00001976B24
:10009000986B060E98AF02D0D89003D0975D000EF3
:1000A000985915E2000EE66EE66A900E9725E96E05
:1000B000000E9821EA6EEF50E66E5BEC04F0E5521C
:1000C000E552E5520001972B000E9823E2D77EEC13
:1000D00005F0640EE66ED0EC0FF0E5520001976B70
:1000E000986B070E98AF02D0D89003D0975D000EA2
:1000F000985961E2990E9725E96E000E9821EA6EF3
:10010000EF50E66EB9EC05F0E552F3CF10F0F4CF06
:1001100011F097C0E9FF98C0EAFFD890E936EA36B7
:10012000D30EE926000EEA2210C0EEFF11C0EDFF4B
:1001300097C0E9FF98C0EAFFD890E936EA36D30EB7
:10014000E926000EEA22EECF10F0EFCF11F011C039
:1001500010F0116A10500001BF6F97C0E9FF98C0FE
:10016000EAFFD890E936EA36D30EE926000EEA22F5
:10017000EECF10F0EFCF11F01050C06FE66A020E14
:10018000E66EBF0EE66E000EE66E79C0E6FF7AC040
:10019000E6FF7BC0E6FF7CC0E6FF58EC09F0106E7E
:1001A000080EE15E1050000901E1E8D70001972B2D
:1001B000000E982396D7FF0E0001D3170F0ED41709
:1001C0000001976B986B080E98AF02D0D89003D0BF
:1001D000975D000E985901E39CD00001E16BE26B42
:1001E0000001B06BB16BB26BAC6BAD6B100EADAF11
:1001F00002D0D89003D0AC5D000EAD5965E2ACC022
:1002000010F0ADC011F0020E0D6E0E6A10C008F0B5
:1002100011C009F0BDEC0DF004C010F005C011F0E4
:10022000010E101801E111501CE1ACC0E9FFADC096
:10023000EAFFD890EA32E932D890E936EA36D30EAE
:10024000E926000EEA22EECF10F0EFCF11F0FF0EFC
:100250001016000E111610500001B01B1150B11BEA
:100260001AD0ACC0E9FFADC0EAFFD890EA32E9325B
:10027000D890E936EA36D30EE926000EEA22EECF10
:1002800010F0EFCF11F011C010F0116A1050000102
:10029000B01B1150B11B080EB26FB251000810E232
:1002A000B151800B08E0D890B037B137000EB01BC9
:1002B000300EB11B03D0D890B037B137B207EDD7AD
:1002C000AC2B000EAD2392D7B139B16B0F0BB06FD1
:1002D0000F0EB017000EB117B0190001BF6FE66A1C
:1002E000010EE66EBF0EE66E000EE66EE00EE66EE6
:1002F000E66AE66AE66A58EC09F0106E080EE15EFE
:100300001050000901E1EBD70001972B000E982354
:100310005AD7BE0EE66E000EE66EBD0EE66E000EFD
:10032000E66EB50EE66E000EE66EB30EE66E000EDD
:10033000E66EADEC0AF0106E080EE15E105000099A
:1003400001E1EFD04B0E0001B31901E1B45101E11D
:100350007FD0740EB31901E1B45101E0E2D0E66A36
:10036000040EE66EA00EE66E000EE66EE668E66A25
:10037000E66AE66A58EC09F0106E080EE15E10506D
:10038000000901E1ECD70001976B986B040E98AF60
:1003900002D0D89003D0975D000E985957E297C0CD
:1003A000E9FF98C0EAFFD890E936EA36B50EE926AB
:1003B000000EEA22EF50E66E97C0E9FF98C0EAFF10
:1003C000D890E936EA36820EE926000EEA22E55296
:1003D000E750EE6EED6A97C0E9FF98C0EAFFD8904B
:1003E000E936EA36820EE926000EEA22EECF12F056
:1003F000EFCF13F012C013F0126A97C0E9FF98C054
:10040000EAFFD890E936EA36010EE926000EEA2224
:10041000B50EE926000EEA22EF5000011210106E10
:1004200013C011F097C0E9FF98C0EAFFD890E936F1
:10043000EA36820EE926000EEA2210C0EEFF11C055
:10044000EDFF0001972B000E9823A0D7676B69D0B2
:100450000001976B986B020E98AF02D0D89003D032
:10046000975D000E98595BE297C0E9FF98C0EAFFDC
:10047000D890E936EA36B50EE926000EEA22EF50AA
:10048000E66E040EEA6A9725E96E9851EA22D89042
:10049000E936EA36820EE926000EEA22E552E750F6
:1004A000EE6EED6A97C0E9FF98C0EAFFD890E93692
:1004B000EA36820EE926000EEA22EECF12F0EFCFE6
:1004C00013F012C013F0126A97C0E9FF98C0EAFF58
:1004D000D890E936EA36010EE926000EEA22B50E7A
:1004E000E926000EEA22EF5000011210106E13C030
:1004F00011F0040E0001EA6A9725E96E9851EA228C
:10050000D890E936EA36820EE926000EEA2210C0BB
:10051000EEFF11C0EDFF972B000E98239CD7676B61
:1005200000D00001625102E0626B8270615101E112
:10053000A0D1616B8151D88067551CE2976B986B95
:10054000060E98AF02D0D89003D0975D000E985950
:1005500011E297C0E9FF98C0EAFFD890E936EA3681
:10056000820EE926000EEA22EE6AED6A972B000E53
:100570009823E6D7976B986B060E98AF02D0D89069
:1005800003D0975D000E985904E2972B000E982334
:10059000F3D7976B986B060E98AF02D0D89003D024
:1005A000975D000E985904E2972B000E9823F3D71D
:1005B000976B986B040E98AF02D0D89003D0975DDC
:1005C000000E985947E297C0E9FF98C0EAFFD8901B
:1005D000E936EA36C70EE926000EEA22EECF10F021
:1005E000EFCF11F011C010F0116A97C0E9FF98C069
:1005F000EAFFD890E936EA36BF0EE926000EEA2275
:1006000010C0EFFF97C0E9FF98C0EAFFD890E93625
:10061000EA36C70EE926000EEA22EECF10F0EFCF41
:1006200011F0FF0E1016000E111697C0E9FF98C0CA
:10063000EAFFD890E936EA36010EE926000EEA22F2
:10064000BF0EE926000EEA2210C0EFFF972B000E26
:100650009823B0D7976B986B020E98AF02D0D890C2
:1006600003D0975D000E98594BE2040EEA6A972575
:10067000E96E9851EA22D890E936EA36C70EE926A3
:10068000000EEA22EECF10F0EFCF11F011C010F003
:10069000116A97C0E9FF98C0EAFFD890E936EA36B8
:1006A000BF0EE926000EEA2210C0EFFF040EEA6A30
:1006B0009725E96E9851EA22D890E936EA36C70EB6
:1006C000E926000EEA22EECF10F0EFCF11F0FF0E78
:1006D0001016000E111697C0E9FF98C0EAFFD890D7
:1006E000E936EA36010EE926000EEA22BF0EE926B7
:1006F000000EEA2210C0EFFF972B000E9823ACD714
:10070000480EE66EE5DAE55207C0A6F008C0A7F08D
:1007100009C0A8F0580EE66EDBDAE55207C0A9F072
:1007200008C0AAF009C0ABF0A9C0E6FFAAC0E6FF66
:10073000ABC0E6FFA6C0E6FFA7C0E6FFA8C0E6FF85
:10074000B6EC07F0106E060EE15E1050A9C0E7F09F
:10075000AAC0E8F0ABC0E9F00001EA6BA6C0F3F074
:10076000A7C0F4F0A8C0F5F0F66BE7C010F0E8C041
:1007700011F0E9C012F0EAC013F0180ED89013324D
:10078000123211321032E806F9E110500001BF6F49
:10079000E9C010F0EAC011F00001126A136A1050AB
:1007A0000001C06FE8C010F0E9C011F0EAC012F01B
:1007B0000001136A10500001C16FE751C26FE66A71
:1007C000040EE66EBF0EE66E000EE66E79C0E6FF22
:1007D0007AC0E6FF7BC0E6FF7CC0E6FF58EC09F07C
:1007E000106E080EE15E1050000901E1E8D7F3C079
:1007F00010F0F4C011F0F5C012F0F6C013F0180EAE
:10080000D8901332123211321032E806F9E110504A
:100810000001BF6FF5C010F0F6C011F00001126AC0
:10082000136A10500001C06FF4C010F0F5C011F051
:10083000F6C012F00001136A10500001C16FF351AD
:10084000C26FE66A040EE66EBF0EE66E000EE66E3E
:1008500075C0E6FF76C0E6FF77C0E6FF78C0E6FF2A
:1008600058EC09F0106E080EE15E1050000901E12D
:10087000E8D74FD51200D9CFE6FFE1CFD9FFFD0E63
:10088000DB0409E1FE0EDBCFE6FFA3EC0FF0E5523F
:100890009EA8FED70CD0FD0EDB50020808E1FE0E2C
:1008A000DBCFE6FF8CEC0FF0E552A4A8FED7E552B3
:1008B000E7CFD9FF1200D9CFE6FFE1CFD9FF020E73
:1008C000E126FE0EDB50E824DF6EFC0EDBCF10F0DD
:1008D000FD0EDBCF11F011C010F0116A010E10C037
:1008E000DBFF14EC10F0C580C5B0FED7C5B0FED755
:1008F000A1B63DD0DFCFE6FFC0EC0EF0E552000917
:1009000000E014EC10F0C5BC06D0E66AC0EC0EF0B6
:10091000E552000900E014EC10F0C5BC08D0010E4F
:10092000DBCFE6FFC0EC0EF0E552000900E0FF0E61
:10093000E76EFC0EDBCF10F0FD0EDBCF11F0E750C1
:100940001016116A010E10C0DBFF14EC10F0C5BCCC
:1009500009D0010EDBCFE6FFC0EC0EF0E552000936
:1009600000E005D014EC10F0C584C5B4FED714EC3B
:1009700010F0C584C5B4FED7C5B4FED7A1A600D07B
:10098000070E106E020EE15C03E200D0E16AE55250
:10099000E16E1050E552E7CFD9FF1200D9CFE6FF44
:1009A000E1CFD9FF040EE126FE0EDB50E824DF6E16
:1009B00014EC10F0C580C5B0FED7C5B0FED7A1A617
:1009C00005D0010EF36EF46A8FD016D0DFCFE6FFAC
:1009D000C0EC0EF0E552000900E014EC10F0C5BCCC
:1009E0000BD0020EE66EC0EC0EF0E552000904E0FA
:1009F000020EF36EF46A78D014EC10F0C584C5B41E
:100A0000FED7C5B4FED7A1A604D0060EF36EF46AD5
:100A10006BD0FE0EDB50E8240109DF6E14EC10F001
:100A2000C580C5B0FED7C5B0FED7A1A605D0010EC2
:100A3000F36EF46A59D040D0DFCFE6FFC0EC0EF081
:100A4000E552000900E014EC10F0C5BC35D0FEEC16
:100A50000FF0E76E030EE7CFDBFFDB50E66ED950F9
:100A6000010FE96EDACFEAFFE552E750EE6EED6A6C
:100A7000C59AC588C5B8FED7FEEC0FF0E76E030E29
:100A8000E7CFDBFFC58AC588C5B8FED7010EDBCF2F
:100A900012F0020EDBCF13F012C013F0126A030E35
:100AA000DB5000011210106E13C011F0010E10C0C7
:100AB000DBFF020E11C0DBFF14EC10F0C584C5B4DF
:100AC000FED7C5B4FED7A1A604D0060EF36EF46A15
:100AD0000BD0010EDBCF10F0020EDBCF11F010C0F7
:100AE000F3FF11C0F4FF00D0040EE15C02E2E16A02
:100AF000E552E16EE552E7CFD9FF1200D9CFE6FF0C
:100B0000E1CFD9FF020EE126EC0EDF6EDE521E0EA3
:100B1000DD6E14EC10F0C580C5B0FED7C5B0FED7B1
:100B2000A1A602D01CD014D0DFCFE6FFC0EC0EF09F
:100B3000E552000900E014EC10F0C5BC09D0010E2C
:100B4000DBCFE6FFC0EC0EF0E552000901E007D074
:100B500014EC10F0C5BC03D0C584C5B4FED7020E9A
:100B6000E15C02E2E16AE552E16EE552E7CFD9FFCE
:100B70001200D9CFE6FFE1CFD9FF040EE126EC0E3B
:100B8000DF6EFE0EDB50E76E010EE7CFDBFF14ECED
:100B900010F0C580C5B0FED7C5B0FED7A1A605D060
:100BA000010EF36EF46A8AD017D0DFCFE6FFC0ECF7
:100BB0000EF0E552000900E014EC10F0C5BC0CD0BA
:100BC000010EDBCFE6FFC0EC0EF0E552000904E0B9
:100BD000020EF36EF46A72D014EC10F0C5BC03D0B0
:100BE000C584C5B4FED714EC10F0C580C5B0FED7DF
:100BF000C5B0FED7A1A605D0010EF36EF46A5ED093
:100C00005DD0010EDF10E66EC0EC0EF0E55200097B
:100C100000E014EC10F0C5BC4DD0FEEC0FF0E66E19
:100C2000D950020FE96EDACFEAFFE552E750EE6ED7
:100C3000ED6AC59AC588C5B8FED7020EDBCF12F0A3
:100C4000030EDBCF13F012C013F0126A12C0E6FFDE
:100C500013C0E6FFFEEC0FF0E552E7CF13F0E552CC
:100C6000E7CF12F000011210106E13C011F0020E47
:100C700010C0DBFF030E11C0DBFFC58AC588C5B8F5
:100C8000FED714EC10F0C584C5B4FED7C5B4FED7AA
:100C9000A1A604D0060EF36EF46A10D0020EDBCFCC
:100CA00010F0030EDBCF11F010C0F3FF11C0F4FF02
:100CB00005D004D0070EF36EF46A00D0040EE15C98
:100CC00002E2E16AE552E16EE552E7CFD9FF120098
:100CD000D9CFE6FFE1CFD9FF050EE126EC0EDF6E9E
:100CE000FE0EDB50E76E010EE7CFDBFF020EDB6A84
:100CF000030EDB6A040EDB6A14EC10F0C580C5B08D
:100D0000FED7C5B0FED7A1A606D0010E076E086AB1
:100D1000096A22D118D0DFCFE6FFC0EC0EF0E55211
:100D2000000900E014EC10F0C5BC0DD0010EDBCFC3
:100D3000E6FFC0EC0EF0E552000905E0020E076E7A
:100D4000086A096A09D114EC10F0C5BC03D0C58447
:100D5000C5B4FED714EC10F0640EE66ED0EC0FF0C4
:100D6000E552C580C5B0FED7C5B0FED7A1A606D056
:100D7000030E076E086A096AEFD016D0DFCFE6FFD0
:100D8000C0EC0EF0E552000900E014EC10F0C5BC18
:100D90000BD0E66AC0EC0EF0E552000905E0040E47
:100DA000076E086A096AD8D014EC10F0C5BC03D0ED
:100DB000C584C5B4FED714EC10F0C580C5B0FED70D
:100DC000C5B0FED7A1A606D0050E076E086A096A4F
:100DD000C3D0C2D0010EDF10E66EC0EC0EF0E552BB
:100DE000000900E014EC10F0C5BCB1D0FEEC0FF02F
:100DF000106E116A126A020E10C0DBFF030E11C0E2
:100E0000DBFF040E12C0DBFFC59AC588C5B8FED74C
:100E1000080E166ED950020FE96EDACFEAFF1650AF
:100E20001F0BEECF13F0EECF14F0EECF15F006E06F
:100E3000D890133614361536E806FAE113C0E6FFEB
:100E400014C0E6FF15C0E6FFFEEC0FF0E552E7CF59
:100E500015F0E552E7CF14F0E552E7CF13F0176E27
:100E6000186A196A13501710106E14501810116E6A
:100E700015501910126E020E10C0DBFF030E11C0C8
:100E8000DBFF040E12C0DBFFC59AC588C5B8FED7CC
:100E9000080E166ED950020FE96EDACFEAFF16502F
:100EA0001F0BEECF13F0EECF14F0EECF15F006E0EF
:100EB000D890133614361536E806FAE113C0E6FF6B
:100EC00014C0E6FF15C0E6FFFEEC0FF0E552E7CFD9
:100ED00015F0E552E7CF14F0E552E7CF13F0176EA7
:100EE000186A196A13501710106E14501810116EEA
:100EF00015501910126E020E10C0DBFF030E11C048
:100F0000DBFF040E12C0DBFFC58AC588C5B8FED75B
:100F100014EC10F0C584C5B4FED7C5B4FED7A1A6A5
:100F200005D0060E076E086A096A16D0020EDBCFDE
:100F300010F0030EDBCF11F0040EDBCF12F010C067
:100F400007F011C008F012C009F006D005D0070E56
:100F5000076E086A096A00D0050EE15C02E2E16AE8
:100F6000E552E16EE552E7CFD9FF1200D9CFE6FF97
:100F7000E1CFD9FFDDC010F0DEC011F010C011F0DC
:100F8000106A126AD950F90FE96EFF0EDA20EA6E84
:100F90001050EE5C0001E36F1150EE58E46F1250F8
:100FA000EE58E56FE66BDFC010F0E0C011F0126A9A
:100FB000136AE3C006F0E4C007F0E5C008F0E6C03D
:100FC00009F010C00BF011C00CF012C00DF013C0EE
:100FD0000EF0F9EC0EF002C0E7F003C0E8F004C038
:100FE000E9F005C0EAF00B6A0C6A800E0D6E0E6A1D
:100FF000E7C006F0E8C007F0E9C008F0EAC009F071
:10100000E3EC0DF006C0E7F007C0E8F008C0E9F037
:1010100009C0EAF0D00E0001E727070EE823000E12
:10102000E923EA23D7C010F0D8C011F0126A100EDD
:10103000D890103611361236E806FAE1136A12BE5D
:101040001368DBC014F0DCC015F0166A176A14C010
:1010500006F015C007F016C008F017C009F0E3C08D
:101060000BF0E4C00CF0E5C00DF0E6C00EF0F9ECBA
:101070000EF002C006F003C007F004C008F005C07F
:1010800009F0800E0B6E0C6A0D6A0E6AE3EC0DF02F
:10109000105006240001EB6F11500720EC6F125026
:1010A0000820ED6F13500920EE6FD5C010F0D6C0A8
:1010B00011F0126A0F0ED890103611361236E8066B
:1010C000FAE1136A12BE1368D9C014F0DAC015F041
:1010D000166A176A14C006F015C007F016C008F0AB
:1010E00017C009F0E3C00BF0E4C00CF0E5C00DF050
:1010F000E6C00EF0F9EC0EF002C006F003C007F0F7
:1011000004C008F005C009F00B6A010E0C6E0D6AF0
:101110000E6AE3EC0DF0105006240001EF6F115041
:101120000720F06F12500820F16F13500920F26F62
:10113000FC0EDBCF10F0FD0EDBCF11F0FE0EDBCF8F
:1011400012F0136A10C006F011C007F012C008F0C8
:1011500013C009F0EFC00BF0F0C00CF0F1C00DF0BF
:10116000F2C00EF0F9EC0EF002C006F003C007F07A
:1011700004C008F005C009F00B6A0C6A200E0D6E61
:101180000E6AE3EC0DF00001EB51065CF36FEC51DD
:101190000758F46FED510858F56FEE510958F66F86
:1011A0000B6A200E0C6E0D6A0E6AF3C006F0F4C0D6
:1011B00007F0F5C008F0F6C009F0E3EC0DF006C04A
:1011C000F3F007C0F4F008C0F5F009C0F6F0E552FE
:1011D000E7CFD9FF1200926A080E936E946A0F014E
:1011E0005D6B5C6B10EC09F0D40EE66E55EC0FF005
:1011F000E552F28EF28CE66A080EE66E71EC0FF0A4
:10120000E552E552C68AC868120020EC10F01BECCB
:1012100010F0000901E0FBD70BEC10F000D0120039
:10122000800EE66ECCDAE5520E01436BFB0E446F86
:10123000060E456F200E706E729E728C606A0F01F2
:10124000306B0E01806B906BA06BB06BC06BD06B82
:10125000E00E7D6FE06BE16B0E0EE46FA00EE56FAC
:101260000E0EE86F800EE96F080EEC6FED6BF06FFD
:10127000600EF16F1F0E466F476B100E716F230EDD
:10128000726F410E736F746B756B766B776B786BE7
:10129000796B040E7A6F7B6B7B6BF869E00EF96FEC
:1012A000F997FC6BFD6BFD97E66A89DAE55212004F
:1012B000D9CFE6FFE1CFD9FF1A0EE126D950060FAC
:1012C000E96EDACFEAFF200EEE6E0F0EED6ED9500A
:1012D000080FE96EDACFEAFF100EEE6E0F0EED6E1C
:1012E000D9500A0FE96EDACFEAFF000EEE6E0F0E4C
:1012F000ED6ED9500C0FE96EDACFEAFF800EEE6E7C
:101300000E0EED6ED9500E0FE96EDACFEAFF900E99
:10131000EE6E0E0EED6ED950100FE96EDACFEAFFC9
:10132000A00EEE6E0E0EED6ED950120FE96EDACFF2
:10133000EAFFB00EEE6E0E0EED6ED950140FE96E90
:10134000DACFEAFFC00EEE6E0E0EED6ED950160F1C
:10135000E96EDACFEAFFD00EEE6E0E0EED6E0E01E4
:101360007D417F0BE76E190EE7CFDBFFDF6ADF50B1
:10137000080801E2E4D0D950060F106EDACF11F060
:10138000DF50020D1050F324E96E1150F420EA6E84
:10139000020EEECFDBFF030EEDCFDBFF020EDBCF45
:1013A00008F0030EDBCF09F0040E08C0DBFF050ECA
:1013B00009C0DBFFDF50020810E2190EDBCFF3FF9C
:1013C000F390F342F3CFDBFFD950190FE96EDACF78
:1013D000EAFFEF50010B01E1B0D0020EDBCFE9FFD5
:1013E000030EDBCFEAFFEF50080B01E0A6D0FC0EA6
:1013F000106E020EDBCFE9FF030EDBCFEAFF1050C9
:10140000EF16F70EDB50030B106E020EDBCFE9FF79
:10141000030EDBCFEAFF1050EF12F70EDBAC08D063
:10142000F80EDB504009E76E180EE7CFDBFF06D061
:10143000F80EDB50E76E180EE7CFDBFF050EE76E08
:10144000020EDBCFE9FF030EDBCFEAFFE750E92610
:10145000000EEA22180EDBCFEFFFF70EDBAA06D054
:10146000010EF36E180EF3CFDBFF02D0180EDB6A0D
:10147000DBCFE6FFD950FB0FE96EFF0EDA20EA6EF4
:10148000EECFE6FFEECFE6FFEECFE6FFEFCFE6FFD3
:10149000010EE76E020EDBCF10F0030EDBCF11F072
:1014A000E7501026000E112210C0E6FF11C0E6FF23
:1014B0009BD9126E070EE15E1250D950020FE96EF1
:1014C000DACFEAFF060EEE26000EED22010EDB6AF1
:1014D000F80EDB50F36E010EDBCFF4FFF350F45C3B
:1014E0001AE2F90EDBCFE9FFDB2AFA0EDBCFEAFFC7
:1014F00001E3DB2AEF50E66E020EDBCFE9FFDB2AC9
:10150000030EDBCFEAFF01E3DB2AE552E750EF6E83
:10151000010EDB2ADDD7040EDBCFE9FF050EDBCFA2
:10152000EAFFEF50040B07E1040EDBCFE9FF050EE5
:10153000DBCFEAFFEF86010E04D0DF2A18D7000EBA
:1015400000D0106E1A0EE15C02E2E16AE552E16E33
:101550001050E552E7CFD9FF1200D9CFE6FFE1CF17
:10156000D9FF060EE1260001FD6B60AE05D0600ECE
:10157000DE6E0F0EDD6E4DD00F0130AF05D0300E98
:10158000DE6E0F0EDD6E45D00E017D51040B08E1BD
:101590008051800B05E0800EDE6E0E0EDD6E39D0C0
:1015A0007D51080B08E19051800B05E0900EDE6E36
:1015B0000E0EDD6E2ED07D51100B08E1A051800B78
:1015C00005E0A00EDE6E0E0EDD6E23D07D51200BE9
:1015D00008E1B051800B05E0B00EDE6E0E0EDD6E40
:1015E00018D07D51400B08E1C051800B05E0C00EC2
:1015F000DE6E0E0EDD6E0DD07D51800B08E1D051F8
:10160000800B05E0D00EDE6E0E0EDD6E02D0000EF9
:10161000CAD0DECFE9FFDDCFEAFFEF501F0B00019C
:10162000FD6F779271AC09D000D0F70EDBCFE9FFE8
:10163000F80EDBCFEAFFEF86719CD9CFE9FFDACF56
:10164000EAFF020EEECFDBFF030EEDCFDBFFF70E5E
:10165000DBCFE9FFF80EDBCFEAFFEF6ADECFE9FF71
:10166000DDCFEAFF050EE926000EEA22050EEFCFD8
:10167000DBFFDB500F0BE66EF90EDBCFE9FFFA0E56
:10168000DBCFEAFFE552E750EF6ED950050FE96E68
:10169000DACFEAFFEF50400B07E0F70EDBCFE9FFB0
:1016A000F80EDBCFEAFFEF8CDECFE9FFDDCFEAFFFC
:1016B000020EE926000EEA22050EEFCFDBFFD9501D
:1016C000050FE96EDACFEAFFEF50080B0DE0F70ED9
:1016D000DBCFE9FFF80EDBCFEAFFEF8A010EF36EF6
:1016E000050EF3CFDBFF02D0050EDB6ADBCFE6FF92
:1016F000FD0EDBCFE6FFFE0EDBCFE6FFDECF10F008
:10170000DDCF11F0010E1026000E112210C0E6FFF1
:1017100011C0E6FF49D9126E050EE15E1250060EA9
:10172000DE26000EDD22F90EDBCFE9FFFA0EDBCF5D
:10173000EAFF050EEFCFDBFF040EDB6A050EDB5080
:10174000F36E040EDBCFF4FFF350F45C19E2DFCF4D
:10175000E9FFDF2A010EDBCFEAFF01E3DB2AEF50CE
:10176000E66EFB0EDBCFE9FFDB2AFC0EDBCFEAFFE8
:1017700001E3DB2AE552E750EF6E040EDB2ADED7E9
:1017800077AE08D0F70EDBCFE9FFF80EDBCFEAFF2C
:10179000EF88779E020EDBCFE9FF030EDBCFEAFF77
:1017A000EF9E010E00D0106E060EE15C02E2E16ACF
:1017B000E552E16E1050E552E7CFD9FF1200D9CFC4
:1017C000E6FFE1CFD9FF1F0E6F16FE0EDB506F1242
:1017D000E00E6F14106EFE0EDB50105C01E0F8D7C7
:1017E000E552E7CFD9FF1200D9CFE6FFE1CFD9FF0D
:1017F000020EE126D950F90F106EFF0EDA20116E9D
:1018000010C0DEFF11C0DDFFF80EDB503BE1DECF84
:10181000E9FFDDCFEAFFEF50E840E840E8401F0B6A
:10182000E66EFD0EDBCFE9FFFE0EDBCFEAFFE552F1
:10183000E750EF6EDECFE9FFDDCFEAFFEE52EF506B
:10184000200DF3CF10F0FD0EDBCFE9FFFE0EDBCF56
:10185000EAFF1050EF12FD0EDB2AFE0E01E3DB2A39
:10186000DECFE9FFDDCFEAFFEF50200DF350E66E4B
:10187000FD0EDBCFE9FFFE0EDBCFEAFFE552E750BE
:10188000EF6E88D0DECFE9FFDDCFEAFF020EE9265A
:10189000000EEA22EF50E00BE838E840E66EFD0E5D
:1018A000DBCFE9FFFE0EDBCFEAFFE552E750EF6E3C
:1018B000DECFE9FFDDCFEAFF030EE926000EEA22C4
:1018C000EF50080DF3CF10F0FD0EDBCFE9FFFE0E59
:1018D000DBCFEAFF1050EF12FD0EDB2AFE0E01E314
:1018E000DB2ADECFE9FFDDCFEAFF020EE926000E9C
:1018F000EA22EF50080DF350E00BE66EFD0EDBCF51
:10190000E9FFFE0EDBCFEAFFE552E750EF6EFD0E7A
:10191000DBCFE9FFFE0EDBCFEAFFEF86DECFE9FF8C
:10192000DDCFEAFF020EE926000EEA22EF50030B9C
:10193000106EFD0EDBCFE9FFFE0EDBCFEAFF10508D
:10194000EF12FD0EDB2AFE0E01E3DB2ADECFE9FFFC
:10195000DDCFEAFFEE52EF50E66EFD0EDBCFE9FF82
:10196000FE0EDBCFEAFFE552E750EF6EFD0EDB2AFD
:10197000FE0E01E3DB2ADECFE9FFDDCFEAFFEF5009
:10198000E66EFD0EDBCFE9FFFE0EDBCFEAFFE55290
:10199000E750EF6E020EE15C02E2E16AE552E16EB1
:1019A000E552E7CFD9FF1200D9CFE6FFE1CFD9FF4B
:1019B000020EE126FB0EDBCFDEFFDBCFDDFFFA0EF2
:1019C000DB504DE1FD0EDBCFE9FFFE0EDBCFEAFF82
:1019D000EF50080DF350E66EDECFE9FFDDCFEAFFF2
:1019E000E552E750EF6EFD0EDBCFE9FFFE0EDBCFD9
:1019F000EAFFEF50E00BE838E840E66EDECFE9FFA3
:101A0000DDCFEAFFEE52E552E750EF6EFD0EDB2A26
:101A1000FE0E01E3DB2AFD0EDBCFE9FFFE0EDBCF7E
:101A2000EAFFEF50E00BE838E840106EDECFE9FF48
:101A3000DDCFEAFF1050EF12DECFE9FFDDCFEAFF86
:101A4000020EE926000EEA22EF6ADECFE9FFDDCFC3
:101A5000EAFF030EE926000EEA22EF6A84D0FD0EAB
:101A6000DBCFE9FFFE0EDBCFEAFFEF50200DF35096
:101A7000E66EDECFE9FFDDCFEAFF020EE926000EBB
:101A8000EA22E552E750EF6EFD0EDBCFE9FFFE0ED6
:101A9000DBCFEAFFEF50E840E840E8401F0BE66E7E
:101AA000DECFE9FFDDCFEAFF030EE926000EEA22D2
:101AB000E552E750EF6EFD0EDB2AFE0E01E3DB2A56
:101AC000FD0EDBCFE9FFFE0EDBCFEAFFEF50030B8D
:101AD000106EDECFE9FFDDCFEAFF020EE926000E31
:101AE000EA221050EF12FD0EDBCFE9FFFE0EDBCF36
:101AF000EAFFEF50E00BE840E840E8401F0B106EB3
:101B0000DECFE9FFDDCFEAFF020EE926000EEA2272
:101B10001050EF12FD0EDB2AFE0E01E3DB2AFD0E54
:101B2000DBCFE9FFFE0EDBCFEAFFEF50E66EDECF44
:101B3000E9FFDDCFEAFFEE52E552E750EF6EFD0E12
:101B4000DB2AFE0E01E3DB2AFD0EDBCFE9FFFE0EF2
:101B5000DBCFEAFFEF50E66EDECFE9FFDDCFEAFF35
:101B6000E552E750EF6E020EE15C02E2E16AE552F7
:0A1B7000E16EE552E7CFD9FF120045
:061B7A00006A0EAEC6EF8A
:101B80000DF00D6C0E1EE86A0E22001E09AECEEF9F
:101B90000DF0086C091EE86A0922001EBAEC0FF06D
:101BA00009BEDEEF0DF000AE000C086C091EE86AFD
:101BB0000922046C051EE86A0522000C00BED5EF60
:101BC0000DF00188FF0C006AE86A0EAEF0EF0DF030
:101BD0000B6C0C1E0D1E0E1E0C220D220E22001E62
:101BE00009AEFBEF0DF0066C071E081E091E07224A
:101BF00008220922001E31EC0FF009BE12EF0EF090
:101C000000AE000C066C071E081E091EE86A0722BB
:101C100008220922026C031E041E051E0322042250
:0E1C20000522000C00BE02EF0EF00188FF0C42
:021C2E000001B3
:101C3000F76BF86B1200D9CFE6FFE1CFD9FFE65280
:101C4000DF6ADFCF10F0060EE76E1018E8AE02D0A4
:101C5000E73402D0E750105C29E2DFCF10F0116AC0
:101C600010BE1168D89010361136FB0EDB501024D0
:101C7000E96EFC0EDB501120EA6EEECFE6FFEFCFEF
:101C8000E6FFDFCF12F0136A12BE1368FD0EDB50C1
:101C90001224E96EFE0EDB501320EA6EEF50E66E62
:101CA0000AD8E552E552E552DF2ACBD7E552E55294
:101CB000E7CFD9FF1200D9CFE6FFE1CFD9FFE65237
:101CC000050EDF6EDF5000D0E552E552E7CFD9FFB9
:101CD0001200D9CFE6FFE1CFD9FFE552E7CFD9FF18
:021CE0001200F0
:0E1CE2000E0EF66E000EF76E000EF86E0E017E
:101CF0000900F550056F0900F550066F03E105670F
:101D000001D03DD00900F550006F0900F550016F7A
:101D10000900F550026F09000900F550E96E09004D
:101D2000F550EA6E090009000900F550036F09003B
:101D3000F550046F09000900F6CF07FEF7CF08FE43
:101D4000F8CF09FE00CEF6FF01CEF7FF02CEF8FF76
:101D50000E01035302E1045307E00900F550EE6E53
:101D60000307F8E20407F9D707CEF6FF08CEF7FF1E
:101D700009CEF8FF0E010507000E065BBFD7120063
:101D8000D9CFE6FFDACFE6FFE1CFD9FFE2CFDAFF26
:101D9000FD0EDB50C96EC6AE02D0FF0E24D00F0E72
:101DA000C61408080FE00F0EC6140B080BE0C68817
:101DB0009EA6FED7C750040B03E1C750010B10E0ED
:101DC000000E11D00F0EC614080804E00F0EC61442
:101DD0000B0809E1C7B0FED714EC10F0C5AC02D077
:101DE000FE0E01D0000EE552E5CFDAFFE7CFD9FFB6
:021DF0001200DF
:0E1DF20006500B02F3CF02F0F4CF03F00C0208
:101E0000F3500326000EF420046E06500D02F3502A
:101E10000426000EF420056E06500E02F35005262F
:101E200007500B02F3500326F4500422000E052243
:101E300007500C02F3500426F450052207500D02FF
:101E4000F350052608500B02F3500426F4500522E7
:101E500008500C02F350052609500B02F3500526DA
:021E600012006E
:0E1E6200056A046A036A026A200EE76ED890D1
:101E70000636073608360936023603360436053686
:101E80000B50025C0C5003580D5004580E5005586E
:101E900009E30B50025E0C50035A0D50045A0E50C9
:0A1EA000055A062AE72EE4D71200C7
:061EAA00D9CFE6FFDACFFC
:101EB000E6FFE1CFD9FFE2CFDAFFFD0EDB507F0B6B
:101EC000D56ED76AD66AF294FD0EDBAE02D0F28AE6
:101ED00001D0F29AD58EE552E5CFDAFFE7CFD9FFF0
:021EE0001200EE
:0E1EE200D9CFE6FFDACFE6FFE1CFD9FFE2CF9E
:101EF000DAFF3F0EC716C66AC56AFD0EDB50C61272
:101F0000FC0EDB50C71294869488C68AE552E5CF52
:081F1000DAFFE7CFD9FF120050
:081F1800D9CFE6FFDACFE6FFA6
:101F2000E1CFD9FFE2CFDAFFBAAC04D0BA9000011A
:101F3000FBB3BA80FD0EDB50796EE552E5CFDAFFD8
:061F4000E7CFD9FF1200FB
:0A1F4600D9CFE6FFDACFE6FFE1CFC6
:101F5000D9FFE2CFDAFFACAC04D0AC900001FCB307
:101F6000AC80FD0EDB50AD6EE552E5CFDAFFE7CF7A
:041F7000D9FF120083
:0C1F7400056A046A100EE76ED89008366B
:101F80000936043605360D50045C0E50055805E33D
:101F90000D50045E0E50055A082AE72EF0D71200A5
:101FA000FF0EE3501A6E480E01D04C0EE76EE72E7E
:101FB000FED7E76AE72EFED71A2EF7D700001200E9
:101FC000410EF36E00EE00F00E0E01D81200EA6032
:101FD00002D0EE6AFCD7F350E9601200EE6AFCD73B
:101FE0001DEE00F02DEE00F0F86A019C71EC0EF091
:0C1FF00003EC00F044EC00F0FBD7120002
:041FFC000F0EC614EA
:10200000080804E00F0EC6140B0801E1C586C7A03E
:06201000FED7C9501200CA
:0A201600C450136E126AC35012107A
:08202000F36E13C0F4FF12007F
:082028001F0EC514FDE1C750B5
:06203000040BFAE11200AE
:0A203600C250020B01E0010E12007F
:04204000C282120046
:0C20440008000100000000000010001166
:102050000012000000130000001400000015000032
:1020600000160000001E000000000000000000003C
:1020700000000000505152535455000000A0A2A48B
:10208000A6A8AAACDEADBEAF0000000000000000B4
:072090000000000000000049
:020000040030CA
:0100000015EA
:0100010012EC
:010005008971
:00000001FF
