:020000040000FA
:060000001CEF0DF01200E0
:020006001200E6
:060008000EEF00F01200F3
:02000E000100EF
:0C0010007C1A0000000E0000340000000C
:04001C00D8CFE4FF56
:10002000E0CFE4FFE46EDACFE4FFE2CFDAFFE6529E
:10003000F2A421D0F2940E01032B000E0423052B11
:100040000623072B3D0E04AF02D0D89003D0035DEA
:10005000000E045904E3036B046B010E016FD8908A
:10006000065104E6620E055D020E065904E3056BB7
:10007000066B010E026FE552E5CFDAFFE550E5CFE2
:10008000E0FFE5CFD8FF1000926A080E936E946AE5
:100090000F015D6B5C6B88EC06F0D40EE66EA7EC8E
:1000A0000CF0E552F28EF28CE66A080EE66EC3ECB6
:1000B0000CF0E552E552C68A320EC86E0E01276B6F
:1000C000286B060E28AF02D0D89003D0275D000E13
:1000D000285914E2000EE66EE66A200E2725E96E26
:1000E0000E0E2821EA6EEF50E66E8DD9E552E552EC
:1000F000E5520E01272B000E2823E3D76B0EE66E88
:10010000000EE66E6A0EE66E000EE66E620EE66E9B
:10011000000EE66E600EE66E000EE66E25EC08F050
:10012000106E080EE15E1050000901E1EFD04B0E99
:100130000001601901E1615101E17FD0740E601985
:1001400001E1615101E0E2D0E66A040EE66E300E94
:10015000E66E0E0EE66EE668E66AE66AE66AD0ECE1
:1001600006F0106E080EE15E1050000901E1ECD7B8
:100170000E01276B286B040E28AF02D0D89003D055
:10018000275D000E285957E227CEE9FF28CEEAFF67
:10019000D890E936EA36620EE926000EEA22EF50E0
:1001A000E66E27CEE9FF28CEEAFFD890E936EA3698
:1001B000740EE926000EEA22E552E750EE6EED6A73
:1001C00027CEE9FF28CEEAFFD890E936EA36740E4A
:1001D000E926000EEA22EECF12F0EFCF13F012C0A4
:1001E00013F0126A27CEE9FF28CEEAFFD890E9364D
:1001F000EA36010EE926000EEA22620EE926000E1A
:10020000EA22EF5000011210106E13C011F027CE39
:10021000E9FF28CEEAFFD890E936EA36740EE926DF
:10022000000EEA2210C0EEFF11C0EDFF0E01272BD9
:10023000000E2823A0D7076B69D00E01276B286B0F
:10024000020E28AF02D0D89003D0275D000E2859A7
:100250005BE227CEE9FF28CEEAFFD890E936EA36FE
:10026000620EE926000EEA22EF50E66E040EEA6AFC
:100270002725E96E2851EA22D890E936EA36740E2D
:10028000E926000EEA22E552E750EE6EED6A27CE2F
:10029000E9FF28CEEAFFD890E936EA36740EE9265F
:1002A000000EEA22EECF12F0EFCF13F012C013F0DF
:1002B000126A27CEE9FF28CEEAFFD890E936EA365F
:1002C000010EE926000EEA22620EE926000EEA225D
:1002D000EF5000011210106E13C011F0040E0E0149
:1002E000EA6A2725E96E2851EA22D890E936EA36EB
:1002F000740EE926000EEA2210C0EEFF11C0EDFFD9
:10030000272B000E28239CD7076B00D00E0102512B
:1003100002E0026B8270015154E0016BE66A040E48
:10032000E66E300EE66E0E0EE66EE668E66AE66A89
:10033000E66AD0EC06F0106E080EE15E105000097F
:1003400001E1ECD70E011D51D88007550FE2276B54
:10035000286B060E28AF02D0D89003D0275D000E80
:10036000285904E2272B000E2823F3D7276B286B8C
:10037000060E28AF02D0D89003D0275D000E285972
:1003800020E227CEE9FF28CEEAFFD890E936EA3608
:10039000740EE926000EEA22EECFE6FFEFCFE6FF6D
:1003A000200E2725E96E0E0E2821EA6EEF50E66E2C
:1003B0002AD8E552E552E5520E01272B000E2823DC
:1003C000D7D79CD61200D9CFE6FFE1CFD9FFFD0EDB
:1003D000DB0409E1FE0EDBCFE6FFF5EC0CF0E552A5
:1003E0009EA8FED70CD0FD0EDB50020808E1FE0EE1
:1003F000DBCFE6FFDEEC0CF0E552A4A8FED7E55219
:10040000E7CFD9FF1200D9CFE6FFE1CFD9FF020E27
:10041000E126FE0EDB50E824DF6EFC0EDBCF10F091
:10042000FD0EDBCF11F011C010F0116A010E10C0EB
:10043000DBFF37EC0DF0C580C5B0FED7C5B0FED7E9
:10044000A1B63DD0DFCFE6FFDEEC0BF0E5520009B0
:1004500000E037EC0DF0C5BC06D0E66ADEEC0BF030
:10046000E552000900E037EC0DF0C5BC08D0010EE4
:10047000DBCFE6FFDEEC0BF0E552000900E0FF0EFB
:10048000E76EFC0EDBCF10F0FD0EDBCF11F0E75076
:100490001016116A010E10C0DBFF37EC0DF0C5BC61
:1004A00009D0010EDBCFE6FFDEEC0BF0E5520009D0
:1004B00000E005D037EC0DF0C584C5B4FED737ECAD
:1004C0000DF0C584C5B4FED7C5B4FED7A1A600D033
:1004D000070E106E020EE15C03E200D0E16AE55205
:1004E000E16E1050E552E7CFD9FF1200D9CFE6FFF9
:1004F000E1CFD9FF040EE126FE0EDB50E824DF6ECB
:1005000037EC0DF0C580C5B0FED7C5B0FED7A1A6AB
:1005100005D0010EF36EF46A8FD016D0DFCFE6FF60
:10052000DEEC0BF0E552000900E037EC0DF0C5BC45
:100530000BD0020EE66EDEEC0BF0E552000904E093
:10054000020EF36EF46A78D037EC0DF0C584C5B4B2
:10055000FED7C5B4FED7A1A604D0060EF36EF46A8A
:100560006BD0FE0EDB50E8240109DF6E37EC0DF096
:10057000C580C5B0FED7C5B0FED7A1A605D0010E77
:10058000F36EF46A59D040D0DFCFE6FFDEEC0BF01B
:10059000E552000900E037EC0DF0C5BC35D02AEC7F
:1005A0000DF0E76E030EE7CFDBFFDB50E66ED950B0
:1005B000010FE96EDACFEAFFE552E750EE6EED6A21
:1005C000C59AC588C5B8FED72AEC0DF0E76E030EB4
:1005D000E7CFDBFFC58AC588C5B8FED7010EDBCFE4
:1005E00012F0020EDBCF13F012C013F0126A030EEA
:1005F000DB5000011210106E13C011F0010E10C07C
:10060000DBFF020E11C0DBFF37EC0DF0C584C5B473
:10061000FED7C5B4FED7A1A604D0060EF36EF46AC9
:100620000BD0010EDBCF10F0020EDBCF11F010C0AB
:10063000F3FF11C0F4FF00D0040EE15C02E2E16AB6
:10064000E552E16EE552E7CFD9FF1200D9CFE6FFC0
:10065000E1CFD9FF020EE1266C0EDF6EDE521E0ED8
:10066000DD6E37EC0DF0C580C5B0FED7C5B0FED746
:10067000A1A602D01CD014D0DFCFE6FFDEEC0BF039
:10068000E552000900E037EC0DF0C5BC09D0010EC1
:10069000DBCFE6FFDEEC0BF0E552000901E007D00E
:1006A00037EC0DF0C5BC03D0C584C5B4FED7020E2F
:1006B000E15C02E2E16AE552E16EE552E7CFD9FF83
:1006C0001200D9CFE6FFE1CFD9FF040EE1266C0E70
:1006D000DF6EFE0EDB50E76E010EE7CFDBFF37EC7F
:1006E0000DF0C580C5B0FED7C5B0FED7A1A605D018
:1006F000010EF36EF46A8AD017D0DFCFE6FFDEEC8E
:100700000BF0E552000900E037EC0DF0C5BC0CD051
:10071000010EDBCFE6FFDEEC0BF0E552000904E052
:10072000020EF36EF46A72D037EC0DF0C5BC03D044
:10073000C584C5B4FED737EC0DF0C580C5B0FED773
:10074000C5B0FED7A1A605D0010EF36EF46A5ED047
:100750005DD0010EDF10E66EDEEC0BF0E552000915
:1007600000E037EC0DF0C5BC4DD02AEC0DF0E66E84
:10077000D950020FE96EDACFEAFFE552E750EE6E8C
:10078000ED6AC59AC588C5B8FED7020EDBCF12F058
:10079000030EDBCF13F012C013F0126A12C0E6FF93
:1007A00013C0E6FF2AEC0DF0E552E7CF13F0E55257
:1007B000E7CF12F000011210106E13C011F0020EFC
:1007C00010C0DBFF030E11C0DBFFC58AC588C5B8AA
:1007D000FED737EC0DF0C584C5B4FED7C5B4FED73F
:1007E000A1A604D0060EF36EF46A10D0020EDBCF81
:1007F00010F0030EDBCF11F010C0F3FF11C0F4FFB7
:1008000005D004D0070EF36EF46A00D0040EE15C4C
:1008100002E2E16AE552E16EE552E7CFD9FF12004C
:10082000D9CFE6FFE1CFD9FF050EE1266C0EDF6ED2
:10083000FE0EDB50E76E010EE7CFDBFF37EC0DF06D
:10084000C580C5B0FED7C5B0FED7A1A606D0010EA3
:10085000076E086A096A1DD118D0DFCFE6FFDEEC0B
:100860000BF0E552000900E037EC0DF0C5BC0DD0EF
:10087000010EDBCFE6FFDEEC0BF0E552000905E0F0
:10088000020E076E086A096A04D137EC0DF0C5BC88
:1008900003D0C584C5B4FED737EC0DF0C580C5B014
:1008A000FED7C5B0FED7A1A606D0010E076E086A16
:1008B000096AEFD016D0DFCFE6FFDEEC0BF0E55291
:1008C000000900E037EC0DF0C5BC0BD0E66ADEECA9
:1008D0000BF0E552000905E0020E076E086A096A8E
:1008E000D8D037EC0DF0C5BC03D0C584C5B4FED755
:1008F00037EC0DF0C580C5B0FED7C5B0FED7A1A6B8
:1009000006D0010E076E086A096AC3D0C2D0010E74
:10091000DF10E66EDEEC0BF0E552000900E037EC8C
:100920000DF0C5BCB1D02AEC0DF0106E116A126A40
:10093000020E10C0DBFF030E11C0DBFF040E12C05D
:10094000DBFFC59AC588C5B8FED7080E166ED9500C
:10095000020FE96EDACFEAFF16501F0BEECF13F04D
:10096000EECF14F0EECF15F006E0D8901336143623
:100970001536E806FAE113C0E6FF14C0E6FF15C01D
:10098000E6FF2AEC0DF0E552E7CF15F0E552E7CF90
:1009900014F0E552E7CF13F0176E186A196A135076
:1009A0001710106E14501810116E15501910126E89
:1009B000020E10C0DBFF030E11C0DBFF040E12C0DD
:1009C000DBFFC59AC588C5B8FED7080E166ED9508C
:1009D000020FE96EDACFEAFF16501F0BEECF13F0CD
:1009E000EECF14F0EECF15F006E0D89013361436A3
:1009F0001536E806FAE113C0E6FF14C0E6FF15C09D
:100A0000E6FF2AEC0DF0E552E7CF15F0E552E7CF0F
:100A100014F0E552E7CF13F0176E186A196A1350F5
:100A20001710106E14501810116E15501910126E08
:100A3000020E10C0DBFF030E11C0DBFF040E12C05C
:100A4000DBFFC58AC588C5B8FED737EC0DF0C58475
:100A5000C5B4FED7C5B4FED7A1A605D0060E076E55
:100A6000086A096A16D0020EDBCF10F0030EDBCF46
:100A700011F0040EDBCF12F010C007F011C008F027
:100A800012C009F006D005D0070E076E086A096A81
:100A900000D0050EE15C02E2E16AE552E16EE5524A
:100AA000E7CFD9FF1200D9CFE6FFE1CFD9FF8EC043
:100AB00010F08FC011F010C011F0106A126AD950F6
:100AC000F90FE96EFF0EDA20EA6E1050EE5C0001BD
:100AD0009A6F1150EE589B6F1250EE589C6F9D6BA1
:100AE00098C010F099C011F0126A136A9AC006F00B
:100AF0009BC007F09CC008F09DC009F010C00BF02F
:100B000011C00CF012C00DF013C00EF017EC0CF079
:100B100002C09EF003C09FF004C0A0F005C0A1F089
:100B20000B6A0C6A800E0D6E0E6A9EC006F09FC0A6
:100B300007F0A0C008F0A1C009F04FEC0CF006C00F
:100B40009EF007C09FF008C0A0F009C0A1F0D00E31
:100B500000019E27070E9F23000EA023A12390C013
:100B600010F091C011F0126A100ED89010361136A4
:100B70001236E806FAE1136A12BE136890C014F048
:100B800091C015F0166A176A14C006F015C007F078
:100B900016C008F017C009F09AC00BF09BC00CF00B
:100BA0009CC00DF09DC00EF017EC0CF002C006F0DA
:100BB00003C007F004C008F005C009F0800E0B6EFA
:100BC0000C6A0D6A0E6A4FEC0CF0105006240001FE
:100BD000A26F11500720A36F12500820A46F13506A
:100BE0000920A56F8EC010F08FC011F0126A0F0E91
:100BF000D890103611361236E806FAE1136A12BEA2
:100C0000136892C014F093C015F0166A176A14C0E6
:100C100006F015C007F016C008F017C009F09AC01A
:100C20000BF09BC00CF09CC00DF09DC00EF017ECBB
:100C30000CF002C006F003C007F004C008F005C0C5
:100C400009F00B6A010E0C6E0D6A0E6A4FEC0CF087
:100C5000105006240001A66F11500720A76F1250F4
:100C60000820A86F13500920A96FFC0EDBCF10F0ED
:100C7000FD0EDBCF11F0FE0EDBCF12F0136A10C0B9
:100C800006F011C007F012C008F013C009F0A6C0AA
:100C90000BF0A7C00CF0A8C00DF0A9C00EF017EC27
:100CA0000CF002C006F003C007F004C008F005C055
:100CB00009F00B6A0C6A200E0D6E0E6A4FEC0CF0F8
:100CC0000001A251065CAA6FA3510758AB6FA45153
:100CD0000858AC6FA5510958AD6F0B6A200E0C6E09
:100CE0000D6A0E6AAAC006F0ABC007F0ACC008F0EF
:100CF000ADC009F04FEC0CF006C0AAF007C0ABF095
:100D000008C0ACF009C0ADF0E552E7CFD9FF120042
:100D1000800EE66ECCDAE5520E01436BFB0E446F9B
:100D2000060E456F200E706E729E728C606A0F0107
:100D3000306B0E01806B906BA06BB06BC06BD06B97
:100D4000E00E7D6FE06BE16B0E0EE46FA00EE56FC1
:100D50000E0EE86F800EE96F080EEC6FED6BF06F12
:100D6000600EF16F1F0E466F476B100E716F230EF2
:100D7000726F410E736F746B756B766B776B786BFC
:100D8000796B040E7A6F7B6B7B6BF869E00EF96F01
:100D9000F997FC6BFD6BFD97E66A89DAE552120064
:100DA000D9CFE6FFE1CFD9FF1A0EE126D950060FC1
:100DB000E96EDACFEAFF200EEE6E0F0EED6ED9501F
:100DC000080FE96EDACFEAFF100EEE6E0F0EED6E31
:100DD000D9500A0FE96EDACFEAFF000EEE6E0F0E61
:100DE000ED6ED9500C0FE96EDACFEAFF800EEE6E91
:100DF0000E0EED6ED9500E0FE96EDACFEAFF900EAF
:100E0000EE6E0E0EED6ED950100FE96EDACFEAFFDE
:100E1000A00EEE6E0E0EED6ED950120FE96EDACF07
:100E2000EAFFB00EEE6E0E0EED6ED950140FE96EA5
:100E3000DACFEAFFC00EEE6E0E0EED6ED950160F31
:100E4000E96EDACFEAFFD00EEE6E0E0EED6E0E01F9
:100E50007D417F0BE76E190EE7CFDBFFDF6ADF50C6
:100E6000080801E2E4D0D950060F106EDACF11F075
:100E7000DF50020D1050F324E96E1150F420EA6E99
:100E8000020EEECFDBFF030EEDCFDBFF020EDBCF5A
:100E900008F0030EDBCF09F0040E08C0DBFF050EDF
:100EA00009C0DBFFDF50020810E2190EDBCFF3FFB1
:100EB000F390F342F3CFDBFFD950190FE96EDACF8D
:100EC000EAFFEF50010B01E1B0D0020EDBCFE9FFEA
:100ED000030EDBCFEAFFEF50080B01E0A6D0FC0EBB
:100EE000106E020EDBCFE9FF030EDBCFEAFF1050DE
:100EF000EF16F70EDB50030B106E020EDBCFE9FF8F
:100F0000030EDBCFEAFF1050EF12F70EDBAC08D078
:100F1000F80EDB504009E76E180EE7CFDBFF06D076
:100F2000F80EDB50E76E180EE7CFDBFF050EE76E1D
:100F3000020EDBCFE9FF030EDBCFEAFFE750E92625
:100F4000000EEA22180EDBCFEFFFF70EDBAA06D069
:100F5000010EF36E180EF3CFDBFF02D0180EDB6A22
:100F6000DBCFE6FFD950FB0FE96EFF0EDA20EA6E09
:100F7000EECFE6FFEECFE6FFEECFE6FFEFCFE6FFE8
:100F8000010EE76E020EDBCF10F0030EDBCF11F087
:100F9000E7501026000E112210C0E6FF11C0E6FF38
:100FA0009BD9126E070EE15E1250D950020FE96E06
:100FB000DACFEAFF060EEE26000EED22010EDB6A06
:100FC000F80EDB50F36E010EDBCFF4FFF350F45C50
:100FD0001AE2F90EDBCFE9FFDB2AFA0EDBCFEAFFDC
:100FE00001E3DB2AEF50E66E020EDBCFE9FFDB2ADE
:100FF000030EDBCFEAFF01E3DB2AE552E750EF6E99
:10100000010EDB2ADDD7040EDBCFE9FF050EDBCFB7
:10101000EAFFEF50040B07E1040EDBCFE9FF050EFA
:10102000DBCFEAFFEF86010E04D0DF2A18D7000ECF
:1010300000D0106E1A0EE15C02E2E16AE552E16E48
:101040001050E552E7CFD9FF1200D9CFE6FFE1CF2C
:10105000D9FF060EE1260E01406B60AE05D0600E92
:10106000DE6E0F0EDD6E4DD00F0130AF05D0300EAD
:10107000DE6E0F0EDD6E45D00E017D51040B08E1D2
:101080008051800B05E0800EDE6E0E0EDD6E39D0D5
:101090007D51080B08E19051800B05E0900EDE6E4B
:1010A0000E0EDD6E2ED07D51100B08E1A051800B8D
:1010B00005E0A00EDE6E0E0EDD6E23D07D51200BFE
:1010C00008E1B051800B05E0B00EDE6E0E0EDD6E55
:1010D00018D07D51400B08E1C051800B05E0C00ED7
:1010E000DE6E0E0EDD6E0DD07D51800B08E1D0510D
:1010F000800B05E0D00EDE6E0E0EDD6E02D0000E0F
:10110000CAD0DECFE9FFDDCFEAFFEF501F0B0E01A3
:10111000406F779271AC09D000D0F70EDBCFE9FFBA
:10112000F80EDBCFEAFFEF86719CD9CFE9FFDACF6B
:10113000EAFF020EEECFDBFF030EEDCFDBFFF70E73
:10114000DBCFE9FFF80EDBCFEAFFEF6ADECFE9FF86
:10115000DDCFEAFF050EE926000EEA22050EEFCFED
:10116000DBFFDB500F0BE66EF90EDBCFE9FFFA0E6B
:10117000DBCFEAFFE552E750EF6ED950050FE96E7D
:10118000DACFEAFFEF50400B07E0F70EDBCFE9FFC5
:10119000F80EDBCFEAFFEF8CDECFE9FFDDCFEAFF11
:1011A000020EE926000EEA22050EEFCFDBFFD95032
:1011B000050FE96EDACFEAFFEF50080B0DE0F70EEE
:1011C000DBCFE9FFF80EDBCFEAFFEF8A010EF36E0B
:1011D000050EF3CFDBFF02D0050EDB6ADBCFE6FFA7
:1011E000FD0EDBCFE6FFFE0EDBCFE6FFDECF10F01D
:1011F000DDCF11F0010E1026000E112210C0E6FF07
:1012000011C0E6FF49D9126E050EE15E1250060EBE
:10121000DE26000EDD22F90EDBCFE9FFFA0EDBCF72
:10122000EAFF050EEFCFDBFF040EDB6A050EDB5095
:10123000F36E040EDBCFF4FFF350F45C19E2DFCF62
:10124000E9FFDF2A010EDBCFEAFF01E3DB2AEF50E3
:10125000E66EFB0EDBCFE9FFDB2AFC0EDBCFEAFFFD
:1012600001E3DB2AE552E750EF6E040EDB2ADED7FE
:1012700077AE08D0F70EDBCFE9FFF80EDBCFEAFF41
:10128000EF88779E020EDBCFE9FF030EDBCFEAFF8C
:10129000EF9E010E00D0106E060EE15C02E2E16AE4
:1012A000E552E16E1050E552E7CFD9FF1200D9CFD9
:1012B000E6FFE1CFD9FF1F0E6F16FE0EDB506F1257
:1012C000E00E6F14106EFE0EDB50105C01E0F8D7DC
:1012D000E552E7CFD9FF1200D9CFE6FFE1CFD9FF22
:1012E000020EE126D950F90F106EFF0EDA20116EB2
:1012F00010C0DEFF11C0DDFFF80EDB503BE1DECF9A
:10130000E9FFDDCFEAFFEF50E840E840E8401F0B7F
:10131000E66EFD0EDBCFE9FFFE0EDBCFEAFFE55206
:10132000E750EF6EDECFE9FFDDCFEAFFEE52EF5080
:10133000200DF3CF10F0FD0EDBCFE9FFFE0EDBCF6B
:10134000EAFF1050EF12FD0EDB2AFE0E01E3DB2A4E
:10135000DECFE9FFDDCFEAFFEF50200DF350E66E60
:10136000FD0EDBCFE9FFFE0EDBCFEAFFE552E750D3
:10137000EF6E88D0DECFE9FFDDCFEAFF020EE9266F
:10138000000EEA22EF50E00BE838E840E66EFD0E72
:10139000DBCFE9FFFE0EDBCFEAFFE552E750EF6E51
:1013A000DECFE9FFDDCFEAFF030EE926000EEA22D9
:1013B000EF50080DF3CF10F0FD0EDBCFE9FFFE0E6E
:1013C000DBCFEAFF1050EF12FD0EDB2AFE0E01E329
:1013D000DB2ADECFE9FFDDCFEAFF020EE926000EB1
:1013E000EA22EF50080DF350E00BE66EFD0EDBCF66
:1013F000E9FFFE0EDBCFEAFFE552E750EF6EFD0E90
:10140000DBCFE9FFFE0EDBCFEAFFEF86DECFE9FFA1
:10141000DDCFEAFF020EE926000EEA22EF50030BB1
:10142000106EFD0EDBCFE9FFFE0EDBCFEAFF1050A2
:10143000EF12FD0EDB2AFE0E01E3DB2ADECFE9FF11
:10144000DDCFEAFFEE52EF50E66EFD0EDBCFE9FF97
:10145000FE0EDBCFEAFFE552E750EF6EFD0EDB2A12
:10146000FE0E01E3DB2ADECFE9FFDDCFEAFFEF501E
:10147000E66EFD0EDBCFE9FFFE0EDBCFEAFFE552A5
:10148000E750EF6E020EE15C02E2E16AE552E16EC6
:10149000E552E7CFD9FF1200D9CFE6FFE1CFD9FF60
:1014A000020EE126FB0EDBCFDEFFDBCFDDFFFA0E07
:1014B000DB504DE1FD0EDBCFE9FFFE0EDBCFEAFF97
:1014C000EF50080DF350E66EDECFE9FFDDCFEAFF07
:1014D000E552E750EF6EFD0EDBCFE9FFFE0EDBCFEE
:1014E000EAFFEF50E00BE838E840E66EDECFE9FFB8
:1014F000DDCFEAFFEE52E552E750EF6EFD0EDB2A3C
:10150000FE0E01E3DB2AFD0EDBCFE9FFFE0EDBCF93
:10151000EAFFEF50E00BE838E840106EDECFE9FF5D
:10152000DDCFEAFF1050EF12DECFE9FFDDCFEAFF9B
:10153000020EE926000EEA22EF6ADECFE9FFDDCFD8
:10154000EAFF030EE926000EEA22EF6A84D0FD0EC0
:10155000DBCFE9FFFE0EDBCFEAFFEF50200DF350AB
:10156000E66EDECFE9FFDDCFEAFF020EE926000ED0
:10157000EA22E552E750EF6EFD0EDBCFE9FFFE0EEB
:10158000DBCFEAFFEF50E840E840E8401F0BE66E93
:10159000DECFE9FFDDCFEAFF030EE926000EEA22E7
:1015A000E552E750EF6EFD0EDB2AFE0E01E3DB2A6B
:1015B000FD0EDBCFE9FFFE0EDBCFEAFFEF50030BA2
:1015C000106EDECFE9FFDDCFEAFF020EE926000E46
:1015D000EA221050EF12FD0EDBCFE9FFFE0EDBCF4B
:1015E000EAFFEF50E00BE840E840E8401F0B106EC8
:1015F000DECFE9FFDDCFEAFF020EE926000EEA2288
:101600001050EF12FD0EDB2AFE0E01E3DB2AFD0E69
:10161000DBCFE9FFFE0EDBCFEAFFEF50E66EDECF59
:10162000E9FFDDCFEAFFEE52E552E750EF6EFD0E27
:10163000DB2AFE0E01E3DB2AFD0EDBCFE9FFFE0E07
:10164000DBCFEAFFEF50E66EDECFE9FFDDCFEAFF4A
:10165000E552E750EF6E020EE15C02E2E16AE5520C
:0A166000E16EE552E7CFD9FF12005A
:06166A000001AE6BAF6B46
:101670001200D9CFE6FFE1CFD9FFE652DF6ADFCF14
:1016800010F0060EE76E1018E8AE02D0E73402D074
:10169000E750105C29E2DFCF10F0116A10BE11682C
:1016A000D89010361136FB0EDB501024E96EFC0E7C
:1016B000DB501120EA6EEECFE6FFEFCFE6FFDFCF83
:1016C00012F0136A12BE1368FD0EDB501224E96E8D
:1016D000FE0EDB501320EA6EEF50E66E0AD8E5529C
:1016E000E552E552DF2ACBD7E552E552E7CFD9FFE5
:1016F0001200D9CFE6FFE1CFD9FFE652050EDF6E2B
:10170000DF5000D0E552E552E7CFD9FF1200D9CF24
:0E171000E6FFE1CFD9FFE552E7CFD9FF120087
:02171E000E0EAD
:10172000F66E000EF76E000EF86E0E010900F55011
:10173000396F0900F5503A6F03E1396701D03DD0A8
:101740000900F550346F0900F550356F0900F55068
:10175000366F09000900F550E96E0900F550EA6E90
:10176000090009000900F550376F0900F550386F7E
:1017700009000900F6CF3BFEF7CF3CFEF8CF3DFE57
:1017800034CEF6FF35CEF7FF36CEF8FF0E013753D5
:1017900002E1385307E00900F550EE6E3707F8E232
:1017A0003807F9D73BCEF6FF3CCEF7FF3DCEF8FF2A
:0C17B0000E013907000E3A5BBFD7120093
:0417BC00D9CFE6FF9C
:1017C000DACFE6FFE1CFD9FFE2CFDAFFFD0EDB5043
:1017D000C96EC6AE02D0FF0E24D00F0EC614080884
:1017E0000FE00F0EC6140B080BE0C6889EA6FED7AE
:1017F000C750040B03E1C750010B10E0000E11D0DD
:101800000F0EC614080804E00F0EC6140B0809E1F9
:10181000C7B0FED737EC0DF0C5AC02D0FE0E01D03C
:0E182000000EE552E5CFDAFFE7CFD9FF120048
:02182E00065062
:101830000B02F3CF02F0F4CF03F00C02F3500326B7
:10184000000EF420046E06500D02F3500426000E24
:10185000F420056E06500E02F350052607500B02C9
:10186000F3500326F4500422000E052207500C0208
:10187000F3500426F450052207500D02F3500526BC
:1018800008500B02F3500426F450052208500C02B5
:0E189000F350052609500B02F35005261200F6
:02189E00006ADE
:1018A000E86A0EAE5CEF0CF00B6C0C1E0D1E0E1EEB
:1018B0000C220D220E22001E09AE67EF0CF0066C02
:1018C000071E081E091E072208220922001E83EC9B
:1018D0000CF009BE7EEF0CF000AE000C066C071E8B
:1018E000081E091EE86A072208220922026C031E4C
:1018F000041E051E032204220522000C00BE6EEF0A
:061900000CF00188FF0C51
:0A190600056A046A036A026A200EF3
:10191000E76ED890063607360836093602360336A3
:10192000043605360B50025C0C5003580D50045819
:101930000E50055809E30B50025E0C50035A0D502F
:0E194000045A0E50055A062AE72EE4D712006C
:02194E00D9CFEF
:10195000E6FFDACFE6FFE1CFD9FFE2CFDAFFFD0EF7
:10196000DB507F0BD56ED76AD66AF294FD0EDBAEE4
:1019700002D0F28A01D0F29AD58EE552E5CFDAFF95
:06198000E7CFD9FF1200C1
:0A198600D9CFE6FFDACFE6FFE1CF8C
:10199000D9FFE2CFDAFF3F0EC716C66AC56AFD0E51
:1019A000DB50C612FC0EDB50C71294869488C68AA0
:0C19B000E552E5CFDAFFE7CFD9FF1200C7
:0419BC00D9CFE6FF9A
:1019C000DACFE6FFE1CFD9FFE2CFDAFFBAAC04D03D
:1019D000BA900E013EB3BA80FD0EDB50796EE5522F
:0A19E000E5CFDAFFE7CFD9FF1200D0
:0619EA00D9CFE6FFDACFC1
:1019F000E6FFE1CFD9FFE2CFDAFFACAC04D0AC9088
:101A00000E013FB3AC80FD0EDB50AD6EE552E5CF6D
:081A1000DAFFE7CFD9FF120055
:081A1800410EF36E00EE00F038
:101A20000E0E01D81200EA6002D0EE6AFCD7F35025
:081A3000E9601200EE6AFCD728
:081A38001DEE00F02DEE00F0A0
:101A4000F86A019C8FEC0BF003EC00F044EC00F022
:041A5000FBD71200AE
:0C1A54000F0EC614080804E00F0EC614A4
:0E1A60000B0801E1C586C7A0FED7C9501200D1
:021A6E001F0E49
:0C1A7000C514FDE1C750040BFAE11200A0
:041A7C00080001005D
:101A80000000000000100011001200000013000010
:101A90000014000000150000001E000050515253B9
:101AA0005455000000A0A2A4A6A8AAACDEADBEAF0B
:020000040030CA
:0100000015EA
:0100010012EC
:010005008971
:00000001FF
